:020000040001F9
:10F00000A854002015F201001DF201001FF20100BA
:10F0100021F2010023F2010025F2010000000000AE
:10F0200000000000000000000000000027F20100C6
:10F0300029F20100000000002BF201002DF2010076
:10F0400095F901002FF20100FD010200B9FE010057
:10F05000C9FE01002FF2010039F6010011FA01008A
:10F060002FF201002FF201002FF201002FF2010018
:10F070002FF201002FF201002FF201002FF2010008
:10F080002FF20100EDF901002FF201002FF2010033
:10F09000D9FE01002FF20100DDFE01002FF2010078
:10F0A0002FF201002FF201002FF201002FF20100D8
:10F0B0002FF201002FF2010000000000000000000C
:10F0C0002FF201002FF201002FF201002FF20100B8
:10F0D0002FF201002FF201002FF2010000000000CA
:10F0E0000000000000000000000000000000000020
:10F0F0000000000000000000000000000000000010
:10F1000000000000000000000000000000000000FF
:10F1100000000000000000000000000000000000EF
:10F1200000000000000000000000000000000000DF
:10F1300000000000000000000000000000000000CF
:10F1400000000000000000000000000000000000BF
:10F1500000000000000000000000000000000000AF
:10F16000000000000000000000000000000000009F
:10F17000000000000000000000000000000000008F
:10F18000000000000000000000000000000000007F
:10F19000000000000000000000000000000000006F
:10F1A000000000000000000000000000000000005F
:10F1B000000000000000000000000000000000004F
:10F1C000000000000000000000000000000000003F
:10F1D000000000000000000000000000000000002F
:10F1E000000000000000000000000000000000001F
:10F1F000000000000000000000000000000000000F
:10F20000DFF80CD000F0DAF900480047016702008F
:10F21000A85400200648804706480047FEE7FEE75E
:10F22000FEE7FEE7FEE7FEE7FEE7FEE7FEE7FEE7B6
:10F2300001FF010001F201002DE9F05F0546002009
:10F2400092469B4688460646814640241BE0284657
:10F2500041464746224600F043F953465A46C01AF3
:10F26000914110D311461846224600F02AF92D1A72
:10F2700067EB01084F4622460120002100F021F9EA
:10F2800017EB00094E41201EA4F10104DFDC4846C3
:10F2900031462A464346BDE8F09F000000487047CB
:10F2A000F4CD020040EA01039B0703D009E008C93E
:10F2B000121F08C0042AFAD203E011F8013B00F83B
:10F2C000013B521EF9D27047D2B201E000F8012B87
:10F2D000491EFBD270470022F6E710B513460A46D6
:10F2E00004461946FFF7F0FF204610BD421C10F8F7
:10F2F000011B0029FBD1801A704730B5044600205D
:10F30000034600E05B1C934203D2E05CCD5C401BF3
:10F31000F8D030BD034611F8012B00F8012B002A6C
:10F32000F9D1184670472DE9FE4F81EA030404F035
:10F33000004421F0004100944FF0000B23F0004303
:10F3400050EA01045ED052EA03045BD0C3F30A54CE
:10F35000C1F30A552C44A4F2F3340194A0FB0254E7
:10F36000C1F3130141F48011C3F3130343F4801379
:10F3700001FB024400FB034E840A970A44EA8154CD
:10F3800047EA8357A4FB076802958D0A05FB0785AA
:10F390004FEA932C04FB0C542705029D4FEA0658B4
:10F3A00047EA1637B5EB08056EEB070C870E920E91
:10F3B00047EA811742EA8312A7FB0201B6EB0B0171
:10F3C00064EB00042B0D43EA0C335E1844EB1C5035
:10F3D000DA465146E7FB0201C5F313044FEA0B334B
:10F3E00043EA14534FEA0432019C43EA0603A4F1B2
:10F3F0000C040294009CCDE900B400F090F803B036
:10F40000BDE8F08F00200146F9E70EB5C10F80EA94
:10F41000E0700844CA07002140F233438DE80E0033
:10F420000A460B4600F07BF803B000BD70B5C1F38F
:10F430000A5201F000450024C1F3130140F2FF33EA
:10F4400041F480119A4201DA002070BD40F233434A
:10F450009A42A2F2334203DC524200F041F800E04B
:10F4600090402C43F1D0404270BDC1F30A5210B518
:10F47000C1F3130140F2FF3341F480119A4201DAE3
:10F48000002010BD40F233439A42A2F2334203DC23
:10F49000524200F025F810BD904010BD00F000422F
:10F4A00030F000400AD0C10D01F56071C0F31600C4
:10F4B00042EA0151C208400711437047002001464B
:10F4C0007047202A04DB203A00FA02F1002070473E
:10F4D0009140C2F1200320FA03F319439040704792
:10F4E000202A04DB203A21FA02F00021704721FA99
:10F4F00002F3D040C2F12002914008431946704700
:10F5000010B5141E73F1000408DA401C41F100012B
:10F5100092185B411A4301D120F0010010BD2DE982
:10F52000F04D92469B4611B1B1FA81F202E0B0FA79
:10F5300080F220329046FFF7C4FF04460F4640EAAF
:10F540000A0041EA0B0153465A46084313D01146BC
:10F5500053EA010019D0C8F140025046FFF7C0FF3E
:10F5600005460E46504659464246FFF7AAFF084355
:10F5700005D0012004E020463946BDE8F08D00208A
:10F58000054346EAE0762C4337430A986305E40ACC
:10F59000A0EB08000022FD0A44EA47540A3002D5D5
:10F5A00000200146E9E7010510196941DDE9084538
:10F5B00000196941BDE8F04DA2E70000064C074D77
:10F5C00006E0E06840F0010394E807009847103433
:10F5D000AC42F6D3FFF718FE04D5020024D5020092
:10F5E00070B58C1810F8015B15F0070301D110F805
:10F5F000013B2A1106D110F8012B03E010F8016B32
:10F6000001F8016B5B1EF9D12B0705D40023521EB4
:10F610000DD401F8013BFAE710F8013BCB1A921C1C
:10F6200003E013F8015B01F8015B521EF9D5A1421A
:10F63000D8D3002070BD00002DE9F04700268CB023
:10F64000DFF86091B0464FF4807501243746069686
:10F65000284608F001F938B1D9F80403204203D054
:10F66000284608F0EFF826432D1D64007F1CADB23C
:10F67000082FEDD34FF4BE74204608F0EDF848B1E2
:10F68000204608F0DFF846F0004606AA01210020D7
:10F6900008F0C4F8444D16F0FF0F15D001270024E0
:10F6A00037420DD009EB8401D1F81005D1F81015BF
:10F6B000C0F3042055F82420C1F3014102B1904762
:10F6C0007F00641C082CEBD3002E67DA4FF0FF306C
:10F6D000CDE9088000263446281910F8507F90F9AB
:10F6E000000027F0C008401C44D009A9404607F09C
:10F6F00079FB58B34FEA9719404604F0B3F855F830
:10F7000020701FB1B9F1030F03D00FE0B9F1030F5F
:10F7100030D108A84FEAD80208F00703815C4FF007
:10F72000010C0CFA03FC41EA0C0181544FF0A0419A
:10F7300001EB8800D0F8000706A9C0F3014A404653
:10F7400007F050FB18B1BAF1020F03D012E0BAF182
:10F75000030F0FD1B9F1030F08D1BAF1020F1BD07B
:10F760000221404608F02BF8761CF6B217B1494644
:10F770004046B847641C042CAED3002E0ED06A4617
:10F780000121002008F04AF806990098884205D027
:10F790000690089809909DE70321E2E70CB0BDE8C8
:10F7A000F087000000600040B02D00207FB50446C7
:10F7B00082B000201D4616460090012303AA214670
:10F7C000054807F095FF2B4632462146024807F0D0
:10F7D0007DFF06B040B270BD2CCC02001CB50223E8
:10F7E0008DF80410002100918DF80520014601AA32
:10F7F000024807F07DFF40B21CBD00002CCC020087
:10F80000F8B504461E46002013460A460090069DA1
:10F810002146064807F06CFF01B02B4632462146D0
:10F82000BDE8F040014807F051BF000024CC0200C1
:10F830001CB502238DF80410002100918DF80520DD
:10F84000014601AA014807F053FF1CBD24CC020069
:10F8500070B51F4C064600206071A071E0712072E7
:10F86000607201200D46102E08D0112E0FD0122EDE
:10F8700013D0132E17D0142E17D01FE060716572AD
:10F8800015B10CF038F914E00CF02BF911E0A0716F
:10F89000657285B90CF077F90DE0E0710CF035F97F
:10F8A0000CF0D8F807E0207205E00CF01AF90CF023
:10F8B000D1F8607A10B103F08FF801E003F0BEF9DF
:10F8C0002B463246BDE8704002A1032008F00FB974
:10F8D000D01F00204150503A494E464F3A4D6F6478
:10F8E0006520737769746368204D6F64655B256478
:10F8F0005D207573655F6D6F7573655B25645D0D68
:10F900000A00000000F01F02012191404009800020
:10F9100000F1E020C0F88012704700F01F020121C2
:10F9200091404009800000F1E020C0F8801170474C
:10F9300000F01F02012191404009800000F1E02009
:10F94000C0F80011704700F01F02012191404009EA
:10F95000800000F1E020C0F80011704700F01F02A5
:10F96000012191404009800000F1E020C0F8001220
:10F9700070474907090E002806DA00F00F0000F171
:10F98000E02080F8141D704700F1E02080F800149A
:10F99000704700002DE9F0414FF48077384607F0BA
:10F9A00091FA0124104EA50748B1384607F091FAA4
:10F9B0000120C5F808037470002003F0E3FF4FF442
:10F9C0008277384607F07EFA00280BD0384607F0D9
:10F9D00080FA0220C5F80803B470BDE8F0410120A8
:10F9E00003F0D0BFBDE8F0819C2D00200748002126
:10F9F000C0F84011C0F84411C0F84811C0F84C11CB
:10FA0000C0F80011C0F804110CF0BEB9001001409C
:10FA10002DE9FE434FF48278404608F0E5F84C4F5C
:10FA200000254C4C012600B3404608F0E5F894F858
:10FA30002E0010B194F82F10D1B18DF800506168EC
:10FA400001912189ADF80810E26832B1218B618300
:10FA500062602181E56010B102E0257400E03E6043
:10FA600021686846884784F82F5094F82E0060B3C8
:10FA70004FF48077384608F0B7F830B3384608F0CE
:10FA8000BBF8628B94F82D108A420AD9A2EB0100D0
:10FA900080B260832289A2EB0000626802EB400022
:10FAA00005E007D1E06828B184F82F60658308F08D
:10FAB00055F804E08A4202D184F82F6065834046FD
:10FAC00008F09AF82248001D06604FF488773846FF
:10FAD00008F08AF848B1384608F08EF825740220FC
:10FAE0008DF800002168684688474FF48A773846C9
:10FAF00008F07AF828B1384608F07EF82574BDE899
:10FB0000FE834FF000484FF48C7967691DE000BF19
:10FB1000B7FA87F028FA00F109EB80058F432846F1
:10FB200008F062F888B1284608F066F8A5F58C75EB
:10FB3000E8088DF8040045F38000401C8DF8006053
:10FB40008DF80500216868468847002FE0D1D6E788
:10FB500000700040782E002003480078002801D172
:10FB600000F05ABB704700009033002070B50E467D
:10FB7000144900EB400001EBC0051446E86A183553
:10FB800020B101280FD0022805D113E0284600F04B
:10FB900077FBA04201D2002411E0224631462846DC
:10FBA00000F0A6FB0BE0284600F06AFBA042F4D26E
:10FBB0000446F2E73146284600F06DFB0446204635
:10FBC00070BD00009033002006F05CBA024A0021AC
:10FBD000024801F049B9000081AE020018CC0200D1
:10FBE00010B50446154802F0CDFE1449144A154BD1
:10FBF00048881288801A00B248800A881B8800EE64
:10FC0000100AD21A104B0A808A881B88B8EEC00AE4
:10FC1000D21A8A8084ED000AB1F9000000EE100AC1
:10FC2000B8EEC00A84ED010AB1F9040000EE100A32
:10FC3000B8EEC00A84ED020A10BD00007022002058
:10FC4000F01F0020F21F0020F41F002070B50446B2
:10FC5000394802F097FE3848801D02F069FE3649A7
:10FC6000364A891D384B48881288384D801A344AE4
:10FC7000488008881288801A324A0880888812884A
:10FC8000801A88808A1F1B885088C01A00B2508052
:10FC9000C01C00EE100A13882D88F8EEC00A9FEDF4
:10FCA0002D0A5B1B2A4D80EE801A138093882D88C5
:10FCB0005B1B938084ED001AB2F90000C01C00EEBB
:10FCC000900AF8EEE00A80EE801A84ED011AB2F98B
:10FCD0000400083000EE900AF8EEE00A80EE801A88
:10FCE00084ED021AB1F9020000EE100AF8EEC00A23
:10FCF0009FED190A20EE801ADFED180A21EE201A76
:10FD000084ED031AB1F9000001EE100AB8EEC11A31
:10FD100021EE001A21EE201A84ED041AB1F9040034
:10FD200001EE100A0020B8EEC11A21EE000A20EE02
:10FD3000200A84ED050A70BD70220020F61F002005
:10FD4000F81F0020FA1F0020F01F0020F21F0020E3
:10FD5000F41F002000806A4479E91C4100008038CB
:10FD600070B504462B4802F00DFE2A48801D02F0B3
:10FD7000DFFD284A2849294B50880988294D401A17
:10FD800000B2508011881B8800EE100AC91A244B5B
:10FD9000118091881B88B8EEC00AC91A9180911D04
:10FDA0002D884B885B1B204D4B800B882D885B1B5F
:10FDB0001E4D0B808B882D885B1B8B8084ED000A89
:10FDC000B2F9000000EE100AB8EEC00A84ED010A94
:10FDD000B2F9040000EE100AB8EEC00A84ED020A7F
:10FDE000B1F9020000EE100AB8EEC00A84ED030A71
:10FDF000B1F9000000EE100AB8EEC00A84ED040A62
:10FE0000B1F9040000EE100AB8EEC00A84ED050A4C
:10FE100070BD000070220020F01F0020F21F0020A3
:10FE2000F41F0020F61F0020F81F0020FA1F0020FA
:10FE300070B50446194802F0A5FD1848801D02F06F
:10FE400077FD164A1649174B50880988174D401AF6
:10FE5000508011881B88C91A134B118091881B8808
:10FE6000C91A9180911D2D884B885B1B104D4B80CA
:10FE70000B882D885B1B0F4D0B808B882D885B1B9F
:10FE80008B802080108860809088A0804888E080E7
:10FE9000088820818888608170BD00007022002061
:10FEA000F01F0020F21F0020F41F0020F61F00208A
:10FEB000F81F0020FA1F00200149024806F01DB873
:10FEC000282E00200030004002494FF0402005F06D
:10FED000B9BF0000502E00200BF0A4BE074810B59B
:10FEE000406830B18047002807D0BDE8104000F0DE
:10FEF00029BFBDE8104005F069BF10BD4C220020AD
:10FF0000F0B5AE480023021D01780125101D4FF009
:10FF1000805406290BD11678360708D10678C6F327
:10FF20000316032E06D0042E04D0052E02D0062977
:10FF300007D00EE0B4F82463A14FC6F304263E6058
:10FF400002E01678360704D10678C6F30316032EAE
:10FF500002D0062904D00FE09B4F9A4E7E670EE038
:10FF60001678360708D10678C6F30316032E06D096
:10FF7000042E04D0052E02D0062907D00EE0D4F8B6
:10FF80004462924FC6F342363E6002E0167836076E
:10FF900004D10678C6F30316032E02D0062906D034
:10FFA00011E08B4E376827F0807737600EE01678C7
:10FFB000360708D10678C6F30316032E06D0042EA2
:10FFC00004D0052E02D006290AD011E04FF0804659
:10FFD000C6F80C31C6F810317C4E361F336002E093
:10FFE0001678360704D10678C6F30316032E02D01E
:10FFF000062905D00CE0754F032664373E600AE001
:020000040002F8
:100000001678360704D10678C6F30316032E02D0FD
:1000100006290DD014E06F4F05263E606D4E7836F0
:1000200035606C4E083633603F263F1D3E6002E06F
:100030001678360704D10678C6F30316052E02D0CB
:10004000062957D062E0644E3668644F3E60624EC7
:10005000361D36683F1D3E605F4E083636683F1DD0
:100060003E605D4E0C3636683F1D3E605A4E10367F
:1000700036683F1D3E60584E143636683F1D3E6060
:10008000554E18363668554F20373E60524E1C3656
:1000900036683F1D3E60504E203636683F1D3E603C
:1000A0004D4E243636683F1D3E604B4E283636682E
:1000B0003F1D3E60484E2C3636683F1D3E60464E22
:1000C00030363668454F40373E60434E34363668EA
:1000D0003F1D3E60404E383636683F1D3E603E4E06
:1000E0003C3636683F1D3E603B4E403636683F1D0D
:1000F0003E6002E01678360708D10678C6F303168C
:10010000032E06D0042E04D0052E02D0062907D0D7
:1001100019E0D4F85812324A01F04F01116002E0A0
:10012000117809070FD10078C0F30310032803D01A
:10013000042801D0052806D12A480168C90702D041
:100140006FF00101016022487438016841F47001C8
:100150000160BFF34F8FBFF36F8F4FF01021D1F8C5
:100160000002002803DBD1F80402002822DA1E4A2C
:1001700015601E480468002CFCD01524C1F800420C
:100180000568002DFCD0C1F8044201680029FCD0AC
:10019000136001680029FCD0BFF34F8F0C48F03882
:1001A0000168134A01F4E06111430160BFF34F8F0E
:1001B00000BFFDE710490F480860F0BDE00F00F0F8
:1001C000403501400DF0ADBA00C007403C0500408D
:1001D000FCED00E0105600400404001020C5004073
:1001E000E40E00400004004004E5014000E401404A
:1001F0000400FA050090D003A02200200448017FEB
:1002000004480029024901D00CF021BA0CF090B941
:10021000082E00200020004010B5124C0220206162
:10022000606111A0A061A4F50470E0614FF400705A
:1002300020620020A06260620BA1A164E062A4F1D0
:100240001001E16410212165A0656065E06509A1E8
:10025000E01DFFF75FF808A12046FFF75BF82020BC
:10026000A07110BD903300205465726D696E616C91
:1002700000000000525454005345474745520000C7
:100280000269C1688A4203D88068401A104400E0BD
:10029000501A401E70472DE9F047C468174689463A
:1002A00006464FF000083069A04201D9051B02E064
:1002B000B168201A0D1AB0686D1E001BA84200D844
:1002C0000546BD4200D33D4670682A462044494653
:1002D000FEF7E8FFB0687F1B2C44A844A944A04265
:1002E00000D10024F460002FDDD14046BDE8F08746
:1002F0002DE9F041C6680446174688468068851B8C
:100300006068BD4206D93044FEF7CCFFF019E060CA
:10031000BDE8F0812A463044FEF7C4FF7E1B08EB9F
:10032000050132466068FEF7BDFFE660F0E70000B9
:100330000FB41CB50246002007AC00290BD0491EA3
:10034000CDE90021054B6A462146069800F02AF8BF
:10035000009A002111701CBC5DF814FB0708020014
:1003600002E008C8121F08C1002AFAD1704770477E
:10037000002001E001C1121F002AFBD170470000DC
:100380000121202803DA81400548014003E040288C
:1003900002DA2038814009B10120704700207047FF
:1003A000FC06FFBD2DE9FF4F8DB00F460546002628
:1003B00006E025280BD0DDE90F1290476D1C761C56
:1003C00028780028F5D111B03046BDE8F08F002420
:1003D000A246A1460122EC4900E0044315F8013F82
:1003E000203B02FA03F00842F7D128782A2810D0DF
:1003F0006FF02F022878A0F13001092914D80AEBF8
:100400008A0102EB410144F0020400EB010A6D1C79
:10041000F0E701CF5FEA000A03D544F40054CAF1C3
:10042000000A44F002046D1C28782E2817D115F814
:10043000010F44F004042A280ED06FF02F02287810
:10044000A0F1300109290AD809EB890102EB410129
:1004500000EB01096D1CF2E757F8049B6D1C28782E
:100460006C280FD006DC4C2817D068280DD06A28DD
:1004700014D104E0742810D07A280FD10DE044F490
:1004800000140AE044F4801401E044F44014697854
:10049000814202D104F580146D1C6D1C2A786E2AED
:1004A0001FD00CDC632A31D004DC002A8BD0582A00
:1004B00011D1A3E0642A68D0692A0CD165E0732ABF
:1004C0002ED004DC6F2A73D0702A04D19BE0752AE9
:1004D0006FD0782A6ED01046DDE90F129047761C57
:1004E00050E1C4F30250022806D0032809D00428A2
:1004F00001CF09D0066045E101CFF117C0E90061E5
:1005000040E101CF06803DE106703BE117F8040BA6
:100510008DF8000000208DF80100EB46012003E07B
:1005200057F804BB4FF0FF3061074FF0000102D4D1
:100530000DE008F10101884649450FDA8045F8DBF6
:100540001BF808100029F4D108E008F101018846E1
:100550008142FADB1BF808100029F6D1DDE90F23F0
:10056000AAEB08008146214600F036F9304400EB42
:10057000080604E0DDE90F121BF8010B9047B8F103
:100580000108F7D221464846F7E00A21C4F3025396
:100590004FF0000B0891022B04D001CFC117032BA1
:1005A00009D00AE0FF1D27F00707F7E8020108E07D
:1005B00032E01FE020E000B2C117042B01D140B2AD
:1005C000C117031E71F1000307DA4FF0000CD0EBE6
:1005D0000C006CEB01012D2302E0230504D52B2335
:1005E0008DF82430012303E0E30701D02023F7E74F
:1005F000984658E00A2110E010210EE010204FF03C
:10060000000B08900CE010214FF0000B44F00404A4
:100610004FF00809089103E008214FF0000B089102
:10062000C4F30253022B04D001CF0021032B06D0C8
:1006300006E0FF1D27F00707F7E8020103E080B29C
:10064000042B00D1C0B24FF0000823072BD5702A2D
:1006500007D0DDF820C08CF0100C5CEA0B0C05D044
:100660000EE040238DF82430012308E050EA010316
:1006700006D030238DF824308DF8252002239846AB
:10068000DDF820C08CF0080C5CEA0B0C0BD150EAB2
:10069000010301D1630706D530238DF824304FF0D4
:1006A0000108A9F10109582A04D038A20B9208AA1E
:1006B0000A920BE03AA2F9E75B46089AFEF7BCFD06
:1006C0000B9B9B5C0A9A521E0A92137050EA01021D
:1006D000F2D10A98ADEB000000F1200B600702D5C3
:1006E00024F4803401E04FF00109D94502DDA9EB83
:1006F0000B0000E0002000EB0B0141440890AAEB46
:10070000010AE00306D4DDE90F232146504600F03C
:1007100063F806444FF0000908E009A911F8090040
:10072000DDE90F12904709F10109761CC145F4DBA0
:10073000E0030CD5DDE90F232146504600F04CF8CC
:10074000064404E0DDE90F1230209047761C08993A
:10075000481E08900029F5DC08E00A980A990078FC
:10076000491C0A91DDE90F129047761CBBF100018C
:10077000ABF1010BF1DC21465046DDE90F2300F01F
:1007800019F806446D1C1BE609280100303132338C
:1007900034353637383961626364656600000000BD
:1007A00030313233343536373839414243444546A7
:1007B000000000002DE9F041044600251E461746C2
:1007C000880404D405E039462020B0476D1C641E1F
:1007D000F9D52846BDE8F0812DE9F0410446002511
:1007E0001E469046C80301D5302700E02027880424
:1007F00004D505E041463846B0476D1C641EF9D566
:100800002846BDE8F0814A68002A06D00A68531CD1
:100810000B6010704868401E4860704710B560B1AA
:1008200059B102780B785208B2EB530F05D106226A
:10083000401C491CFEF761FD08B1002010BD0120DD
:1008400010BD2DE9FC47002517880646158090F855
:100850002D001446894630B13A462146484601F0FB
:10086000A5F9050009D1B0784FF00C0A18B320881B
:10087000C846001DB84202D95046BDE8FC8768460C
:1008800079DF0028F9D12088032108F8001020889A
:100890001921401C80B2208008F800102088401CDC
:1008A00080B2208000EB0801BDF800000BF047FF8C
:1008B000218808442080F0780222C8B1218896F966
:1008C000033001F1030C4846BC45D5D84254218879
:1008D0004FF0010C491C89B2218000F801C0218829
:1008E000491C89B2218009F801302088401C2080F1
:1008F0007068B8B1218890F9003001F1030C4846C6
:10090000BC45B9D8425421880A22491C89B22180A9
:1009100042542188491C89B2218009F8013020887D
:10092000401C2080308950B1CDE900474B4606225B
:10093000022106F108000BF05BFF05009DD1308A13
:1009400050B1CDE900474B460722032106F11000C4
:100950000BF04EFF050090D1308B50B1CDE9004730
:100960004B461522142106F118000BF041FF05003B
:1009700083D1306A30B13B462246494603F06CF8D9
:100980000500DBD1706A30B13B462246494606F08D
:1009900056F80500D2D196F82C0038B13B462246D5
:1009A000494630460AF0CCFB0500C7D1307838B153
:1009B0003B4622464946304606F082F90500BDD145
:1009C00028465AE7134A0021535C0BB1012203E089
:1009D000491C0629F8D300220F49012806D0022815
:1009E00009D003280CD0042812D10DE0487810B1AA
:1009F0000AB101207047887810B10AB1022070470F
:100A0000C87808B103207047087908B104207047FE
:100A100000207047392100203827002010B598B0F9
:100A20003C2101A8FEF757FC02218DF80410012497
:100A300005208DF806408DF8070016480690ADF8A1
:100A40001440202110A8FEF746FC00208DF840003D
:100A50008DF841408DF84200129013902820149098
:100A60008DF843401E2015908DF844404FF44860A7
:100A70001690B420179008480090084B10AA002147
:100A800001A800F08BFC002801D000F05BF918B041
:100A900010BD0000FC1F002099130200717C0200B1
:100AA0002DE9F04730B125A1032007F015F808F033
:100AB000EFFF3AE04FF6FF76324610212548FEF769
:100AC00003FC254C082005466064DFF8888004F1AB
:100AD0004407B146304608F0CBFE0026BA463E60D9
:100AE0004F460AE0DAF800104FEA410C491CCAF8F8
:100AF000001028F80C0008F0BBFEB84201D06D1EB3
:100B0000F0D21448616C09F0DDF808B100F01AF970
:100B10001048616C08F0E6FC062802D008B100F02D
:100B200011F96675032000F059FD002803D0BDE8D7
:100B3000F04700F007B9BDE8F08700004150503A97
:100B4000494E464F3A457261736520626F6E647319
:100B5000210D0A0060260020D01F002070B58CB047
:100B600015460E4600236C46C3F10F01415CE1546B
:100B70005B1C102BF8D30D2104F11000FEF7ABFB2A
:100B80000020C0F10F02315C2244401C1174032884
:100B9000F7D3684643DF0020C0F10F01214491F8EC
:100BA00020102954401C0328F6D30CB070BD02203D
:100BB00002F06EB910B5B0F90210B0F900309942E8
:100BC00018DBB0F904208A4214DBB0F90610914218
:100BD00010DBB0F9080088420CDBC01E984209DB2C
:100BE00007A1032006F078FF0E491020887000F05E
:100BF000E3FA10BD0CA1032006F06EFF10BD00004B
:100C00004150503A494E464F3A6368617267657287
:100C100020706C756720696E2021212121200D0A2A
:100C200000000000802200204150503A494E464FBB
:100C30003A6368617267657220706C756720756EC3
:100C40006B6E6F772021212121200D0A000000000A
:100C500070B50024064D06E06868012110F83400E4
:100C600006F002FB641C28788442F5D3002070BD96
:100C7000F8210020F8B515460C460646052A01D293
:100C80000720F8BD06F0D6FB18B906F0A5FB002832
:100C9000F7D1104900204E600C70C1E902500E4D92
:100CA00008610DE006EBC4006968009181788DF859
:100CB00001100078094A694606F028FB0028E0D1B7
:100CC000641EE4B2EED2BDE8F840054A00210248B5
:100CD00000F0CAB8F821002038CD02002D4E0200E5
:100CE000F93E02000AA1012006F0F6FE0CA1032045
:100CF00006F0F2FEBFF34F8F10480168104A01F46E
:100D0000E06111430160BFF34F8F00BFFDE70000BA
:100D10003A4552524F523A466174616C0D0A0000D6
:100D20003A494E464F3A486974207765616B2068AE
:100D3000616E646C65720D0A000000000CED00E04D
:100D40000400FA050EB500210091CDE901106A46B4
:100D500044F20100FFF7C6FF0EBD00002DE9F84F79
:100D6000254C8146924660880E46814241D8002734
:100D70004FF6FF788DF80070684600F005F922788C
:100D80006078A188884201DA401C00E00020C0B2EF
:100D9000904204D19DF8000000F01AF927E0657830
:100DA0006078884201DA401C00E0002060709DF805
:100DB000000000F00DF9454519D0A068B9F1000F09
:100DC00040F835A00DD066B16188E068324605FB79
:100DD00001004946FEF766FAA06800EBC500868070
:100DE00002E000EBC50087800020BDE8F88F0420FA
:100DF000FBE70920F9E700000C22002010B50E4C9B
:100E000003E0401C00E000202070207861788142DF
:100E100010D022786188E068A36802FB010003EB30
:100E2000C20153F83220898890472078A1888842EF
:100E3000E9DAE6E710BD00000C22002030B5CB0057
:100E400008339DB293074FF0000401D0072030BD56
:100E5000044B9A602A44DA605C701C705880998058
:100E6000002030BD0C220020074B9B7823B12AB113
:100E700020B10068037C1BB1082070470720704731
:100E80004174426100207047C82E002070B509F0FF
:100E9000F5FA104800240B21047044700E4D817047
:100EA00014206C602C706C70FEF72CFD0721142050
:100EB000FEF75FFD1420FEF73BFD084804600721A4
:100EC0001120FEF756FD0548001F0068A8600020AD
:100ED00070BD0000C82E00201C2200200815014013
:100EE0002DE9FC47DFF8789099F8023073B368B3C6
:100EF000052902D20720BDE8FC87436933B3437C50
:100F0000012B25D0002704460025884616468DF87B
:100F10000050684600F038F801A80BF051FCC8B149
:100F2000012101700F4944600968C0E90218C0E955
:100F300004769DF8040089F801009DF8000000F097
:100F400047F81420FEF70AFD2846D4E70820D2E728
:100F50000F46D8E704259DF8000000F039F8F3E7C4
:100F6000C82E0020041501400649897839B130B1F6
:100F7000416921B10021017402210AF0E1BE08207B
:100F800070470000C82E002030B5EFF3108172B614
:100F90000D4A9468012324B10370002900D162B680
:100FA00030BD93604FF0E023D3F88051074C2540CB
:100FB0001560C3F88041D3F8844154605A17C3F8D0
:100FC000842100220270E8E7D42F0020FC06FFBD38
:100FD0000B498A68002A11D000280FD1EFF3108046
:100FE00072B60B684FF0E022C2F800314B68C2F8CD
:100FF000043100228A60002800D162B670470000E8
:10100000D42F00202DE9F043044687B0008800F07B
:1010100063FD8146208804F0D9FB214F8046667A23
:10102000208800223978A56800F0A8FDB9F1000FEA
:1010300033D06079400711D50721404607F07AFE8A
:10104000A0B108218DF80C1021880590ADF80E1084
:10105000ADF8108003A803F07FF807E02088B97886
:1010600000F076FD10B1404604F09CFB03208DF8A3
:1010700000002088ADF802006079C0F380008DF890
:101080000400A079C0F380008DF805008DF80650AB
:101090008DF80760684603F05FF807B0BDE8F0839D
:1010A0009421002000B585B014216846FEF713F99D
:1010B00000200090029064208DF80C009DF80D0037
:1010C000012120F00F00401C20F0F00020308DF8AE
:1010D0000D009DF80E008DF8041020F00F00401C4C
:1010E00020F0F00020308DF80E009DF80F006946CA
:1010F00020F0FF008DF80F009DF8100020F00F0089
:10110000401C20F0F00020308DF81000074800F05F
:1011100080FB08B1FFF716FE6946044802F044FD63
:10112000002801D0FFF70EFE05B000BD1C260020F0
:1011300070B51F4C1F4DA07810281AD00026122819
:1011400013D0152825D0142827D0132810D1607863
:1011500000280DD00AF017FD02231A46194618463A
:101160000AF08AFC284605F0D9FF04F0DBFF667020
:1011700070BD0AF008FD00231A46194618460AF009
:101180007BFC284605F0CAFF04F0CCFF012060700C
:1011900070BDBDE8704004F0C5BF0AF003FD012337
:1011A000BDE870401A46194618460AF065BC0000B2
:1011B0008022002080841E00034800224FF4A47186
:1011C0000068FFF78DBE000064CD02002DE9F043FA
:1011D0000546007D93B00E460024A0B107949DF80B
:1011E0001C0020F00F00401C20F0F00010308DF8A3
:1011F0001C00707B8DF81D009DF81E0020F006007D
:10120000801C8DF81E001C216846FEF764F89DF8CE
:10121000000040F002008DF80000297D11B140F07F
:10122000100001E020F010008DF8000001940394FC
:101230000494287D00B107A8CDE9050401278DF8A5
:10124000427042F61920ADF840000D94B07B8DF845
:101250003400F07B8DF835009DF83600142120F025
:101260000600801C20F019008DF83600307B8DF8C8
:10127000440008A8FEF72FF80DF140080DF13409DD
:10128000ADF8287011A8CDE90889ADF82A40ADF86D
:101290002C700C90A888AB1D08AA6946A2DF002814
:1012A00038D1B06898B38DF8427042F60810ADF8A6
:1012B00040000D94307C8DF834009DF8350020F00E
:1012C000FF008DF835009DF8360020F00600801CE8
:1012D00020F019008DF836000EA8B16800F0C5FFA7
:1012E0000646142108A8FDF7F6FFADF828600EA801
:1012F000CDE90889ADF82A40ADF82C600C90E8885B
:1013000005F10E0208A9A3DF002803D101E0FFE7E1
:10131000EC81002013B0BDE8F083000002480178A2
:10132000024800F039BA0000802200201C2600206C
:10133000F0B50C4693B01F210726ADF80010ADF8AC
:101340000410002750B1C17849070DD56A4602A99B
:10135000FFF777FA002808D102AD02E00025ADF8CA
:1013600000706CB1E07810B1304613B0F0BD01AA46
:101370000AA92046FFF765FA0028F6D10AAA02E07A
:101380000022ADF80470BDF80400C3B2BDF800003F
:10139000C1B2284672DFE8E7FFF7D4BC2DE9F04779
:1013A0001F46DDF8208013468946040043D0EBB386
:1013B000404D0120002668702E71202219463E48BB
:1013C000FDF770FF6E71C5E904784FF6FF70688114
:1013D000AE613948AE83AE773C212030FDF77BFF0C
:1013E0003548217820300170A1788170E178C17092
:1013F000617841703049D4E90423C1E90C23D4E970
:101400000223C1E90A23D4E90623C1E90E23616A54
:10141000E1B100F13C0100F1480241628A60636A77
:101420001B880B80616A436A898800E003E0998029
:101430000021436A07E00E20BDE8F087656AAD68C9
:101440006D5C5554491C9D888D42F7D8A16AD9B16D
:10145000194A9432A2F10C018A608162A36A9B88C6
:101460008B80A16A836A098819800021836A04E05D
:10147000A56AAD686D5C5554491C9D888D42F7D8AE
:1014800094F82C1080F82C10216A49B109490C31CC
:101490000162226A52884A80216A026A09881180A0
:1014A000616801B141604946BDE8F047024820301B
:1014B000FFF73EBF202100203827002010B501880B
:1014C000184C102916D011291AD01B2911D1007AD5
:1014D00000280ED114A1032006F002FB207905217B
:1014E000401CB0FBF1F201FB120000F077F80200A3
:1014F00011D110BDC17B0129FBD18088608110BD55
:101500000021E171808861898842F8D1012000F0D2
:1015100065F80028F3D061690029F0D0BDE81040DB
:1015200008470000202100203A494E464F3A202D1E
:101530002D2D2D202074696D656F75742072657472
:10154000203D2025640D0A0010B5022801D0032893
:1015500010D1094CA07800280CD00020A070207970
:1015600000F03CF8002805D06169002902D0BDE8F0
:101570001040084710BD00002021002007498A794B
:101580004AB100228A7102688A6182888A838079DE
:101590008877002070470820704700002021002035
:1015A00010B574DF0B4C01200B49E0710020607214
:1015B0000620C87000210848FFF7BAFE002807D1AE
:1015C000207900F00BF810B1616901B18847002063
:1015D00010BD000020210020582700202DE9F041F7
:1015E0004E4C804686B0607848B184F8048004A8E8
:1015F00003F02CF90498012628B1A6708AE008208F
:1016000006B0BDE8F0810025A561454FA583A5770B
:10161000787810B12079012806D0B878B8B120794F
:10162000012801D0022812D1216919B1A671082020
:10163000884700E0A5712078401CC0B220701E28A9
:1016400005D13849032006F047FA09F005FE424665
:1016500035A1032006F044FA4046FFF7B3F92071A4
:10166000024631A1032006F03BFA216941B12079FD
:10167000032801D0042803D1387808B1E079B8B143
:10168000257200950295019503958DF800508DF80F
:101690000850424624A1032006F022FA1F4821796F
:1016A0001830052925D2DFE801F03708111D210087
:1016B0006572267207208847E3E7E67001908DF88F
:1016C0000060ADF80C50ADF80A5014E00221E17052
:1016D00001908DF80060B889ADF80C003889ADF83C
:1016E0000A0008E0684609F071FD02E0684609F06A
:1016F00091FD207928B16179684673DF00287FF475
:101700007FAFE27812A1032006F0EAF9216909B15E
:10171000E0788847002073E7E570F2E72021002099
:1017200038270020B0CF02003A494E464F3A616454
:10173000766572746973207374617274206D6F645E
:10174000652073746172743D3D2025640D0A0000AC
:101750003A494E464F3A61647665727469732073F4
:1017600074617274206D6F646520656E643D3D2008
:1017700025640D0A000000000648027A3AB10022F2
:101780000272194300D001214172002070470820E5
:10179000704700002021002073B586B0040034D0CB
:1017A000217C9DF81C20002091422CD00025012690
:1017B0000095ADF8006007A8ADF802500190E188EF
:1017C000608A6A46A4DF00281DD19DF81C002074A1
:1017D000608AA0F57F41FF3919D0207DB8B102950C
:1017E000039504950595E088ADF80800BDF8020062
:1017F000ADF80C0001988DF80A60CDF810D0059076
:10180000608A02A9A6DF08B070BD0E20FBE70820A1
:10181000F9E738B50D4604001BD0D5B12868206023
:101820004FF6FF70608228792075FF202074012018
:101830008DF8020041F60F00ADF80000221D694648
:101840000120A0DF002803D129462046FFF7BEFC77
:1018500038BD0E2038BD38B504000D4619D0002D16
:1018600017D0288810280FD011280FD0502810D159
:101870000846217DE9B130F8062F61898A4218D1E6
:101880004189022906D014E0888801E04FF6FF70F4
:10189000608238BD216861B10C3000F0E2FC08B113
:1018A000002000E001208DF80000226820466946F3
:1018B000904729462046BDE8384002F065BA00004E
:1018C00070B5054601461C220F48FDF7EBFC0F4C96
:1018D00000262670286830B1016861604068A06009
:1018E000201D7ADF02E00948001D7BDF00280AD1B5
:1018F0004FF6FF7060806670BDE87040044A0021BA
:101900000448FFF7B1BA70BD0C2800204021002028
:1019100049C7020088CC020070B51E4C068800231F
:101920001B49E289102E15D01B4D112E1CD0122EF2
:1019300029D0502E17D130F8061F914213D141897A
:10194000022910D10C3000F08CFC88B1BDE8704049
:1019500002F0C8B884884C800469CC604069086192
:101960004B70002AF2D070BD4FF6FF7048804B706C
:101970002868FFF7F9FA0028F5D0A1690029F2D00C
:10198000BDE8704008478268CA60C0680861DDE74A
:10199000402100200C28002088CC020002494A6C1B
:1019A000091D09F0A7B800002828002002460248B7
:1019B000016D001D09F08BB828280020024602485E
:1019C000416D001D09F083B8282800202DE9F0475B
:1019D000044603883F480122A4B000F1480A102BB6
:1019E00009D0112B54D01A2B70D1217AB2EB111FD0
:1019F00053D2012352E0D0E911218A430546011D4B
:101A000012A809F077F8442212A901A8FDF74AFCB0
:101A1000DFF8C0900026374609F144090DF10408AB
:101A20000AE000BF08EB46001D2283884946281DB6
:101A3000009709F011F8761C0198B042F2D8686C52
:101A4000A688C04309F02AF8A0F57F41FF3917D0D6
:101A500005EB40000123868032465146281D09F0DF
:101A60006EF8012332464946281D09F068F8E07BEC
:101A700002280BD000231749A2884C31281D20E0F2
:101A800024B00420BDE8F047FFF75CB90123F2E77A
:101A90000023A2885146001D13E000230D4905468E
:101AA000A2885031001D09F04AF8207A0221B1EBDA
:101AB000101F01D2012300E000230649A2885431FF
:101AC000281D24B0BDE8F04709F039B824B0BDE8BE
:101AD000F08700002828002070B50A4E0546002433
:101AE0002A46301D716C08F0F2FF40B12A46301DC5
:101AF000F16C08F0ECFF08B1022400E0012420465C
:101B000070BD00002828002010B5002420460AF0EF
:101B10004BFE28B1641CE4B2182CF7D3182010BD7A
:101B200003480122A240016811430160204610BD14
:101B30002828002010B504460AF036FE002803D0FD
:101B4000024800EB8400806D10BD000028280020B2
:101B500070B505460C4608460AF026FE002809D056
:101B600005482A4600EB8401001D896DBDE87040E0
:101B700008F0ADBF70BD00002828002070B50646F3
:101B800015460C4608460AF00FFE00280AD0064803
:101B90002B4600EB84013246BDE87040001D5831F1
:101BA00008F0CDBF70BD0000282800207CB5054698
:101BB00008880C460930904201D90C207CBD68464B
:101BC0006DDF0028FAD121880820685420881B2165
:101BD000401C80B2208029542088401C80B2208084
:101BE0002844DDF801100160BDF8051081802088CF
:101BF000801D80B220809DF80010490800D001218E
:101C000029542088401C208000207CBD08780028B2
:101C100009D0012805D0022801D005A104E00EA1B9
:101C200002E019A100E024A1032005F055BF000047
:101C30004150503A494E464F3A556E6B6E6F776E33
:101C4000206576656E742066726F6D20626C655FCC
:101C50006466752E0D0A00004150503A494E464FB9
:101C60003A496E6469636174696F6E20666F7220B1
:101C7000424C455F44465520697320646973616234
:101C80006C65642E0D0A00004150503A494E464F93
:101C90003A496E6469636174696F6E20666F722081
:101CA000424C455F44465520697320656E61626C05
:101CB00065642E0D0A0000004150503A494E464FCF
:101CC0003A4465766963652069732072657175654C
:101CD0007374656420746F20656E74657220626F22
:101CE0006F746C6F61646572206D6F6465210D0A9D
:101CF0000000000030B5154B0D4604000FCB85B039
:101D00008DE80F0020D0FDB14FF6FF70A08028684D
:101D1000206100202075A07301208DF812004FF67D
:101D20005960ADF81000A21C04A90120A0DF002812
:101D300008D12146684662DF002803D129462046A3
:101D400001F0F1FC05B030BD0E20FBE754CD0200E0
:101D5000002810D000290ED00A88502A31D00BDC80
:101D6000102A16D0112A06D1828889888A4202D187
:101D70004FF6FF7181807047512A0CD0532AFAD157
:101D8000C988C2889142F6D1007D0028F3D001F0C5
:101D900027B88988EEE78A8883889A42EBD111F8C0
:101DA000062F022AE7D14A88C3889A42E3D10A7AE9
:101DB000042AE0D0062ADED0052ADCD0891C06F0F1
:101DC0008DB906F037BC00007FB5044601208DF8C0
:101DD000060041F60A00ADF80400454A01A90120B9
:101DE000A0DF00287ED1228804F13C0552B1404892
:101DF0002B46801C009042F62920616801F03AFDD4
:101E0000002873D1228952B139482B460A300090FC
:101E100042F62420E16801F02DFD002866D1228AD7
:101E200052B133482B461230009042F625206169AA
:101E300001F020FD002859D1228B52B12C482B46AD
:101E40001A30009042F62720E16901F013FD0028C6
:101E50004CD1228C52B126482B462230009042F6BB
:101E60002620616A01F006FD00283FD1228D52B183
:101E70001F482B462A30009042F62820E16A01F0E4
:101E8000F9FC002832D1216B71B102A809F09DFE46
:101E900017482B4632300090082202A942F6232030
:101EA00001F0E8FC002821D1606B58B110492B46A5
:101EB0003A3100910279016842F62A2001F0DAFCF9
:101EC000002813D1A16B81B102A807F005FF0848D3
:101ED0002B4642300090072202A942F6502001F022
:101EE000C9FC00E002E0002800D1002004B070BD71
:101EF000AE21002010B504460088572803D101F018
:101F00004DFE01F041FE2046FFF760FD204607F040
:101F1000B9FC204601F052F8204605F093FF204618
:101F2000FFF7CCFA2046FFF7F7FC2146094800F0FE
:101F30003CF921460848FFF78EFC074821465430FB
:101F4000FFF706FF21460448BDE81040183004F0B2
:101F500067BF0000A42400201C260020F0B5054621
:101F600087B01646B5F87641DDE90C20A4F57F4729
:101F7000FF3F2FD0D41CA7B2ADF80070082F26D891
:101F80008DF814108DF815608DF8163005AE1AB165
:101F90000146F01CFDF786F90020019002900390A5
:101FA0000490B5F85E11ADF8041001218DF806100B
:101FB000ADF808006846CDE90306B5F8760101A939
:101FC000A6DF002804D1BDF80010A14200D00C20EB
:101FD00007B0F0BD0820FBE7F0B50546887A85B06C
:101FE0000C460A2805D8207C0A2802D8207E0A2818
:101FF00002D9072005B0F0BD2068286060686860DD
:10200000A07AA874207C85F87800207E85F8DE0010
:102010004FF6FF70A5F8760101208DF80E0041F60D
:102020001200ADF80C0005F1080203A90120A0DFA1
:102030000028DFD1002609E0A06B6A4630F81610B0
:102040002889A1DF0028D5D1761CF6B294F8360095
:10205000B042F1D8207A002708B9607A30B104F193
:102060003C01284607F052FE0028C3D121462846ED
:1020700003F070FE0028BDD12146284606F060FB23
:102080000028B7D1207E30B3E06920B300261FE0DE
:10209000E069049700EBC6039DF8100006EB86018B
:1020A00040F00A008DF8100005EB4100D979E030CE
:1020B00001F00102191D0091CDE9012033F8022B36
:1020C00004A9284608F060F8002893D1761CF6B2DF
:1020D000207EB042DCD82146284608F0EEF80028E1
:1020E00088D1207A90B105F5A770009004F14303E0
:1020F000082242F62221284600F0C6FD002898D189
:102100002146284600F028FE002892D1607A60B16E
:1021100005F5AF70009004F14003082242F6332128
:10212000284600F0B1FD00288DD12146284602F056
:10213000E3FF002887D104F13E01284602F097FF13
:1021400058E730B51446827C85B08A422BD901EB22
:102150008101B0F8762100EB41011431A2F57F45F1
:10216000FF3D1ED00022ADF8004001920292039282
:1021700004920988ADF8041001218DF80610ADF81D
:1021800008206946CDE90313B0F8760101A9A6DF5E
:10219000002804D1BDF80010A14200D00C2005B0E9
:1021A00030BD0820FBE70720F9E730B50446088872
:1021B00087B0102820D011283BD050283ED051287D
:1021C00018D10D4611F8060F012813D1498801AA2C
:1021D000204608F011F900280CD02168204600297B
:1021E00008D007218DF8081001990695039102681F
:1021F00002A9904707B030BD8888A4F876016089AD
:102200000028F7D0012000210091ADF800008DF8E2
:10221000080002A8ADF8021001906189B4F87601B7
:102220006A46A4DF0028E5D061680029E2D088472B
:10223000E0E74FF6FF70A4F87601DBE707B0204631
:10224000BDE8304006F078B970B504460D46084642
:10225000FDF74CF82080656070BD0078C0F3400049
:102260007047007800F0010070470A7802704978E2
:10227000417002207047000030B5234885B0234BE1
:10228000006A04905022224904A809F08FFB08B18B
:10229000FEF758FD00246846009409F0D3FA08B10F
:1022A000FEF750FD01250194029403948DF804502B
:1022B00001A92846009A69DF08B1FEF743FD0194A1
:1022C0008DF804508DF80540029403948DF8064073
:1022D00001A94020009A69DF08B1FEF733FD684686
:1022E00009F0C4FA08B1FEF72DFD0A4809F0B4FA66
:1022F00008B1FEF727FD084809F090FB002801D03F
:10230000FEF720FD05B030BDFCCB020099B90200FC
:10231000A4230020F51E0200B9BB020038B500243A
:102320008DF8004001236A4621466820FDF73EFAF9
:102330009DF800200DA1032005F0D2FB03208DF8AD
:102340000000112240216820FDF748FA8DF8004076
:1023500001236A4603216820FDF728FA9DF8002032
:102360000DA1032005F0BCFB38BD00004150503AE0
:10237000494E464F3A2D2D2D2D2D2D2D2D2D2D2D08
:10238000626D673136302072656164206964203087
:102390007825780D0A0000004150503A494E464FCA
:1023A0003A2D2D2D2D2D2D2D2D2D2D2D626D67319D
:1023B000363020726561642030783663205B307877
:1023C00025785D0D0A0000003EB5002501950295B7
:1023D00002F040F901A801F0DBFF0298000C2DD0BB
:1023E0001A4C01981AA12084019800146084029864
:1023F000A084DDE90132032005F079FBB4F9202047
:1024000002F16400C8280BD8B4F9223003F164004B
:10241000C82805D8B4F9240000F16401C82907D9F7
:1024200025846584A5841749032005F055FB3EBD2E
:10243000009015A1032005F062FB3EBDDDE90132ED
:102440001EA1032005F053FB3EBD0000D01F00205D
:102450004150503A494E464F3A6779726F206F6645
:10246000667365742072656164206F6B2021212082
:1024700020685B307825785D20206C5B307825788B
:102480005D0D0A00F8CD02004150503A494E464FCA
:102490003A6779726F206F66667365742061707039
:1024A0006C792020785B25645D2020795B25645D54
:1024B000207A5B25645D0D0A000000004150503A0F
:1024C000494E464F3A6779726F206F66667365743E
:1024D0002072656164206661696C2021212020687A
:1024E0005B307825785D20206C5B307825785D0D39
:1024F0000A0000002DE9F0438BB0002406940794F5
:1025000002F0A8F806A801F043FF07984FF4FA6913
:10251000000C09D009F046FB484604F0E2FC01201B
:1025200000F0B2FD002877D0DFF80082264635465D
:10253000A8F82040A8F82240A8F82440A8F826408F
:10254000A8F82840A8F82A40C8F83040C8F8344015
:1025500088F80F4076A1032005F0BEFA09F022FBAF
:1025600000231A461946184609F086FA40F6B8378D
:10257000384604F0B6FC09F0BEFA384604F0B1FC67
:1025800000231A461946184609F076FA00270394E4
:10259000049403A80594FDF74BFCBDF910000090CE
:1025A000BDF90E30BDF90C206BA1032005F0A7FA90
:1025B000BDF80C00BDF80E10304460F30F0601EBBF
:1025C000264060F31F46BDF81000BDF812102844E5
:1025D00060F30F0501EB254060F31F45142004F064
:1025E00080FC7F1CFFB2642FD1D32FB2351432B2DE
:1025F00016462B4661A10320009705F080FA64205F
:1026000096FBF0F10EB295FBF0F197FBF0F00BB2F8
:102610001D4607B2324600E026E063A10320009782
:1026200005F06DFA06F16400C82805D805F16400CC
:10263000C82801D8642F20DD88F80F40002114201D
:10264000FDF706F909F0AEFA00231A4619461846B6
:1026500009F012FA484604F044FC5EA1032005F09C
:102660003BFA08F057FE5BE067A1032005F034FA5F
:1026700008F050FE0BB0BDE8F0834FF0010988F878
:102680000F90C6EA05434FF48031C7EA01026BA1FF
:102690000320C8E90C2305F02AFA01F0DBFFADF8AE
:1026A0001040039442F22224651007E0684601F0CE
:1026B0000FFF6CA10320009A05F012FA03AB6A46E3
:1026C0002146284601F026FF0028EFD001F0FAFD50
:1026D0001648D8E90C215430C0E9001208900220B5
:1026E000ADF8240008A8ADF80C500490ADF80E40E9
:1026F000ADF8149003A9684601F053FF20B962A118
:102700000320009A05F0ECF900211420FDF7A0F851
:1027100009F039FA02231A461946184609F0ACF9AD
:1027200062A1032005F0D8F9A4E70000D01F002023
:102730004150503A494E464F3A73656E736F72205E
:1027400063616C6962726174652073746172742074
:10275000212121200D0A00004150503A494E464F98
:102760003A6779726F206F6666736574205B2564C3
:102770005D5B25645D5B25645D0D0A004150503A48
:10278000494E464F3A6779726F206F66667365747B
:10279000203130302073756D5B25645D5B25645D91
:1027A0005B25645D0D0A00004150503A494E464F8A
:1027B0003A6779726F206F666673657420313030C6
:1027C00020617667205B25645D5B25645D5B256425
:1027D0005D0D0A004150503A494E464F3A73656EBE
:1027E000736F722063616C696272617465206661E7
:1027F000696C202C696E746F20736C656570202184
:102800002121200D0A0000004150503A494E464F08
:102810003A6861766564206170706C79206F6666D5
:10282000736574206E6F74206170706C79207468A9
:1028300069732074696D650D0A0000004150503ABB
:10284000494E464F3A6779726F206F6666736574BA
:1028500020685B307825785D2D2D6C5B307825788D
:102860005D0D0A004150503A494E464F3A44656C5E
:1028700065746564207265636F72642049443A2010
:102880002564200D0A0000004150503A494E464F41
:102890003A57726974696E67205265636F7264207B
:1028A0004944203D202564200D0A00004150503A43
:1028B000494E464F3A73656E736F722063616C695F
:1028C000627261746520656E6420212121200D0AE9
:1028D000000000004FF47A71484304F0D9BB10B5F2
:1028E000FCF764FF002010BD10B51278FCF776FFEE
:1028F000002010BD7CB500210C4C8DF800108DF827
:1029000004100146606001238D6840786A4600210A
:10291000A847616805469DF800000870012201A9DA
:102920006C2000F09DF9284440B27CBD602200205C
:102930007CB5044600200090019011484068E0B149
:102940004578062386686A4612212846B0479DF8D6
:1029500000109DF8012041EA022121809DF802101B
:102960009DF8032041EA022161809DF804109DF842
:10297000052041EA0221A1807CBD6FF07E007CBD74
:10298000602200207CB50446002000900190114890
:102990004068E0B14578062386686A460C212846DF
:1029A000B0479DF800109DF8012041EA02212180E6
:1029B0009DF802109DF8032041EA022161809DF8F4
:1029C00004109DF8052041EA0221A1807CBD6FF032
:1029D0007E007CBD6022002010B5112000F0BEF802
:1029E000054C1E2021698847152000F0B7F82169A1
:1029F0001E20884710BD000008340020F8B50546A9
:102A0000124C00208DF800006068C8B1072D1AD85C
:102A10004678012387686A4640213046B847002837
:102A20000DD19DF80000012365F306108DF800001C
:102A300061686A4648784C684021A04740B2F8BDBA
:102A40006FF07E00F8BD6FF00100F8BD602200203D
:102A5000F8B504462B4E00208DF8000070680D4636
:102A60004FF0FF3720B1281F062804D8012007E0C7
:102A70006FF07E00F8BD681E022800D91DB9002045
:102A800000F042F80746611E621F6FF001000B2D37
:102A9000F0D2DFE805F01B1B1B1B06090C0F1215FB
:102AA0001800092914D9F8BD082911D9F8BD07293A
:102AB0000ED9F8BD06290BD9F8BD052908D9F8BDEE
:102AC000042905D9F8BD032902D9F8BD072AFCD885
:102AD000716801236A4648788D684021A8473844C8
:102AE00040B20028F1D19DF80000012364F30300F7
:102AF0008DF8000071686A4648784C684021A0470C
:102B000040B2F8BD60220020F8B50546124C002006
:102B10008DF800006068C8B1012D1AD846780123ED
:102B200087686A4640213046B84700280DD19DF895
:102B30000000012365F3C7108DF8000061686A4644
:102B400048784C684021A04740B2F8BD6FF07E0045
:102B5000F8BD6FF00100F8BD6022002031B50648D5
:102B6000416831B1487801234C686A467E21A0470C
:102B700038BD6FF07E0038BD60220020F8B50546F4
:102B8000124C00208DF800006068C8B1032D1AD8DF
:102B90004678012387686A4642213046B8470028B4
:102BA0000DD19DF80000012365F305108DF800009C
:102BB00061686A4648784C684221A04740B2F8BD37
:102BC0006FF07E00F8BD6FF00100F8BD60220020BC
:102BD000F8B50446184D00208DF80000686820B351
:102BE0000E2C25D224B3012C22D0022C20D0032C71
:102BF0001ED0042C1CD0052C1AD0467801238768DF
:102C00006A4642213046B84700280DD19DF80000A1
:102C1000012364F303008DF8000069686A46487870
:102C20004C684221A04740B2F8BD6FF07E00F8BD6D
:102C30006FF00100F8BD00006022002010B51020E8
:102C4000FFF78CFF054C1E20216988471420FFF7F1
:102C500085FF21691E20884710BD00000834002030
:102C6000F0B406460748406840B1457813464468CA
:102C70000A4631462846A446F0BC6047F0BC6FF0D7
:102C80007E007047602200202DE9F0438FB00024C1
:102C9000DDF85890804607949DF81C000F4620F000
:102CA0000F00401C20F0F00010308DF81C00187848
:102CB0008DF81D009DF81E001D4620F00600801CAA
:102CC0008DF81E0016461C216846FCF704FB9DF893
:102CD000000040F002008DF80000A978090702D03A
:102CE00040F0080001E020F0080040F010008DF8EE
:102CF000000007A8CDE904400120019403948DF859
:102D00003A000694ADF838700D9468788DF8340068
:102D1000A8788DF835009DF83600142120F00600C3
:102D2000801C20F019008DF8360008A8FCF7D3FAB3
:102D30000EA808900DA8ADF828400990ADF82A40DB
:102D4000ADF82C600C94B8F808004B4608AA694608
:102D5000A2DF0FB0BDE8F083F0B58FB00E46054698
:102D60001C216846FCF7B7FA00249DF80000039484
:102D700040F00E008DF80000012701948DF83670A8
:102D800042F63220049405940694ADF834000C9475
:102D900016F8460F8DF8300070788DF831009DF8E8
:102DA0003200142120F00600801C20F019008DF85C
:102DB000320007A8FCF78FFA0DA807900CA8ADF811
:102DC00024400890ADF82640ADF828700B9428896F
:102DD00005F5AB7307AA6946A2DF0FB0F0BD00008E
:102DE00070B54FF0FF3100203BDF002835D1B12115
:102DF0003ADF002831D111DF00282ED14FF010200A
:102E0000406913DF002828D101214FF0E0208A0516
:102E1000C0F88022D0F800315FF0000001FA00F223
:102E20001A420AD042B202F01F0501FA05F4520913
:102E3000920002F1E022C2F88041401C2028EDD32C
:102E4000BFF34F8F05480168054A01F4E061114363
:102E50000160BFF34F8F00BFFDE770BD0CED00E0D8
:102E60000400FA050149085C7047000058CC0200D4
:102E70000649095C4FF0A040D0F81005C84010F09A
:102E8000010000D0012080F00100704758CC020002
:102E900007490B5C4FF0A041D1F804250120984070
:102EA00020EA0203C1F808351040C1F80C0570474C
:102EB00054CC02000249085C012104F0A3BC0000CC
:102EC00054CC02000249085C002104F09BBC0000C5
:102ED00054CC02000649095C4FF0A040D0F804052C
:102EE000C84010F0010000D0012080F001007047C0
:102EF00054CC02007CB50024084E25460122305DEA
:102F0000009500231146019504F024FC641C042C58
:102F1000F4D3BDE87C4000F003B8000054CC0200BC
:102F200010B500242046FFF7C5FF641C042CF9D31C
:102F300010BD10B500242046FFF7C4FF641C042C0C
:102F4000F9D310BD10B50246064B4FF0FF300021FB
:102F50005C5C944201D1084610BD491C0429F7D39A
:102F600010BD000058CC020070B50C0012494FF0A3
:102F7000000508601DD0022000F086F890B1012005
:102F800000F082F80028284607D000F07DF808B14C
:102F9000022000E0052020700BE000F075F840B141
:102FA0000420F8E7022000F06FF80028F3D00D208D
:102FB000F1E7284670BD000018210020054902886D
:102FC0004868102A04D0112A01D1401E4860704779
:102FD000401CFBE71821002010B5022000F08EFBFA
:102FE00008B1062806D1022000F088FB08B10628A7
:102FF00000D1002010BD00002DE9F0470D468146AC
:10300000FFF7A0FF0446042836D2DFF874801B487F
:103010001C4EA8F10C0725B3012D0ED0022D2BD18B
:1030200004EB440030444578002D25D0B9680029D0
:1030300022D02846BDE8F047084704EB4401755C00
:103040000E44717849B10E4A4FF4C031093A806894
:10305000FDF746FF08B987F80390B17808F8041027
:10306000E2E78068FDF780FF04EB4401314418F883
:1030700004008D78A842D7D0BDE8F0875CCC020070
:10308000142100200C270020FFF7F2BE2DE9FC4799
:10309000A64DA0F1060CA5F16C040126E179A078FB
:1030A0000A46014095F90230A08B4FF000094FF617
:1030B000FF77BCF1190F21D2DFE80CF01120201AA4
:1030C00020200D2020205E22F32020202020BF5829
:1030D000F120CE41F000BDE8FC4708F0BDB8132157
:1030E00076DF09E0002809D0BDE8FC47FDF72ABEDD
:1030F000B84203D1FEF754FA0828F3D1BDE8FC87A3
:1031000039B108F040FD02231A461946184608F066
:10311000B3FCA08BB842F1D0FF218DF80010E1790B
:1031200019B183A10968019160E06B460122042175
:103130008048FFF706F8687840F020007BE0B8424E
:10314000DCD08DF80090002AD8D16B4601220421F2
:103150007848FEF7F6FF687820F020006870A878BD
:1031600020F0200098E00D23704AC4E0B842C5D09A
:1031700043F02001A97067E069B3A07D522812D006
:10318000412810D0512811D042280FD04F2810D0FC
:1031900044280ED0502813D0432811D0282812D00C
:1031A000452810D017E008F0FDFC0EE008F0FAFC0E
:1031B00001E008F0E8FC02231A461946184608E028
:1031C00008F0E1FC01E008F08CFC00231A461946E7
:1031D000184608F051FCA08BB8428FD0E17961B15C
:1031E00053A109680191A17D8DF805105249022370
:1031F00001AA00BF00F044FD80E728208DF8000000
:10320000A07910B145208DF80000607A30B14BA153
:10321000032004F061FC002101202BE06B46012219
:1032200003214448FEF78DFFE672A17DE1756878C1
:1032300041398E403043687095E7B842DCD0E17D7B
:1032400041398E403343AB7002B00D23BDE8F047E7
:10325000364A394900F014BDB842CDD0002ACBD14E
:103260008DF80090607A40B141A1032004F034FC55
:103270000021084603F016FC40E76B4601220321BB
:103280002C48FEF75EFFE672E17D687841398E409A
:10329000B0436870A878B043A87064E72EE033E0CC
:1032A000FFE73FA1032004F017FCE079A178084272
:1032B00007D008F068FC00231A461946184608F0A3
:1032C000DBFBA08BB84297D0607930B1607A08B14F
:1032D000002100E00121102003E0A07918B10021B5
:1032E0001120FCF7B5FA37A000680090E0790028BB
:1032F000C2D002236A461049A08B7BE7BDE8FC4799
:1033000031A1032004F0E8BB37A1032004F0E4FB63
:1033100008F048FC4FF4FA6003F0E3FD3BA1032002
:1033200004F0DAFBBDE8FC4707F0F4BF3C200020C6
:10333000FFFF0000A42400201C2600204150503A2A
:10334000494E464F3A6B65795F32207072657373F0
:10335000206C6F6E672D2D2D2D2D2D2D2D2D2D2DAE
:103360002D2D2D2D2D20646F776E0D0A000000008D
:103370004150503A494E464F3A6B65795F32207062
:1033800072657373206C6F6E672D2D2D2D2D2D2D75
:103390002D2D2D2D2D2D2D2D2D2075700D0A00007C
:1033A0004150503A494E464F3A506F776572206B04
:1033B000657920444F574E202D2D2D2D20444F57F9
:1033C0004E0D0A00FF1100004150503A494E464F41
:1033D0003A506F776572206B6579205550202D2DFE
:1033E0002D2D2055500D0A004150503A494E464F60
:1033F0003A506F776572206B6579204C4F4E4720AD
:103400002D2D2D2D204C4F4E470D0A004150503A86
:10341000494E464F3A706F77657220206B65792070
:1034200020707573682020746F20736C6565702040
:10343000212121200D0A000070B50023042810D29C
:103440000D4D00EB4004012A02D101290CD00022CD
:10345000094E00EB4000304461B1012906D0022939
:1034600006D00723184670BD1030C2B22A55F9E7BE
:103470004270F7E78270F5E70C270020044A014606
:1034800000201279D20702D0084600F05BB87047DE
:103490000821002070B5064625480024C0E90161D6
:1034A000B0072ED50025012211462846FFF7C4FF9C
:1034B00005F11C00C2B200212846FFF7BDFF05F14F
:1034C0001800C2B202212846FFF7B6FF6D1C044661
:1034D000042D02D2002CE6D013E094B940F2D7328A
:1034E00004211448FDF7C6FB04000AD1FDF7B0FB28
:1034F000040006D10F48104A0021001FFDF7B4FC5C
:103500000446F00701D0FFF7F5FC74B909480B4AEF
:1035100000210C38FDF7A8FC040006D10548084A34
:1035200001210838FDF7A0FC0446204670BD0000CC
:103530000821002068CC02001F370200B961020098
:10354000AF0B02002DE9F05F6A4C0546002660785B
:10355000B34618B184F801B002F016FE664F4FF47E
:103560007A694FF4C87A4FF00108182D62D2DFE86B
:1035700005F0AC0C0C31404D62676B746B74BE7D12
:103580007D7D7D7DACAFB2B5BEBE0020FFF7A2FC55
:1035900000284FF0000008D0FFF78CFC022D02D16C
:1035A0004FF4E16008E0484606E0FFF78BFC022D8F
:1035B00001D1C82000E05046410CC0034FF4FA721C
:1035C000801841F10001257052000023FBF734FE02
:1035D00001462AE00020FFF77DFC00284FF00000A4
:1035E00004D0FFF767FC4FF44870E5E7FFF76AFC8B
:1035F000DFE70020FFF76EFC00284FF0000002D04C
:10360000FFF758FCCFE7FFF75DFCD4E70020FFF79A
:1036100061FC00284FF0000002D0FFF74BFC01E0F6
:10362000FFF750FC257041F69A1100223868FDF72B
:1036300057FC064646E00020FFF72AFC257008E00C
:10364000002051E025703DE084F801800120FFF763
:103650001FFC002240F6CD41E8E784F801800120FC
:10366000FFF716FC00224FF48041DFE77868FDF792
:103670007BFC0646D5F1110000D02EB10220FFF7E9
:1036800019FC84F802B01DE0012816D980B2C821C7
:103690004843C117C90341EA5041C0034FF4FA72CD
:1036A000801841F1000152000023FBF7C5FD0146DF
:1036B00000227868FDF714FC06460220FFF702FCA2
:1036C00084F802803046BDE8F09F02F05DFDB9E766
:1036D00002F05AFDB4E702F057FD04E002F054FD99
:1036E0000020FFF7EFFB0120FFF7ECFBAAE7FFF755
:1036F00020FCA7E7082100205CCC020010B5FFF7F2
:10370000B1FB032104F04AF8002010BD002901DAC2
:103710000020704702681144016001207047007862
:103720000221FFF769BC30B58FB005461C2101A806
:10373000FBF7D1FD0024142109A80894FBF7CBFD69
:103740009DF82000009420F00F00401C20F0F000B5
:1037500010308DF820009DF82100029420F00F0019
:10376000401C20F0F00010308DF821009DF8220060
:10377000049420F00600801C8DF822009DF80400BF
:1037800009AA40F028008DF8040008A8CDE90540FA
:10379000079428788DF83A000320ADF838009DF89A
:1037A0000000ADF82C4020F00F00401C20F0F0008D
:1037B00010308DF800009DF80100ADF82E4020F08B
:1037C0000F00401C20F0F00010308DF801009DF833
:1037D00002000D9420F00600801C20F0080040F04C
:1037E00011008DF802000EA809901720CDF828D0FE
:1037F000ADF830006888AB1D01A9A2DF0FB030BD65
:1038000005494FF0FF32082841F8202002D3084430
:1038100080F8482070470000B02D0020F0B54FF030
:10382000FF3512B10023082601E008230C260C4CBA
:1038300005E000BF54F823707F1C04D05B1CB3422A
:10384000F8D32846F0BD26185DB286F8305044F80B
:103850002310002AF5D1E11881F84800F1E70000B3
:10386000B02D00200249084490F930007047000054
:10387000B02D00202DE9F0438FB01E46DDF85890A2
:1038800015460F00804602D10020FDF75BFA15B9FE
:103890000020FDF757FA1C216846FBF71CFD0024A9
:1038A0009DF80000039440F002008DF80000012014
:1038B00001948DF83600049405940694ADF8348094
:1038C0000C9430788DF8300070788DF831009DF8C8
:1038D0003200142120F00600801C20F019008DF821
:1038E000320007A8FBF7F7FC0DA807900CA808907A
:1038F0000748ADF82450ADF82640ADF828500B9796
:103900004B4607AA69460088A2DF0FB0BDE8F083E6
:10391000AE21002038B10549814204D804498142D2
:1039200001D901207047002070470000A422002028
:10393000B4220020044A0168914201D0083101E01C
:103940000149383901607047BC30002070B5044629
:103950004FF6FF750A462846AC4208D14FF48074F2
:103960002146104605F040FFA04209D070BDFF2C53
:10397000FCD82146104605F02AFF08B1204670BD4C
:10398000284670BD70B5084C050009D01034216878
:10399000002907D008682060496828468847F6E76C
:1039A0000834F4E770BD00009C2D00202DE9F05F85
:1039B00026484168F1B3DFF898B00E688146DBF81D
:1039C000004087688078E11B21F07F45ED1CB0B98D
:1039D000DFF880804FF48030C8F84403C8F804034F
:1039E0001120FBF78FFF1120FBF7A2FF4FF0010A18
:1039F000C8F800A02F2003F005FB89F802A0B5420B
:103A000000D23546124BE8193C3320F07F40186055
:103A1000DBF800105A46091B21F07F41001B20F003
:103A20007F40C91C81420FD9106818602F2003F015
:103A3000E9FA00E004E0BDE8F05F1120FBF78EBF7B
:103A4000BDE8F05F06F01ABDBDE8F09F1C22002023
:103A500004150140001001402DE9F0411788064689
:103A6000B81D14460D46984202D90C20BDE8F081DD
:103A70003188072206290AD34FF4486C4FF6FF73AA
:103A8000614501D9994202D17088062801D21046B9
:103A9000ECE7604501D99842F9D1994203D09842A8
:103AA00001D08142F3D80520E85520881221401C1E
:103AB00080B2208029542088401C80B22080411987
:103AC000308808F03CFE2188084480B220804119EB
:103AD000708808F034FE2188084420800020C5E763
:103AE000FDF730B9F8B5134802F0AEFA114D0026D3
:103AF000114C0C3D30B16169B9B101208DF8000065
:103B0000684611E0287820B1616971B18DF80060D4
:103B1000F6E7687858B1A168084800220068FDF708
:103B2000DFF910B1A16901B188472E70F8BD616855
:103B3000F2E700004C2100200C28002088CC020075
:103B400010B504A1032003F0C7FFBDE8104007F043
:103B5000E1BB00004150503A494E464F3A6E6F204B
:103B60006F7065726174696F6E20746F206C6F6E18
:103B70006720676F746F20736C656570206E6F7758
:103B8000202E2E2E2E0D0A00034800224FF4700125
:103B90004069FDF7A5B90000FCCB0200014840696F
:103BA000FDF7E2B9FCCB020030B58FB0002405462A
:103BB0000C949DF830000D9420F00F00401C20F074
:103BC000F00010308DF830009DF83100142120F005
:103BD0000F00401C20F0F00010308DF831009DF8EF
:103BE000320020F00600801C8DF832009DF8340071
:103BF00020F00F00401C20F0F00010308DF8340051
:103C00009DF8350020F00F00401C20F0F00010302F
:103C10008DF835009DF8360020F00600801C8DF8E8
:103C2000360007A8FBF757FB01208DF83A0041F258
:103C30002450ADF838000EA807900DA808900D206C
:103C4000ADF82400ADF828000B480B90ADF82640E5
:103C50001C216846FBF73FFB9DF80000074B40F036
:103C60001A008DF800000CA80590A88807AA6946DC
:103C7000A2DF0FB030BD00009423002034200020CC
:103C8000FFB51F4D06460024A88B85B0A0F57F41E7
:103C90001746FF392ED000200190029001208DF8A8
:103CA000060005F1640001A90088ADF8040008A829
:103CB000CDE903073046A6DF044613281AD197F949
:103CC0000020032A16D1286C2346411C2964009049
:103CD0000CA1032003F013FF322003F002F901A925
:103CE0003046A6DF04461328024606D015A103205D
:103CF00003F0F6FE09B02046F0BD2249F7E70000C8
:103D0000D01F00204150503A494E464F3A2D2D2D9C
:103D10002D2D202D2D2D2D2D2D2D2D2D2D2D2D2DE0
:103D20002D2D2D2D2D2D2D2D2D206572726F725F55
:103D3000636F6465205B307825785D2025642025DD
:103D4000640D0A004150503A494E464F3A2D2D2DF0
:103D50002D2D202D2D2D2D2D2D2D2D2D2D2D2D2DA0
:103D60002D2D2D2D2D2D2D2D2D206572726F725F15
:103D7000636F646520726573656E64202564206FCF
:103D80006B0D0A001CCF020070B58C1D0A8A27A19A
:103D9000032003F0A5FE2E4920880988884224D1FB
:103DA000002506E060192BA1027B032003F098FE9A
:103DB0006D1C6089A842F5DC207B332816D03228A0
:103DC00017D0542817D04D2818D0432819D052287E
:103DD0001DD047281FD0422821D01D4964394928C9
:103DE00021D0692801D10020087370BD0021112065
:103DF00009E0002103E00021122004E0012110204D
:103E000001E000211320BDE87040FBF721BDBDE8B3
:103E1000704007F0C7BEBDE8704007F0B4BEBDE813
:103E2000704007F05EBE0120DEE700004150503ACE
:103E3000494E464F3A705F6576745F777269746574
:103E40002D3E6C656E205B25645D0D0A0000000050
:103E5000342000204150503A494E464F3A705F6539
:103E600076745F77726974652D3E64617461205B5E
:103E700025635D0D0A0000007FB50C4610B10120DE
:103E800004B070BD2079002638B141F61D550128D7
:103E90001BD0022826D00F20F2E702960396E06896
:103EA0000190694601A806F0A1F850B102988188F6
:103EB000E18000882081BDF80010029806F00AF920
:103EC00000E00A2002212171DAE70A4B6A4600214C
:103ED000A01D06F047F838B1064908398E60CE605B
:103EE0000A28CDD12846CBE702488188019806F000
:103EF000F1F8F5E7382200202DE9F04100260125F0
:103F0000144C22E06068226900EBC607387805FA95
:103F100000F1114217D08A43226103F053FA02469E
:103F20003878E36805FA00F1194002FA00F3994283
:103F300009D17978012901D0012100E00021514007
:103F40007A6802B19047761CF6B220788642D9D3BF
:103F5000BDE8F081F821002000B593B002208DF873
:103F6000400041F61510ADF842004EF6EE60ADF897
:103F700044000120ADF8460040216846FBF7ABF94C
:103F80000FA16846FEF760F910A80E909DF83C005E
:103F900020F00F00401C20F0F00020308DF83C0095
:103FA0009DF83D0020F0FF008DF83D006846FDF7CC
:103FB0000BFF002801D0FCF7C5FE13B000BD0000C8
:103FC00077616E6763713332375F76312E302E3111
:103FD000000000000E4910B50A784C780023A24278
:103FE00012D0521CD2B20A70022A00D10B70084AB9
:103FF0000B780C3252F8232002608868104420F0BD
:104000007F408860012010BD0360002010BD0000CB
:104010001C2200203EB5094D38CD8DE83800ADF8A2
:10402000041007498DF80620ADF802000022097837
:10403000FDF7A4FD684600F08FF83EBD14CD0200E8
:104040009421002010B503780022072B06D2DFE868
:1040500003F00504060C1C252B000A7010BD01227C
:104060000A7002898A81828814E002220A70028919
:104070008A818288CA81C2688A60007C062802D050
:104080000020087410BD0120FBE703220A70C288DB
:104090008A810289CA81C068886010BD04230B70C0
:1040A000C0888881CA8110BD0520087010BD00003D
:1040B00070B5064D0646002455F8241009B1304667
:1040C0008847641C082CF7D370BD0000EC2F00203B
:1040D0000EB5002911D011290FD0002200920292B2
:1040E000ADF8020001910D2908D0862908D00920D9
:1040F0008DF80000684600F03DF80EBD0B20F7E794
:104100000A20F5E701490968084700005C21002002
:1041100070B5054D06460024304655F824108847F2
:10412000641C022CF8D370BDA4CC02002DE9F04130
:1041300007460024064E074D05E000BF56F8241040
:1041400038468847641CE8788442F7DBBDE8F08194
:10415000502D00208421002070B5054D0646002416
:10416000304655F824108847641C022CF8D370BDE3
:10417000DCCC0200014909680847000020CD02009C
:104180007FB50446406858B100200390207800268F
:10419000384D06285DD2DFE800F05C050526416950
:1041A0000120F2E7A08900F063FA18B9E08905F070
:1041B000ABFF80B3A089A0F54040ADF80200A07B22
:1041C0008DF8040020780128606806D048B10420EA
:1041D0008DF80000606803901AE00028F8D00320F2
:1041E000F6E70120F4E7A08900F042FA18B9E08967
:1041F00005F08AFF78B1A089A0F54040ADF8020033
:10420000A07B8DF80400606830B105208DF80000B7
:10421000A06802901AE01CE00220F7E7A08900F0F5
:1042200027FAB0B1E089A0B9A089FF21A0F54040EC
:1042300080B2ADF802008DF80410616881B10720EA
:104240008DF800006E70AE7004F032FF684604F026
:1042500007FE6878002802D06E7004F029FF7FBD49
:1042600006218DF8001004F0B1FFEBE708208DF86F
:104270000000EBE77021002000B5114987B00978F4
:10428000890702D4022007B000BDA0F57F41FF39A5
:1042900011D005218DF8001001218DF80410ADF822
:1042A000060000221146684604F00AFA28B105F01B
:1042B0003BFE0020E7E70420E5E70820E3E70000F5
:1042C0003022002000B50E4887B00078800702D465
:1042D000022007B000BD06208DF800000022114624
:1042E000684604F0EDF940B10648017809B10121B2
:1042F000017305F019FE0020EBE70820E9E7000054
:1043000030220020EC30002010B58CB0142168461B
:10431000FAF7E1FF1D480078810703D56846FFF7EB
:10432000C7FE30E0C0072ED1012000F0C5F900F033
:1043300035FA01248DF8144004F08EFA0C281BD2B3
:10434000DFE800F0061006101A1809181A121612E3
:104350000B200CB010BD022000F0AEF9012000F0DF
:1043600091F9DBE7002000E003208DF8180003E05E
:104370000220FAE78DF818400022114605A804F043
:104380009FF905F0D1FD0020E3E700003022002076
:104390002DE9F04188B00546002005900690286080
:1043A000686020A1032003F097FB42F2222741F22C
:1043B00011182AE003A9684600F0CCF800282DD196
:1043C00020A10320009A03F08BFB26A1032003F019
:1043D00083FB0024049E07E056F8242026A1032036
:1043E00003F07EFB641CE4B203984088A042F3D83B
:1043F000306828607068686023A1032003F06CFBBC
:10440000684600F047F8002808D105AB6A463946EF
:10441000404600F07FF80028CCD0002008B0BDE86E
:10442000F08100004150503A494E464F3A53746172
:10443000727420736561726368696E672E2E2E2018
:104440000D0A00004150503A494E464F3A466F75AA
:104450006E64205265636F7264204944203D2025BC
:10446000640D0A004150503A494E464F3A44617437
:1044700061203D20000000004150503A494E464F17
:104480003A307825387820004150503A494E464F0E
:104490003A0D0A0038B5040011D0694605F0A6FDB2
:1044A00088B10A48BDF8001000EB0110818941B1C4
:1044B000A27A32B1491E81810020A07238BD052048
:1044C00038BD062038BD0A2038BD0000CC300020A1
:1044D00000B50F4987B00978890702D4022007B0D8
:1044E00000BD80B104218DF8001000218DF804106A
:1044F000006803900A46684604F0E2F828B105F027
:1045000013FD0020EBE70520E9E70820E7E70000BE
:10451000302200201FB501A9684605F023FD04B034
:1045200010BD07B513460A466946002005F01AFD7E
:104530000EBD07B513460A460021684605F012FD78
:104540000EBD20B119B10068086000207047052039
:104550007047000038B50D46040015D0A5B1694676
:1045600005F044FD90B10A49BDF80020606801EBF8
:1045700002129189491C9181286060680C30686042
:104580000120A072002038BD052038BD0A2038BDAA
:10459000CC30002018B10323002208F0F1B9052027
:1045A00070470223002208F0EBB912B1022308F091
:1045B000E7B9052070470000064A5178082906D05F
:1045C000054B43F82100491C5170002070470C2016
:1045D0007047000030220020EC2F002038B5044640
:1045E0000A480D460078800701D4022038BD54B136
:1045F0006946284608F0D8FA0028F7D1BDF800101F
:104600002180658038BD052038BD000030220020A3
:1046100010B504460D480078800701D4022010BD73
:1046200084B1218802290FD8094800EB0110428982
:104630006088121A032A07D408F0ACFA0020208000
:10464000608010BD052010BD042010BD3022002068
:10465000CC30002010B50548FFF7AEFF002803D18D
:10466000BDE81040FFF750BE10BD0000616C0200B5
:1046700043F6FE71A0F54040884201D80120704702
:104680000020704702490A7882430A707047000090
:104690003022002010B504460078182802D1FDF71A
:1046A00033FA207010BD10B504460078182802D1E6
:1046B000FDF72AFA207010BD02490A7802430A70F9
:1046C000704700003022002070B5134600220646D5
:1046D0001546862905D0112901D019B170BD0125D3
:1046E00000E001220D4C73B16179FDF747FA2A46CB
:1046F00021793046FDF742FA002261783046FDF715
:104700003DFA002203E06178FDF738FA2A46217865
:104710003046BDE87040FDF731BA00009821002016
:10472000F8B506461A481F46154600780C46C007DD
:1047300008D03046FFF7EEF830B13CB1200507D085
:104740000620F8BD0120F8BD0220F8BD0320F8BD09
:104750003068A04204D8716804EB0530884201D962
:104760000520F8BD7DB1684605F02CFB68B10098C6
:104770000221C0E900670172210B8181058205F0E9
:10478000E3FB0020F8BD0420F8BD0720F8BD0000C1
:1047900048220020084605F031BB00002DE9F04713
:1047A0002748284C4FF01021001B02094969104688
:1047B0004B1C03D14FF0805149690903DFF888A0F1
:1047C0009AF80070FB0702D00020BDE8F0870023B4
:1047D000A14607E009EB0314256815B1646804B12C
:1047E000401E5B1C9342F5D3002422E0002504F018
:1047F000FF0C2B4613E000BF09EB0316D6F8008030
:10480000B8F1000F04D0D6F80480B8F1000F05D13C
:10481000767BAE4202D9354603F0FF0C5B1C934217
:10482000EAD309EB0C13641C59601D7BA1EB053125
:1048300019608442DAD347F001018AF80010C3E717
:10484000B4220020A42200204822002020B10349E5
:10485000496E01600020704703207047FC30002043
:104860002DE9F84307461D48DDF820801E460078F4
:1048700015460C46C0070CD03846FFF74BF850B130
:104880005DB154B145EA0400800708D00620BDE8B8
:10489000F8830120FBE70220F9E70320F7E73868F7
:1048A000A04204D8786804EB8601884201D2052032
:1048B000EDE77EB1684605F085FA68B10098012100
:1048C000C0E900780172C0E90354868205F03CFB20
:1048D0000020DCE70420DAE70720D8E748220020A0
:1048E00070B5174A17490446106E0B7800EB40006C
:1048F00002EBC0009D0715D5022C02D0032C1BD162
:1049000002E003F0BBFD17E04A78521CD2B24A70B5
:10491000032A11D900224A70082106F0E5F905F0B2
:104920003BFA09E0580707D523F004000870526EDF
:1049300012B140F002000870BDE8704005F0BCBA4A
:10494000FC300020482200200EB517A19DF8080079
:1049500020F00F00401C20F0F00010308DF808000F
:10496000092202A87CDF08B1FCF7ECF940F2C23062
:1049700078DF08B1FCF7E6F90020009001900620EE
:10498000ADF800000C20ADF802001420ADF80400D2
:104990004FF49670ADF8060068467ADF002801D023
:1049A000FCF7D0F90EBD0000414952204D4F555340
:1049B0004500000070B508B1012070BD184C0025FD
:1049C000207B08B1257301E000F0A2F820780828C8
:1049D00024D2DFE800F02304080C1023141EBDE8E5
:1049E000704000F01FB8BDE8704000F07FB8BDE82F
:1049F000704000F061B8BDE8704000F037B8084979
:104A00006088203901EB00104068BDE8704003F079
:104A100003BF6560BDE8704003F00CBF0F2070BDA0
:104A2000EC3000201049F0B48A1C00200346A1F1AC
:104A300020050C18A67A3EB1A37205EB0014A689D6
:104A400016B9A47B012C0AD0401C80B20228F0D3F6
:104A50000B704B804B60F0BC41F61D5070471080CE
:104A6000F0BC00F043B80000EC30002010B50F4C53
:104A7000A4F12001608801EB0010818961B105205B
:104A800020700B480221002381800168BDE810409E
:104A900001220848FFF744BE41680023012205486F
:104AA000FFF73EFE0421217010BD0000EC30002015
:104AB00040220020A422002038B50A4908480324D7
:104AC0000B684268898803EB8101538804700020D9
