:020000040001F9
:10F000004053002015F201001DF201001FF2010023
:10F0100021F2010023F2010025F2010000000000AE
:10F0200000000000000000000000000027F20100C6
:10F0300029F20100000000002BF201002DF2010076
:10F04000D9F801002FF20100A9FE010065FB0100C3
:10F0500075FB01002FF20100E5F501002FF2010020
:10F060002FF201002FF201002FF201002FF2010018
:10F070002FF201002FF201002FF201002FF2010008
:10F080002FF2010031F901002FF201002FF20100EF
:10F0900085FB01002FF2010089FB01002FF2010026
:10F0A0002FF201002FF201002FF201002FF20100D8
:10F0B0002FF201002FF2010000000000000000000C
:10F0C0002FF201002FF201002FF201002FF20100B8
:10F0D0002FF201002FF201002FF2010000000000CA
:10F0E0000000000000000000000000000000000020
:10F0F0000000000000000000000000000000000010
:10F1000000000000000000000000000000000000FF
:10F1100000000000000000000000000000000000EF
:10F1200000000000000000000000000000000000DF
:10F1300000000000000000000000000000000000CF
:10F1400000000000000000000000000000000000BF
:10F1500000000000000000000000000000000000AF
:10F16000000000000000000000000000000000009F
:10F17000000000000000000000000000000000008F
:10F18000000000000000000000000000000000007F
:10F19000000000000000000000000000000000006F
:10F1A000000000000000000000000000000000005F
:10F1B000000000000000000000000000000000004F
:10F1C000000000000000000000000000000000003F
:10F1D000000000000000000000000000000000002F
:10F1E000000000000000000000000000000000001F
:10F1F000000000000000000000000000000000000F
:10F20000DFF80CD000F0B0F900480047DD580200EC
:10F21000405300200648804706480047FEE7FEE7C7
:10F22000FEE7FEE7FEE7FEE7FEE7FEE7FEE7FEE7B6
:10F23000ADFB010001F201002DE9F05F0546002061
:10F2400092469B4688460646814640241BE0284657
:10F2500041464746224600F019F953465A46C01A1D
:10F26000914110D311461846224600F000F92D1A9C
:10F2700067EB01084F4622460120002100F0F7F815
:10F2800017EB00094E41201EA4F10104DFDC4846C3
:10F2900031462A464346BDE8F09F000000487047CB
:10F2A000ACB6020040EA01039B0703D009E008C99D
:10F2B000121F08C0042AFAD203E011F8013B00F83B
:10F2C000013B521EF9D27047D2B201E000F8012B87
:10F2D000491EFBD270470022F6E710B513460A46D6
:10F2E00004461946FFF7F0FF204610BD421C10F8F7
:10F2F000011B0029FBD1801A704730B5044600205D
:10F30000034600E05B1C934203D2E05CCD5C401BF3
:10F31000F8D030BD034611F8012B00F8012B002A6C
:10F32000F9D1184670472DE9FE4F81EA030404F035
:10F33000004421F0004100944FF0000B23F0004303
:10F3400050EA01045ED052EA03045BD0C3F30A54CE
:10F35000C1F30A552C44A4F2F3340194A0FB0254E7
:10F36000C1F3130141F48011C3F3130343F4801379
:10F3700001FB024400FB034E840A970A44EA8154CD
:10F3800047EA8357A4FB076802958D0A05FB0785AA
:10F390004FEA932C04FB0C542705029D4FEA0658B4
:10F3A00047EA1637B5EB08056EEB070C870E920E91
:10F3B00047EA811742EA8312A7FB0201B6EB0B0171
:10F3C00064EB00042B0D43EA0C335E1844EB1C5035
:10F3D000DA465146E7FB0201C5F313044FEA0B334B
:10F3E00043EA14534FEA0432019C43EA0603A4F1B2
:10F3F0000C040294009CCDE900B400F066F803B060
:10F40000BDE8F08F00200146F9E770B5C1F30A525C
:10F4100001F000450024C1F3130140F2FF3341F431
:10F4200080119A4201DA002070BD40F233439A42C3
:10F43000A2F2334203DC524200F028F800E0904090
:10F440002C43F1D0404270BD00F0004230F000404B
:10F450000AD0C10D01F56071C0F3160042EA0151F6
:10F46000C208400711437047002001467047202A18
:10F4700004DB203A00FA02F1002070479140C2F10B
:10F48000200320FA03F3194390407047202A04DB3D
:10F49000203A21FA02F00021704721FA02F3D0400D
:10F4A000C2F12002914008431946704710B5141E5E
:10F4B00073F1000408DA401C41F1000192185B412D
:10F4C0001A4301D120F0010010BD2DE9F04D924604
:10F4D0009B4611B1B1FA81F202E0B0FA80F220321B
:10F4E0009046FFF7C4FF04460F4640EA0A0041EA8F
:10F4F0000B0153465A46084313D0114653EA010004
:10F5000019D0C8F140025046FFF7C0FF05460E462D
:10F51000504659464246FFF7AAFF084305D001204E
:10F5200004E020463946BDE8F08D0020054346EA58
:10F53000E0762C4337430A986305E40AA0EB080001
:10F540000022FD0A44EA47540A3002D50020014651
:10F55000E9E7010510196941DDE90845001969412C
:10F56000BDE8F04DA2E70000064C074D06E0E0685C
:10F5700040F0010394E8070098471034AC42F6D3FA
:10F58000FFF742FE5CBC02007CBC020070B58C1828
:10F5900010F8015B15F0070301D110F8013B2A11A7
:10F5A00006D110F8012B03E010F8016B01F8016B94
:10F5B0005B1EF9D12B0705D40023521E0DD401F890
:10F5C000013BFAE710F8013BCB1A921C03E013F859
:10F5D000015B01F8015B521EF9D5A142D8D300208E
:10F5E00070BD00002DE9F04700268CB0DFF8609177
:10F5F000B0464FF48075012437460696284607F03A
:10F6000077F838B1D9F80403204203D0284607F030
:10F6100065F826432D1D64007F1CADB2082FEDD385
:10F620004FF4BE74204607F063F848B1204607F057
:10F6300055F846F0004606AA0121002007F03AF8E6
:10F64000444D16F0FF0F15D00127002437420DD08E
:10F6500009EB8401D1F81005D1F81015C0F304208E
:10F6600055F82420C1F3014102B190477F00641C8A
:10F67000082CEBD3002E67DA4FF0FF30CDE908807D
:10F6800000263446281910F8507F90F9000027F022
:10F69000C008401C44D009A9404606F013FC58B3EA
:10F6A0004FEA9719404603F055FB55F820701FB1FB
:10F6B000B9F1030F03D00FE0B9F1030F30D108A85F
:10F6C0004FEAD80208F00703815C4FF0010C0CFAF6
:10F6D00003FC41EA0C0181544FF0A04101EB88008A
:10F6E000D0F8000706A9C0F3014A404606F0EAFB3D
:10F6F00018B1BAF1020F03D012E0BAF1030F0FD123
:10F70000B9F1030F08D1BAF1020F1BD00221404614
:10F7100006F0A1FF761CF6B217B149464046B8473D
:10F72000641C042CAED3002E0ED06A4601210020AA
:10F7300006F0C0FF06990098884205D00690089808
:10F7400009909DE70321E2E70CB0BDE8F0870000D7
:10F7500000600040F82C00207FB5044682B00020F5
:10F760001D4616460090012303AA2146054806F0CF
:10F770000BFF2B4632462146024806F0F3FE06B048
:10F7800040B270BDF4B402001CB502238DF8041021
:10F79000002100918DF80520014601AA024806F0DB
:10F7A000F3FE40B21CBD0000F4B40200F8B50446FC
:10F7B0001E46002013460A460090069D2146064834
:10F7C00006F0E2FE01B02B4632462146BDE8F0408D
:10F7D000014806F0C7BE0000ECB402001CB50223CD
:10F7E0008DF80410002100918DF80520014601AA32
:10F7F000014806F0C9FE1CBDECB4020070B501253D
:10F80000104C002342B16371A371E5710AF0BBFD96
:10F81000BDE870400AF05CBD30B16571A371E37161
:10F82000BDE870400AF019BE637129B1A571E3719A
:10F83000BDE870400AF09DBDA371E371BDE8704062
:10F840000AF08DBDD01F002000F01F020121914061
:10F850004009800000F1E020C0F88012704700F0FD
:10F860001F02012191404009800000F1E020C0F812
:10F870008011704700F01F02012191404009800073
:10F8800000F1E020C0F80011704700F01F020121D4
:10F8900091404009800000F1E020C0F8001170475D
:10F8A00000F01F02012191404009800000F1E0209A
:10F8B000C0F8001270474907090E002806DA00F068
:10F8C0000F0000F1E02080F8141D704700F1E020E7
:10F8D00080F80014704700002DE9F0414FF4807764
:10F8E000384606F05FFB0124104EA50748B13846A4
:10F8F00006F05FFB0120C5F808037470002003F0D8
:10F90000B9FA4FF48277384606F04CFB00280BD04A
:10F91000384606F04EFB0220C5F80803B470BDE877
:10F92000F041012003F0A6BABDE8F081E42C0020EC
:10F9300007480021C0F84011C0F84411C0F8481130
:10F94000C0F84C11C0F80011C0F804110AF086BECE
:10F950000010014003480078002801D100F0B2BA3D
:10F9600070470000A832002070B50E46144900EB25
:10F97000400001EBC0051446E86A183520B10128A3
:10F980000FD0022805D113E0284600F0CFFAA0429C
:10F9900001D2002411E022463146284600F0FEFA4A
:10F9A0000BE0284600F0C2FAA042F4D20446F2E787
:10F9B0003146284600F0C5FA0446204670BD0000D6
:10F9C000A832002005F07EBC024A0021024801F066
:10F9D00053B80000B9960200E0B4020010B5044626
:10F9E0000E4802F009FB0D48B0F9021000EE101AA3
:10F9F000B8EEC00A84ED000AB0F9001000EE101A4B
:10FA0000B8EEC00A84ED010AB0F9040000EE100A55
:10FA1000B8EEC00A84ED020A10BD00003C220020AE
:10FA200010B504462B4802F0E7FA2A48801D02F080
:10FA3000B9FA2848B0F90210C91C00EE101AF8EE05
:10FA4000C00A9FED250A80EE801A84ED001AB0F9F5
:10FA50000010C91C00EE901AF8EEE00A80EE801A41
:10FA600084ED011AB0F90400083000EE900A19483C
:10FA7000F8EEE00A801D80EE801A84ED021AB0F9DB
:10FA8000021000EE101AF8EEC00A9FED140A20EEE4
:10FA9000801ADFED130A21EE201A84ED031AB0F963
:10FAA000001001EE101AB8EEC11A21EE001A21EE74
:10FAB000201A84ED041AB0F9040001EE100A0020A7
:10FAC000B8EEC11A21EE000A20EE200A84ED050AE4
:10FAD00010BD00003C22002000806A4479E91C41EE
:10FAE0000000803810B504461D4802F085FA1C4815
:10FAF000801D02F057FA1A48B0F9021000EE101AF1
:10FB0000B8EEC00A84ED000AB0F9001000EE101A39
:10FB1000B8EEC00A84ED010AB0F9040000EE100A44
:10FB20000F48B8EEC00A801D84ED020AB0F9021039
:10FB300000EE101AB8EEC00A84ED030AB0F9001006
:10FB400000EE101AB8EEC00A84ED040AB0F9040001
:10FB500000EE100AB8EEC00A84ED050A10BD0000E0
:10FB60003C2200200149024805F0E7BA702D002030
:10FB70000030004002494FF0402005F083BA0000F9
:10FB8000982D00200AF0B8BC074810B5406830B185
:10FB90008047002807D0BDE8104000F0DBBEBDE87C
:10FBA000104005F033BA10BD18220020F0B5AE4861
:10FBB0000023021D01780125101D4FF080540629F5
:10FBC0000BD11678360708D10678C6F30316032E34
:10FBD00006D0042E04D0052E02D0062907D00EE050
:10FBE000B4F82463A14FC6F304263E6002E0167801
:10FBF000360704D10678C6F30316032E02D0062971
:10FC000004D00FE09B4F9A4E7E670EE016783607C1
:10FC100008D10678C6F30316032E06D0042E04D0AE
:10FC2000052E02D0062907D00EE0D4F84462924F88
:10FC3000C6F342363E6002E01678360704D10678F5
:10FC4000C6F30316032E02D0062906D011E08B4E10
:10FC5000376827F0807737600EE01678360708D1CE
:10FC60000678C6F30316032E06D0042E04D0052E04
:10FC700002D006290AD011E04FF08046C6F80C31B8
:10FC8000C6F810317C4E361F336002E01678360716
:10FC900004D10678C6F30316032E02D0062905D038
:10FCA0000CE0754F032664373E600AE0167836078D
:10FCB00004D10678C6F30316032E02D006290DD010
:10FCC00014E06F4F05263E606D4E783635606C4E01
:10FCD000083633603F263F1D3E6002E01678360747
:10FCE00004D10678C6F30316052E02D0062957D094
:10FCF00062E0644E3668644F3E60624E361D366880
:10FD00003F1D3E605F4E083636683F1D3E605D4ECB
:10FD10000C3636683F1D3E605A4E103636683F1D21
:10FD20003E60584E143636683F1D3E60554E1836BC
:10FD30003668554F20373E60524E1C3636683F1DA0
:10FD40003E60504E203636683F1D3E604D4E243694
:10FD500036683F1D3E604B4E283636683F1D3E607C
:10FD6000484E2C3636683F1D3E60464E303636686B
:10FD7000454F40373E60434E343636683F1D3E6047
:10FD8000404E383636683F1D3E603E4E3C36366843
:10FD90003F1D3E603B4E403636683F1D3E6002E0F0
:10FDA0001678360708D10678C6F30316032E06D058
:10FDB000042E04D0052E02D0062907D019E0D4F86D
:10FDC0005812324A01F04F01116002E01178090720
:10FDD0000FD10078C0F30310032803D0042801D00A
:10FDE000052806D12A480168C90702D06FF0010131
:10FDF000016022487438016841F470010160BFF36A
:10FE00004F8FBFF36F8F4FF01021D1F80002002801
:10FE100003DBD1F80402002822DA1E4A15601E48CE
:10FE20000468002CFCD01524C1F800420568002DA0
:10FE3000FCD0C1F8044201680029FCD013600168BD
:10FE40000029FCD0BFF34F8F0C48F0380168134AEB
:10FE500001F4E06111430160BFF34F8F00BFFDE784
:10FE600010490F480860F0BDE00F00F04035014038
:10FE70000DF0ADBA00C007403C050040FCED00E0CD
:10FE8000105600400404001020C50040E40E00405D
:10FE90000004004004E5014000E401400400FA05CC
:10FEA0000090D003482200200448017F0448002924
:10FEB000024901D00BF035B80AF0A4BF502D002044
:10FEC0000020004010B5124C02202061606111A09A
:10FED000A061A4F50470E0614FF40070206200207E
:10FEE000A06260620BA1A164E062A4F11001E16470
:10FEF00010212165A0656065E06509A1E01DFFF79F
:10FF000009FA08A12046FFF705FA2020A07110BDCC
:10FF1000A83200205465726D696E616C00000000AB
:10FF20005254540053454747455200000269C16886
:10FF30008A4203D88068401A104400E0501A401EDC
:10FF400070472DE9F047C4681746894606464FF0CA
:10FF500000083069A04201D9051B02E0B168201AEF
:10FF60000D1AB0686D1E001BA84200D80546BD42A0
:10FF700000D33D4670682A4620444946FFF792F96F
:10FF8000B0687F1B2C44A844A944A04200D100249F
:10FF9000F460002FDDD14046BDE8F0872DE9F04147
:10FFA000C6680446174688468068851B6068BD425F
:10FFB00006D93044FFF776F9F019E060BDE8F0812A
:10FFC0002A463044FFF76EF97E1B08EB05013246E6
:10FFD0006068FFF767F9E660F0E700000FB41CB552
:10FFE0000246002007AC00290BD0491ECDE90021B4
:10FFF000054B6A462146069800F02AF8009A00212F
:020000040002F8
:1000000011701CBC5DF814FBB304020002E008C8C8
:10001000121F08C1002AFAD170477047002001E082
:1000200001C1121F002AFBD17047000001212028C6
:1000300003DA81400548014003E0402802DA203815
:10004000814009B10120704700207047FC06FFBDC8
:100050002DE9FF4F8DB00F460546002606E0252806
:100060000BD0DDE90F1290476D1C761C2878002814
:10007000F5D111B03046BDE8F08F0024A246A1466C
:100080000122EC4900E0044315F8013F203B02FA4D
:1000900003F00842F7D128782A2810D06FF02F02F9
:1000A0002878A0F13001092914D80AEB8A0102EB63
:1000B000410144F0020400EB010A6D1CF0E701CF9E
:1000C0005FEA000A03D544F40054CAF1000A44F080
:1000D00002046D1C28782E2817D115F8010F44F062
:1000E00004042A280ED06FF02F022878A0F13001E6
:1000F00009290AD809EB890102EB410100EB01094A
:100100006D1CF2E757F8049B6D1C28786C280FD003
:1001100006DC4C2817D068280DD06A2814D104E0DA
:10012000742810D07A280FD10DE044F400140AE0AE
:1001300044F4801401E044F440146978814202D10F
:1001400004F580146D1C6D1C2A786E2A1FD00CDCFF
:10015000632A31D004DC002A8BD0582A11D1A3E0C5
:10016000642A68D0692A0CD165E0732A2ED004DC99
:100170006F2A73D0702A04D19BE0752A6FD0782A39
:100180006ED01046DDE90F129047761C50E1C4F3A3
:100190000250022806D0032809D0042801CF09D034
:1001A000066045E101CFF117C0E9006140E101CFF0
:1001B00006803DE106703BE117F8040B8DF8000066
:1001C00000208DF80100EB46012003E057F804BB46
:1001D0004FF0FF3061074FF0000102D40DE008F14D
:1001E0000101884649450FDA8045F8DB1BF8081005
:1001F0000029F4D108E008F1010188468142FADBC8
:100200001BF808100029F6D1DDE90F23AAEB08003E
:100210008146214600F036F9304400EB080604E040
:10022000DDE90F121BF8010B9047B8F10108F7D276
:1002300021464846F7E00A21C4F302534FF0000B71
:100240000891022B04D001CFC117032B09D00AE07B
:10025000FF1D27F00707F7E8020108E032E01FE082
:1002600020E000B2C117042B01D140B2C117031E18
:1002700071F1000307DA4FF0000CD0EB0C006CEBCF
:1002800001012D2302E0230504D52B238DF8243012
:10029000012303E0E30701D02023F7E7984658E065
:1002A0000A2110E010210EE010204FF0000B089002
:1002B0000CE010214FF0000B44F004044FF008094B
:1002C000089103E008214FF0000B0891C4F302539A
:1002D000022B04D001CF0021032B06D006E0FF1D26
:1002E00027F00707F7E8020103E080B2042B00D1F2
:1002F000C0B24FF0000823072BD5702A07D0DDF8D5
:1003000020C08CF0100C5CEA0B0C05D00EE04023F2
:100310008DF82430012308E050EA010306D0302391
:100320008DF824308DF8252002239846DDF820C072
:100330008CF0080C5CEA0B0C0BD150EA010301D1E4
:10034000630706D530238DF824304FF00108A9F15A
:100350000109582A04D038A20B9208AA0A920BE08D
:100360003AA2F9E75B46089AFEF766FF0B9B9B5C97
:100370000A9A521E0A92137050EA0102F2D10A98A8
:10038000ADEB000000F1200B600702D524F48034AF
:1003900001E04FF00109D94502DDA9EB0B0000E0B7
:1003A000002000EB0B0141440890AAEB010AE00396
:1003B00006D4DDE90F232146504600F063F80644D9
:1003C0004FF0000908E009A911F80900DDE90F1252
:1003D000904709F10109761CC145F4DBE0030CD517
:1003E000DDE90F232146504600F04CF8064404E0B6
:1003F000DDE90F1230209047761C0899481E0890BE
:100400000029F5DC08E00A980A990078491C0A914D
:10041000DDE90F129047761CBBF10001ABF1010B37
:10042000F1DC21465046DDE90F2300F019F80644BF
:100430006D1C1BE609280100303132333435363764
:100440003839616263646566000000003031323320
:1004500034353637383941424344454600000000C0
:100460002DE9F041044600251E461746880404D4B1
:1004700005E039462020B0476D1C641EF9D528469A
:10048000BDE8F0812DE9F041044600251E46904666
:10049000C80301D5302700E02027880404D505E0F3
:1004A00041463846B0476D1C641EF9D52846BDE864
:1004B000F0814A68002A06D00A68531C0B6010704D
:1004C0004868401E4860704710B560B159B1027865
:1004D0000B785208B2EB530F05D10622401C491C81
:1004E000FEF70BFF08B1002010BD012010BD2DE963
:1004F000FC47002517880646158090F82D00144605
:10050000894630B13A462146484601F017F90500C0
:1005100009D1B0784FF00C0A18B32088C846001DE6
:10052000B84202D95046BDE8FC87684679DF00280A
:10053000F9D12088032108F8001020881921401CD7
:1005400080B2208008F800102088401C80B22080F3
:1005500000EB0801BDF800000AF05BFD21880844AB
:100560002080F0780222C8B1218896F9033001F189
:10057000030C4846BC45D5D8425421884FF0010CA5
:10058000491C89B2218000F801C02188491C89B228
:10059000218009F801302088401C20807068B8B1A3
:1005A000218890F9003001F1030C4846BC45B9D8C8
:1005B000425421880A22491C89B221804254218850
:1005C000491C89B2218009F801302088401C208014
:1005D000308950B1CDE900474B460622022106F191
:1005E00008000AF06FFD05009DD1308A50B1CDE9B9
:1005F00000474B460722032106F110000AF062FD76
:10060000050090D1308B50B1CDE900474B46152203
:10061000142106F118000AF055FD050083D1306A57
:1006200030B13B462246494602F08EFC0500DBD144
:10063000706A30B13B462246494605F0A0FA0500F3
:10064000D2D196F82C0038B13B4622464946304676
:1006500009F0BAF90500C7D1307838B13B462246D7
:100660004946304605F09CFB0500BDD128465AE7B7
:10067000134A0021535C0BB1012203E0491C0629F7
:10068000F8D300220F49012806D0022809D00328F8
:100690000CD0042812D10DE0487810B10AB1012025
:1006A0007047887810B10AB102207047C87808B145
:1006B00003207047087908B1042070470020704774
:1006C000052100208026002010B598B03C2101A80B
:1006D000FEF701FE02218DF80410012405208DF89B
:1006E00006408DF8070016480690ADF8144020210A
:1006F00010A8FEF7F0FD00208DF840008DF8414075
:100700008DF8420012901390282014908DF84340E9
:100710001E2015908DF844404FF448601690B42088
:10072000179008480090084B10AA002101A800F07B
:1007300003FC002801D000F00DF918B010BD000036
:10074000E81F0020350F02003D6A02002DE9F04746
:1007500030B125A1032006F00BF908F041F83AE08A
:100760004FF6FF76324610212548FEF7ADFD254CA9
:10077000082005466062DFF8888004F12407B1464E
:10078000304607F01DFF0026BA463E604F460AE09D
:10079000DAF800104FEA410C491CCAF8001028F89A
:1007A0000C0007F00DFFB84201D06D1EF0D21448C6
:1007B000616A08F02FF908B100F0CCF81048616ABE
:1007C00007F038FD062802D008B100F0C3F8A67380
:1007D000032000F0D1FC002803D0BDE8F04700F072
:1007E000B9B8BDE8F08700004150503A494E464F35
:1007F0003A457261736520626F6E6473210D0A0061
:1008000048250020D01F002070B58CB015460E463C
:1008100000236C46C3F10F01415CE1545B1C102BBB
:10082000F8D30D2104F11000FEF755FD0020C0F1B2
:100830000F02315C2244401C11740328F7D3684630
:1008400043DF0020C0F10F01214491F8201029540A
:10085000401C0328F6D30CB070BD022001F02EBE60
:1008600070B50024064D06E06868012110F83400D8
:1008700005F024FD641C28788442F5D3002070BD67
:10088000C4210020F8B515460C460646052A01D2BB
:100890000720F8BD05F0F8FD18B905F0C7FD0028E0
:1008A000F7D1104900204E600C70C1E902500E4D86
:1008B00008610DE006EBC4006968009181788DF84D
:1008C00001100078094A694605F04AFD0028E0D188
:1008D000641EE4B2EED2BDE8F840054A00210248A9
:1008E00000F0CAB8C4210020FCB502006D4002002F
:1008F000993202000AA1012006F03AF80CA1032067
:1009000006F036F8BFF34F8F10480168104A01F423
:10091000E06111430160BFF34F8F00BFFDE70000AE
:100920003A4552524F523A466174616C0D0A0000CA
:100930003A494E464F3A486974207765616B2068A2
:10094000616E646C65720D0A000000000CED00E041
:100950000400FA050EB500210091CDE901106A46A8
:1009600044F20100FFF7C6FF0EBD00002DE9F84F6D
:10097000254C8146924660880E46814241D8002728
:100980004FF6FF788DF80070684600F005F9227880
:100990006078A188884201DA401C00E00020C0B2E3
:1009A000904204D19DF8000000F01AF927E0657824
:1009B0006078884201DA401C00E0002060709DF8F9
:1009C000000000F00DF9454519D0A068B9F1000FFD
:1009D00040F835A00DD066B16188E068324605FB6D
:1009E00001004946FEF75EFCA06800EBC50086806A
:1009F00002E000EBC50087800020BDE8F88F0420EE
:100A0000FBE70920F9E70000D821002010B50E4CC3
:100A100003E0401C00E000202070207861788142D3
:100A200010D022786188E068A36802FB010003EB24
:100A3000C20153F83220898890472078A1888842E3
:100A4000E9DAE6E710BD0000D821002030B5CB0080
:100A500008339DB293074FF0000401D0072030BD4A
:100A6000044B9A602A44DA605C701C70588099804C
:100A7000002030BDD8210020074B9B7823B12AB13C
:100A800020B10068037C1BB1082070470720704725
:100A90004174426100207047E02D002070B508F0DD
:100AA00095FB104800240B21047044700E4D81709A
:100AB00014206C602C706C70FEF7C6FE07211420A9
:100AC000FEF7F9FE1420FEF7D5FE08480460072162
:100AD0001120FEF7F0FE0548001F0068A860002006
:100AE00070BD0000E02D0020E82100200815014025
:100AF0002DE9FC47DFF8789099F8023073B368B3BA
:100B0000052902D20720BDE8FC87436933B3437C43
:100B1000012B25D0002704460025884616468DF86F
:100B20000050684600F038F801A80AF0B3FAC8B1DE
:100B3000012101700F4944600968C0E90218C0E949
:100B400004769DF8040089F801009DF8000000F08B
:100B500047F81420FEF7A4FE2846D4E70820D2E781
:100B60000F46D8E704259DF8000000F039F8F3E7B8
:100B7000E02D0020041501400649897839B130B1D3
:100B8000416921B100210174022109F043BD08200F
:100B900070470000E02D002030B5EFF3108172B6F1
:100BA0000D4A9468012324B10370002900D162B674
:100BB00030BD93604FF0E023D3F88051074C2540BF
:100BC0001560C3F88041D3F8844154605A17C3F8C4
:100BD000842100220270E8E7EC2E0020FC06FFBD15
:100BE0000B498A68002A11D000280FD1EFF310803A
:100BF00072B60B684FF0E022C2F800314B68C2F8C1
:100C0000043100228A60002800D162B670470000DB
:100C1000EC2E00202DE9F043044687B0008800F058
:100C200023FD8146208803F0F1FE214F8046667A3D
:100C3000208800223978A56800F068FDB9F1000F1E
:100C400033D06079400711D50721404606F01AFFDE
:100C5000A0B108218DF80C1021880590ADF80E1078
:100C6000ADF8108003A802F047FC07E02088B978AF
:100C700000F036FD10B1404603F0B4FE03208DF8BD
:100C800000002088ADF802006079C0F380008DF884
:100C90000400A079C0F380008DF805008DF806509F
:100CA0008DF80760684602F027FC07B0BDE8F083C6
:100CB0006021002000B585B014216846FEF70BFBCB
:100CC00000200090029064208DF80C009DF80D002B
:100CD000012120F00F00401C20F0F00020308DF8A2
:100CE0000D009DF80E008DF8041020F00F00401C40
:100CF00020F0F00020308DF80E009DF80F006946BE
:100D000020F0FF008DF80F009DF8100020F00F007C
:100D1000401C20F0F00020308DF81000074800F053
:100D200040FB08B1FFF716FE6946044802F080F95F
:100D3000002801D0FFF70EFE05B000BD04250020FD
:100D40002DE9F0430546007D93B00E460024A0B186
:100D500007949DF81C0020F00F00401C20F0F000CC
:100D600010308DF81C00707B8DF81D009DF81E0062
:100D700020F00600801C8DF81E001C216846FEF73E
:100D8000AAFA9DF8000040F002008DF80000297DCD
:100D900011B140F0100001E020F010008DF80000CB
:100DA000019403940494287D00B107A8CDE90504BB
:100DB00001278DF8427042F61920ADF840000D94DD
:100DC000B07B8DF83400F07B8DF835009DF836004F
:100DD000142120F00600801C20F019008DF8360048
:100DE000307B8DF8440008A8FEF775FA0DF1400835
:100DF0000DF13409ADF8287011A8CDE90889ADF8D6
:100E00002A40ADF82C700C90A888AB1D08AA694642
:100E1000A2DF002838D1B06898B38DF8427042F64E
:100E20000810ADF840000D94307C8DF834009DF82A
:100E3000350020F0FF008DF835009DF8360020F0D9
:100E40000600801C20F019008DF836000EA8B1684D
:100E500000F0CBFF0646142108A8FEF73CFAADF8D7
:100E600028600EA8CDE90889ADF82A40ADF82C60BD
:100E70000C90E88805F10E0208A9A3DF002803D131
:100E800001E0FFE7EC81002013B0BDE8F083000033
:100E900010B50C490C4808F0DAFCC1B209483438E6
:100EA00000F042FA00280BD0082809D0132807D0F8
:100EB00043F20141884203D0BDE81040FFF74ABD2C
:100EC00010BD00003825002004200020F0B50C469D
:100ED00093B01F210726ADF80010ADF804100027CD
:100EE00050B1C17849070DD56A4602A9FFF7FFFA4C
:100EF000002808D102AD02E00025ADF800706CB109
:100F0000E07810B1304613B0F0BD01AA0AA920461E
:100F1000FFF7EDFA0028F6D10AAA02E00022ADF8A8
:100F20000470BDF80400C3B2BDF80000C1B2284689
:100F300072DFE8E7FFF70EBD2DE9F0471F46DDF849
:100F4000208013468946040043D0EBB3404D012076
:100F5000002668702E71202219463E48FEF7A2F93D
:100F60006E71C5E904784FF6FF706881AE6139484B
:100F7000AE83AE773C212030FEF7ADF935482178BD
:100F800020300170A1788170E178C1706178417082
:100F90003049D4E90423C1E90C23D4E90223C1E98F
:100FA0000A23D4E90623C1E90E23616AE1B100F105
:100FB0003C0100F1480241628A60636A1B880B8031
:100FC000616A436A898800E003E099800021436AEE
:100FD00007E00E20BDE8F087656AAD686D5C55548A
:100FE000491C9D888D42F7D8A16AD9B1194A94321B
:100FF000A2F10C018A608162A36A9B888B80A16A3E
:10100000836A098819800021836A04E0A56AAD68B3
:101010006D5C5554491C9D888D42F7D894F82C106E
:1010200080F82C10216A49B109490C310162226A09
:1010300052884A80216A026A09881180616801B178
:1010400041604946BDE8F04702482030FFF73EBF07
:10105000EC2000208026002010B50188184C1029B3
:1010600016D011291AD01B2911D1007A00280ED1CF
:1010700014A1032005F080FC20790521401CB0FB61
:10108000F1F201FB120000F077F8020011D110BD5F
:10109000C17B0129FBD18088608110BD0021E171F5
:1010A000808861898842F8D1012000F065F8002825
:1010B000F3D061690029F0D0BDE810400847000076
:1010C000EC2000203A494E464F3A202D2D2D2D2060
:1010D0002074696D656F757420726574203D2025DC
:1010E000640D0A0010B5022801D0032810D1094C64
:1010F000A07800280CD00020A070207900F03CF8E7
:10110000002805D06169002902D0BDE810400847D9
:1011100010BD0000EC20002007498A794AB1002266
:101120008A7102688A6182888A8380798877002040
:101130007047082070470000EC20002010B574DFD5
:101140000B4C01200B49E071002060720620C87032
:1011500000210848FFF7BAFE002807D1207900F0E7
:101160000BF810B1616901B18847002010BD000083
:10117000EC200020A02600202DE9F0414C4C8046B8
:1011800086B0607848B184F8048004A802F07CFC42
:101190000498012628B1A67085E0082006B0BDE8B5
:1011A000F0810025A561434FA583A577787810B11C
:1011B0002079012806D0B87898B12079012801D08B
:1011C00002280ED1216919B1A6710820884700E0D4
:1011D000A5712078401CC0B220701E2801D108F0F3
:1011E0007FFC424634A1032005F0C6FB4046FFF7D2
:1011F0003FFA2071024630A1032005F0BDFB2169B2
:1012000041B12079032801D0042803D1387808B1EE
:10121000E079B8B1257200950295019503958DF896
:1012200000508DF80850424623A1032005F0A4FB8E
:101230001F4821791830052925D2DFE801F036084A
:10124000111D21006572267207208847E3E7E670CA
:1012500001908DF80060ADF80C50ADF80A5014E024
:101260000221E17001908DF80060B889ADF80C00A2
:101270003889ADF80A0008E0684608F0EBFB02E0A8
:10128000684608F00BFC207920B16179684673DF6D
:10129000002883D1E27812A1032005F06DFB2169BB
:1012A00009B1E0788847002078E7E570F2E70000B0
:1012B000EC200020802600203A494E464F3A6164D7
:1012C000766572746973207374617274206D6F64D3
:1012D000652073746172743D3D2025640D0A000021
:1012E0003A494E464F3A6164766572746973207369
:1012F00074617274206D6F646520656E643D3D207D
:1013000025640D0A000000000648027A3AB1002266
:101310000272194300D00121417200207047082059
:1013200070470000EC20002073B586B0040034D074
:10133000217C9DF81C20002091422CD00025012604
:101340000095ADF8006007A8ADF802500190E18863
:10135000608A6A46A4DF00281DD19DF81C00207415
:10136000608AA0F57F41FF3919D0207DB8B1029580
:10137000039504950595E088ADF80800BDF80200D6
:10138000ADF80C0001988DF80A60CDF810D00590EA
:10139000608A02A9A6DF08B070BD0E20FBE7082016
:1013A000F9E738B50D4604001BD0D5B12868206098
:1013B0004FF6FF70608228792075FF20207401208D
:1013C0008DF8020041F60F00ADF80000221D6946BD
:1013D0000120A0DF002803D129462046FFF7B0FCFA
:1013E00038BD0E2038BD38B504000D4619D0002D8B
:1013F00017D0288810280FD011280FD0502810D1CE
:101400000846217DE9B130F8062F61898A4218D15A
:101410004189022906D014E0888801E04FF6FF7068
:10142000608238BD216861B10C3000F0DAFC08B18F
:10143000002000E001208DF8000022682046694667
:10144000904729462046BDE8384001F07BBE0000A9
:1014500070B5054601461C220F48FDF723FF0F4CCF
:1014600000262670286830B1016861604068A0607D
:10147000201D7ADF02E00948001D7BDF00280AD129
:101480004FF6FF7060806670BDE87040044A00212E
:101490000448FFF7F1BA70BD542700200C2100204A
:1014A0001DB0020050B5020070B51E4C0688002326
:1014B0001B49E289102E15D01B4D112E1CD0122E67
:1014C00029D0502E17D130F8061F914213D14189EF
:1014D000022910D10C3000F084FC88B1BDE87040C6
:1014E00001F078BD84884C800469CC604069086153
:1014F0004B70002AF2D070BD4FF6FF7048804B70E1
:101500002868FFF739FB0028F5D0A1690029F2D03F
:10151000BDE8704008478268CA60C0680861DDE7BE
:101520000C2100205427002050B5020002494A6CCB
:10153000091D07F015BF0000702700200246024871
:10154000016D001D07F0F9BE702700200246024819
:10155000416D001D07F0F1BE702700202DE9F04716
:10156000044603883F480122A4B000F1480A102B2A
:1015700009D0112B54D01A2B70D1217AB2EB111F44
:1015800053D2012352E0D0E911218A430546011DBF
:1015900012A807F0E5FE442212A901A8FDF782FE79
:1015A000DFF8C0900026374609F144090DF1040820
:1015B0000AE000BF08EB46001D2283884946281D2B
:1015C000009707F07FFE761C0198B042F2D8686C55
:1015D000A688C04307F098FEA0F57F41FF3917D0D9
:1015E00005EB40000123868032465146281D07F056
:1015F000DCFE012332464946281D07F0D6FEE07B7B
:1016000002280BD000231749A2884C31281D20E066
:1016100024B00420BDE8F047FFF79CB90123F2E7AE
:101620000023A2885146001D13E000230D49054602
:10163000A2885031001D07F0B8FE207A0221B1EBDC
:10164000101F01D2012300E000230649A288543173
:10165000281D24B0BDE8F04707F0A7BE24B0BDE8C0
:10166000F08700007027002070B50A4E0546002460
:101670002A46301D716C07F060FE40B12A46301DCD
:10168000F16C07F05AFE08B1022400E00124204664
:1016900070BD00007027002010B50024204609F01E
:1016A000EDFC28B1641CE4B2182CF7D3182010BD4F
:1016B00003480122A240016811430160204610BD89
:1016C0007027002010B5044609F0D8FC002803D08C
:1016D000024800EB8400806D10BD000070270020E0
:1016E00070B505460C46084609F0C8FC002809D02C
:1016F00005482A4600EB8401001D896DBDE8704055
:1017000007F01BBE70BD00007027002070B50646B4
:1017100015460C46084609F0B1FC00280AD00648D8
:101720002B4600EB84013246BDE87040001D583165
:1017300007F03BBE70BD0000702700207CB5054659
:1017400008880C460930904201D90C207CBD6846BF
:101750006DDF0028FAD121880820685420881B21D9
:10176000401C80B2208029542088401C80B22080F8
:101770002844DDF801100160BDF805108180208843
:10178000801D80B220809DF80010490800D0012102
:1017900029542088401C208000207CBD0878002827
:1017A00009D0012805D0022801D005A104E00EA12E
:1017B00002E019A100E024A1032005F0D9B800003F
:1017C0004150503A494E464F3A556E6B6E6F776EA8
:1017D000206576656E742066726F6D20626C655F41
:1017E0006466752E0D0A00004150503A494E464F2E
:1017F0003A496E6469636174696F6E20666F722026
:10180000424C455F444655206973206469736162A8
:101810006C65642E0D0A00004150503A494E464F07
:101820003A496E6469636174696F6E20666F7220F5
:10183000424C455F44465520697320656E61626C79
:1018400065642E0D0A0000004150503A494E464F43
:101850003A446576696365206973207265717565C0
:101860007374656420746F20656E74657220626F96
:101870006F746C6F61646572206D6F6465210D0A11
:101880000000000030B5154B0D4604000FCB85B0AD
:101890008DE80F0020D0FDB14FF6FF70A0802868C2
:1018A000206100202075A07301208DF812004FF6F2
:1018B0005960ADF81000A21C04A90120A0DF002887
:1018C00008D12146684662DF002803D12946204618
:1018D00001F0A1F905B030BD0E20FBE718B60200FB
:1018E000002810D000290ED00A88502A31D00BDCF5
:1018F000102A16D0112A06D1828889888A4202D1FC
:101900004FF6FF7181807047512A0CD0532AFAD1CB
:10191000C988C2889142F6D1007D0028F3D000F03A
:1019200075BD8988EEE78A8883889A42EBD111F8E1
:10193000062F022AE7D14A88C3889A42E3D10A7A5D
:10194000042AE0D0062ADED0052ADCD0891C05F066
:101950006DBA05F017BD00007FB5044601208DF873
:10196000060041F60A00ADF80400454A01A901202D
:10197000A0DF00287ED1228804F13C0552B1404806
:101980002B46801C009042F62920616801F0EAF99C
:10199000002873D1228952B139482B460A30009071
:1019A00042F62420E16801F0DDF9002866D1228AA0
:1019B00052B133482B461230009042F6252061691F
:1019C00001F0D0F9002859D1228B52B12C482B4676
:1019D0001A30009042F62720E16901F0C3F900288F
:1019E0004CD1228C52B126482B462230009042F630
:1019F0002620616A01F0B6F900283FD1228D52B14C
:101A00001F482B462A30009042F62820E16A01F058
:101A1000A9F9002832D1216B71B102A808F03FFD6D
:101A200017482B4632300090082202A942F62320A4
:101A300001F098F9002821D1606B58B110492B466C
:101A40003A3100910279016842F62A2001F08AF9C0
:101A5000002813D1A16B81B102A806F0E5FF084868
:101A60002B4642300090072202A942F6502001F096
:101A700079F900E002E0002800D1002004B070BD38
:101A80007A21002010B50446FFF768FD204606F0D5
:101A9000A1FD204600F0A4FD204605F0A1F8204657
:101AA000FFF7DAFA2046FFF7FFFC2146094800F06D
:101AB0003CF921460848FFF796FC07482146543078
:101AC000FFF70EFF21460448BDE81040183004F02F
:101AD00017BA00008C23002004250020F0B505462D
:101AE00087B01646B5F87641DDE90C20A4F57F47AE
:101AF000FF3F2FD0D41CA7B2ADF80070082F26D816
:101B00008DF814108DF815608DF8163005AE1AB1E9
:101B10000146F01CFDF7C6FB0020019002900390E7
:101B20000490B5F85E11ADF8041001218DF806108F
:101B3000ADF808006846CDE90306B5F8760101A9BD
:101B4000A6DF002804D1BDF80010A14200D00C206F
:101B500007B0F0BD0820FBE7F0B50546887A85B0F0
:101B60000C460A2805D8207C0A2802D8207E0A289C
:101B700002D9072005B0F0BD206828606068686061
:101B8000A07AA874207C85F87800207E85F8DE0095
:101B90004FF6FF70A5F8760101208DF80E0041F692
:101BA0001200ADF80C0005F1080203A90120A0DF26
:101BB0000028DFD1002609E0A06B6A4630F8161035
:101BC0002889A1DF0028D5D1761CF6B294F836001A
:101BD000B042F1D8207A002708B9607A30B104F118
:101BE0003C01284606F03AFF0028C3D1214628468A
:101BF00003F0D0F90028BDD12146284605F048FC65
:101C00000028B7D1207E30B3E06920B300261FE062
:101C1000E069049700EBC6039DF8100006EB86010F
:101C200040F00A008DF8100005EB4100D979E03052
:101C300001F00102191D0091CDE9012033F8022BBA
:101C400004A9284607F048F9002893D1761CF6B27B
:101C5000207EB042DCD82146284607F0D6F900287D
:101C600088D1207A90B105F5A770009004F1430364
:101C7000082242F62221284600F01CFB002898D1B9
:101C80002146284600F07EFB002892D1607A60B1A0
:101C900005F5AF70009004F14003082242F63321AD
:101CA000284600F007FB00288DD12146284602F087
:101CB00043FB002887D104F13E01284602F0F7FAE1
:101CC00058E730B51446827C85B08A422BD901EBA7
:101CD0008101B0F8762100EB41011431A2F57F4576
:101CE000FF3D1ED00022ADF8004001920292039207
:101CF00004920988ADF8041001218DF80610ADF8A2
:101D000008206946CDE90313B0F8760101A9A6DFE2
:101D1000002804D1BDF80010A14200D00C2005B06D
:101D200030BD0820FBE70720F9E730B504460888F6
:101D300087B0102820D011283BD050283ED0512801
:101D400018D10D4611F8060F012813D1498801AAB0
:101D5000204607F0F9F900280CD021682046002918
:101D600008D007218DF808100199069503910268A3
:101D700002A9904707B030BD8888A4F87601608931
:101D80000028F7D0012000210091ADF800008DF867
:101D9000080002A8ADF8021001906189B4F876013C
:101DA0006A46A4DF0028E5D061680029E2D08847B0
:101DB000E0E74FF6FF70A4F87601DBE707B02046B6
:101DC000BDE8304005F060BA70B504460D460846DF
:101DD000FDF78CFA2080656070BD0078C0F340008C
:101DE0007047007800F0010070470A780270497867
:101DF000417002207047000030B5234885B0234B66
:101E0000406904905022224904A808F00DFA08B154
:101E1000FEF7A0FD00246846009408F051F908B1CF
:101E2000FEF798FD01250194029403948DF8045067
:101E300001A92846009A69DF08B1FEF78BFD0194DD
:101E40008DF804508DF80540029403948DF80640F7
:101E500001A94020009A69DF08B1FEF77BFD6846C2
:101E600008F042F908B1FEF775FD0A4808F032F9AA
:101E700008B1FEF76FFD084808F00EFA002801D0FF
:101E8000FEF768FD05B030BDD0B4020015A2020017
:101E90008C220020851A02008DA4020038B500248F
:101EA0008DF8004001236A4621466820FDF754FC66
:101EB0009DF800200DA1032004F05EFD03208DF8A5
:101EC0000000112240216820FDF75EFC8DF80040E3
:101ED00001236A4603216820FDF73EFC9DF800209F
:101EE0000DA1032004F048FD38BD00004150503AD8
:101EF000494E464F3A2D2D2D2D2D2D2D2D2D2D2D8D
:101F0000626D67313630207265616420696420300B
:101F10007825780D0A0000004150503A494E464F4E
:101F20003A2D2D2D2D2D2D2D2D2D2D2D626D673121
:101F3000363020726561642030783663205B3078FB
:101F400025785D0D0A0000004FF47A71484304F0D3
:101F50000FB910B5FDF700FC002010BD10B51278C8
:101F6000FDF712FC002010BD7CB500210C4C8DF853
:101F700000108DF804100146606001238D684078E0
:101F80006A460021A847616805469DF80000087070
:101F9000012201A96C2000F079F9284440B27CBDEF
:101FA0002C2200207CB504460020009001901148AE
:101FB0004068E0B14578062386686A4612212846C3
:101FC000B0479DF800109DF8012041EA02212180D0
:101FD0009DF802109DF8032041EA022161809DF8DE
:101FE00004109DF8052041EA0221A1807CBD6FF01C
:101FF0007E007CBD2C2200207CB504460020009091
:10200000019011484068E0B14578062386686A4629
:102010000C212846B0479DF800109DF8012041EAA8
:10202000022121809DF802109DF8032041EA02213F
:1020300061809DF804109DF8052041EA0221A180ED
:102040007CBD6FF07E007CBD2C220020F8B50546DB
:10205000124C00208DF800006068C8B1072D1AD816
:102060004678012387686A4640213046B8470028F1
:102070000DD19DF80000012365F306108DF80000D6
:1020800061686A4648784C684021A04740B2F8BD74
:102090006FF07E00F8BD6FF00100F8BD2C2200202B
:1020A000F8B504462B4E00208DF8000070680D46F0
:1020B0004FF0FF3720B1281F062804D8012007E081
:1020C0006FF07E00F8BD681E022800D91DB90020FF
:1020D00000F042F80746611E621F6FF001000B2DF1
:1020E000F0D2DFE805F01B1B1B1B06090C0F1215B5
:1020F0001800092914D9F8BD082911D9F8BD0729F4
:102100000ED9F8BD06290BD9F8BD052908D9F8BDA7
:10211000042905D9F8BD032902D9F8BD072AFCD83E
:10212000716801236A4648788D684021A847384481
:1021300040B20028F1D19DF80000012364F30300B0
:102140008DF8000071686A4648784C684021A047C5
:1021500040B2F8BD2C220020F8B50546124C0020F4
:102160008DF800006068C8B1012D1AD846780123A7
:1021700087686A4640213046B84700280DD19DF84F
:102180000000012365F3C7108DF8000061686A46FE
:1021900048784C684021A04740B2F8BD6FF07E00FF
:1021A000F8BD6FF00100F8BD2C22002031B50648C3
:1021B000416831B1487801234C686A467E21A047C6
:1021C00038BD6FF07E0038BD2C220020F8B50546E2
:1021D000124C00208DF800006068C8B1032D1AD899
:1021E0004678012387686A4642213046B84700286E
:1021F0000DD19DF80000012365F305108DF8000056
:1022000061686A4648784C684221A04740B2F8BDF0
:102210006FF07E00F8BD6FF00100F8BD2C220020A9
:10222000F8B50446184D00208DF80000686820B30A
:102230000E2C25D224B3012C22D0022C20D0032C2A
:102240001ED0042C1CD0052C1AD046780123876898
:102250006A4642213046B84700280DD19DF800005B
:10226000012364F303008DF8000069686A4648782A
:102270004C684221A04740B2F8BD6FF07E00F8BD27
:102280006FF00100F8BD00002C220020F0B40646DB
:102290000748406840B14578134644680A463146CD
:1022A0002846A446F0BC6047F0BC6FF07E00704743
:1022B0002C2200202DE9F0438FB00024DDF8589047
:1022C000804607949DF81C000F4620F00F00401C2C
:1022D00020F0F00010308DF81C0018788DF81D00EB
:1022E0009DF81E001D4620F00600801C8DF81E0083
:1022F00016461C216846FCF7EEFF9DF8000040F0F2
:1023000002008DF80000A978090702D040F008000B
:1023100001E020F0080040F010008DF8000007A850
:10232000CDE904400120019403948DF83A0006940D
:10233000ADF838700D9468788DF83400A8788DF871
:1023400035009DF83600142120F00600801C20F096
:1023500019008DF8360008A8FCF7BDFF0EA80890FC
:102360000DA8ADF828400990ADF82A40ADF82C60D2
:102370000C94B8F808004B4608AA6946A2DF0FB0D3
:10238000BDE8F083F0B58FB00E4605461C216846C7
:10239000FCF7A1FF00249DF80000039440F00E001C
:1023A0008DF80000012701948DF8367042F6322036
:1023B000049405940694ADF834000C9416F8460F76
:1023C0008DF8300070788DF831009DF832001421BE
:1023D00020F00600801C20F019008DF8320007A8BC
:1023E000FCF779FF0DA807900CA8ADF824400890E1
:1023F000ADF82640ADF828700B94288905F5AB732D
:1024000007AA6946A2DF0FB0F0BD000070B54FF01B
:10241000FF3100203BDF002835D1B1213ADF002811
:1024200031D111DF00282ED14FF01020406913DF89
:10243000002828D101214FF0E0208A05C0F8802231
:10244000D0F800315FF0000001FA00F21A420AD021
:1024500042B202F01F0501FA05F45209920002F19E
:10246000E022C2F88041401C2028EDD3BFF34F8FFB
:1024700005480168054A01F4E06111430160BFF3BA
:102480004F8F00BFFDE770BD0CED00E00400FA05C2
:102490000149085C7047000020B502000649095C4C
:1024A0004FF0A040D0F81005C84010F0010000D057
:1024B000012080F00100704720B5020007490B5C45
:1024C0004FF0A041D1F804250120984020EA0203F2
:1024D000C1F808351040C1F80C0570471CB5020062
:1024E0000249085C012104F0D9B800001CB50200C3
:1024F0000249085C002104F0D1B800001CB50200BC
:102500000649095C4FF0A040D0F80405C84010F01F
:10251000010000D0012080F0010070471CB50200CE
:102520007CB50024084E25460122305D009500232D
:102530001146019504F05AF8641C042CF4D3BDE84C
:102540007C4000F003B800001CB5020010B5002468
:102550002046FFF7C5FF641C042CF9D310BD10B54D
:1025600000242046FFF7C4FF641C042CF9D310BDDF
:1025700010B50246064B4FF0FF3000215C5C9442E0
:1025800001D1084610BD491C0429F7D310BD000035
:1025900020B5020070B50C0010494FF0000508602E
:1025A00013D0022000F082F888B1012000F07EF8FC
:1025B0000028284604D000F079F830B1022003E06A
:1025C00000F074F808B104202070284670BD022085
:1025D00000F06CF80028F7D00C20F5E7E42000208C
:1025E000054902884868102A04D0112A01D1401EEA
:1025F00048607047401CFBE7E420002010B5022033
:1026000000F0F4FA08B1062806D1022000F0EEFA34
:1026100008B1062800D1002010BD00002DE9F047C8
:102620000D468146FFF7A4FF0446042836D2DFF8A2
:1026300074801B481C4EA8F10C0725B3012D0ED049
:10264000022D2BD104EB440030444578002D25D0D9
:10265000B968002922D02846BDE8F047084704EBB6
:102660004401755C0E44717849B10E4A4FF4003153
:10267000093A8068FEF73CFA08B987F80390B17808
:1026800008F80410E2E78068FEF776FA04EB4401EC
:10269000314418F804008D78A842D7D0BDE8F087FF
:1026A00024B50200E020002054260020FFF7F6BEEB
:1026B0002DE9FC417E4C02460126E179A08A4FF6C5
:1026C000FF75122A42D029DC79490F2A8B78C97903
:1026D00001EA03015FD009DC052A28D0082A2FD09F
:1026E0000B2A33D1BDE8FC4107F0FAB9102A2FD0EC
:1026F000112A2BD139B107F0B0FE00231A46194632
:10270000184607F0F7FDA08AA8421FD0A07961798A
:1027100050EA01027DD081437CD1ADE00023173A1D
:10272000062A13D2DFE802F01212B91293301321F5
:1027300076DF09E0002809D0BDE8FC41FEF70AB9C0
:10274000A84203D1FEF7FAFC0828F3D1BDE8FC81CA
:1027500039B107F082FE02231A461946184607F0DF
:10276000C9FDA08AA842F1D0FF218DF80010E179BF
:1027700019B150A10968019147E06B46012204217B
:102780004D48FFF79EFAE1E7A842DFD08DF8003010
:102790000029DBD1F1E769B3E07B522812D0412850
:1027A00010D0512811D042280FD04F2810D04428E3
:1027B0000ED0502813D0432811D0282812D04528F5
:1027C00010D017E007F058FE0EE007F055FE01E0CC
:1027D00007F043FE02231A461946184608E007F0A0
:1027E0003CFE01E007F0BBFD00231A4619461846DF
:1027F00007F080FDA08AA842A8D0E17971B12DA18F
:1028000009680191E17B8DF80510022301AA2B498B
:1028100001E02EE031E000F077FC97E728208DF80A
:102820000000607910B145208DF80000A07930B12A
:1028300023A1032004F09CF80021012016E06B4640
:10284000012203211C48FFF73CFA26727EE7A842CA
:1028500099D0002997D18DF80030A0790028EED0CA
:1028600024A1032004F084F80021084603F0BAF9FB
:102870006CE70022012102E020B100221146002075
:10288000FCF7BCFF27A000680090E0790028C4D0C6
:1028900002236A460949A08ABAE707F0EDFD4FF422
:1028A000FA6003F08EFBBDE8FC4107F073B900004D
:1028B000D01F0020FFFF00008C23002004250020F3
:1028C0004150503A494E464F3A6B65795F3220701D
:1028D00072657373206C6F6E672D2D2D2D2D2D2D30
:1028E0002D2D2D2D2D2D2D2D2D20646F776E0D0A64
:1028F000000000004150503A494E464F3A6B65790E
:102900005F32207072657373206C6F6E672D2D2D92
:102910002D2D2D2D2D2D2D2D2D2D2D2D2D20757069
:102920000D0A0000FF11000070B50023042810D22A
:102930000D4D00EB4004012A02D101290CD00022E8
:10294000094E00EB4000304461B1012906D0022954
:1029500006D00723184670BD0F30C2B22A55F9E7DA
:102960004270F7E78270F5E754260020044A0146DA
:1029700000201279D20702D0084600F05BB87047F9
:10298000D420002070B5064625480024C0E9016126
:10299000B0072ED50025012211462846FFF7C4FFB7
:1029A00005F11B00C2B200212846FFF7BDFF05F16B
:1029B0001700C2B202212846FFF7B6FF6D1C04467D
:1029C000042D02D2002CE6D013E094B940F26662E6
:1029D00004211448FDF756FF04000AD1FDF740FF1B
:1029E000040006D10F48104A0021001FFEF744F8EA
:1029F0000446F00701D0FFF793FD74B909480B4A6C
:102A000000210C38FEF738F8040006D10548084AC2
:102A100001210838FEF730F80446204670BD00005A
:102A2000D420002030B502000F2C02009553020084
:102A30005B0802002DE9F05F6A4C054600266078CD
:102A4000B34618B184F801B002F08CFC664F4FF425
:102A50007A694FF4C87A4FF00108182D62D2DFE886
:102A600005F0AC0C0C31404D62676B746B74BE7D2D
:102A70007D7D7D7DACAFB2B5BEBE0020FFF740FDD1
:102A800000284FF0000008D0FFF72AFD022D02D1E8
:102A90004FF4E16008E0484606E0FFF729FD022D0B
:102AA00001D1C82000E05046410CC0034FF4FA7237
:102AB000801841F10001257052000023FCF7BCFB97
:102AC00001462AE00020FFF71BFD00284FF0000020
:102AD00004D0FFF705FD4FF44870E5E7FFF708FD68
:102AE000DFE70020FFF70CFD00284FF0000002D0C8
:102AF000FFF7F6FCCFE7FFF7FBFCD4E70020FFF77A
:102B0000FFFC00284FF0000002D0FFF7E9FC01E0D5
:102B1000FFF7EEFC257041F69A1100223868FDF7A8
:102B2000E7FF064646E00020FFF7C8FC257008E0F6
:102B3000002051E025703DE084F801800120FFF77E
:102B4000BDFC002240F6CD41E8E784F80180012079
:102B5000FFF7B4FC00224FF48041DFE77868FEF70E
:102B60000BF80646D5F1110000D02EB10220FFF778
:102B7000B7FC84F802B01DE0012816D980B2C82144
:102B80004843C117C90341EA5041C0034FF4FA72E8
:102B9000801841F1000152000023FCF74DFB014673
:102BA00000227868FDF7A4FF06460220FFF7A0FC8C
:102BB00084F802803046BDE8F09F02F0D3FBB9E70D
:102BC00002F0D0FBB4E702F0CDFB04E002F0CAFB58
:102BD0000020FFF78DFC0120FFF78AFCAAE7FFF732
:102BE000BEFCA7E7D420002024B5020010B5FFF7F3
:102BF0004FFC032103F01EFD002010BD002901DA67
:102C0000002070470268114401600120704700787D
:102C10000221FFF703BD30B58FB005461C2101A886
:102C2000FCF759FB0024142109A80894FCF753FB76
:102C30009DF82000009420F00F00401C20F0F000D0
:102C400010308DF820009DF82100029420F00F0034
:102C5000401C20F0F00010308DF821009DF822007B
:102C6000049420F00600801C8DF822009DF80400DA
:102C700009AA40F028008DF8040008A8CDE9054015
:102C8000079428788DF83A000320ADF838009DF8B5
:102C90000000ADF82C4020F00F00401C20F0F000A8
:102CA00010308DF800009DF80100ADF82E4020F0A6
:102CB0000F00401C20F0F00010308DF801009DF84E
:102CC00002000D9420F00600801C20F0080040F067
:102CD00011008DF802000EA809901720CDF828D019
:102CE000ADF830006888AB1D01A9A2DF0FB030BD80
:102CF00005494FF0FF32082841F8202002D308444C
:102D000080F8482070470000F82C0020F0B54FF004
:102D1000FF3512B10023082601E008230C260C4CD5
:102D200005E000BF54F823707F1C04D05B1CB34245
:102D3000F8D32846F0BD26185DB286F8305044F826
:102D40002310002AF5D1E11881F84800F1E70000CE
:102D5000F82C00200249084490F930007047000028
:102D6000F82C00202DE9F0438FB01E46DDF8589076
:102D700015460F00804602D10020FDF7EBFD15B986
:102D80000020FDF7E7FD1C216846FCF7A4FA0024AB
:102D90009DF80000039440F002008DF8000001202F
:102DA00001948DF83600049405940694ADF83480AF
:102DB0000C9430788DF8300070788DF831009DF8E3
:102DC0003200142120F00600801C20F019008DF83C
:102DD000320007A8FCF77FFA0DA807900CA808900E
:102DE0000748ADF82450ADF82640ADF828500B97B1
:102DF0004B4607AA69460088A2DF0FB0BDE8F08302
:102E00007A21002038B10549814204D80449814221
:102E100001D9012070470020704700004C2200209B
:102E20005C220020044A0168914201D0083101E08F
:102E30000149383901607047D42F002070B504462D
:102E40004FF6FF750A462846AC4208D14FF480740D
:102E50002146104605F070FBA04209D070BDFF2C42
:102E6000FCD82146104605F05AFB08B1204670BD3B
:102E7000284670BD70B5084C050009D01034216893
:102E8000002907D008682060496828468847F6E787
:102E90000834F4E770BD0000E42C00202DE9F05F59
:102EA00026484168F1B3DFF898B00E688146DBF838
:102EB000004087688078E11B21F07F45ED1CB0B9A8
:102EC000DFF880804FF48030C8F84403C8F804036A
:102ED0001120FCF7B9FC1120FCF7CCFC4FF0010AE3
:102EE000C8F800A02F2003F0FDF889F802A0B54231
:102EF00000D23546124BE8193C3320F07F40186071
:102F0000DBF800105A46091B21F07F41001B20F01E
:102F10007F40C91C81420FD9106818602F2003F030
:102F2000E1F800E004E0BDE8F05F1120FCF7B8BC78
:102F3000BDE8F05F06F04AB9BDE8F09FE821002047
:102F400004150140001001402DE9F04117880646A4
:102F5000B81D14460D46984202D90C20BDE8F081F8
:102F60003188072206290AD34FF4486C4FF6FF73C5
:102F7000614501D9994202D17088062801D21046D4
:102F8000ECE7604501D99842F9D1994203D09842C3
:102F900001D08142F3D80520E85520881221401C39
:102FA00080B2208029542088401C80B220804119A2
:102FB000308808F02EF82188084480B2208041191A
:102FC000708808F026F82188084420800020C5E792
:102FD000FDF7C0BCF8B5134802F056F9114D0026B4
:102FE000114C0C3D30B16169B9B101208DF8000080
:102FF000684611E0287820B1616971B18DF80060F0
:10300000F6E7687858B1A168084800220068FDF723
:103010006FFD10B1A16901B188472E70F8BD6168DC
:10302000F2E70000182100205427002050B50200CC
:1030300030B58FB0002405460C949DF830000D94F7
:1030400020F00F00401C20F0F00010308DF8300010
:103050009DF83100142120F00F00401C20F0F000FA
:1030600010308DF831009DF8320020F00600801CF1
:103070008DF832009DF8340020F00F00401C20F045
:10308000F00010308DF834009DF8350020F00F006E
:10309000401C20F0F00010308DF835009DF836000F
:1030A00020F00600801C8DF8360007A8FCF713F905
:1030B00001208DF83A0041F22450ADF838000EA8F6
:1030C00007900DA808900D20ADF82400ADF8280059
:1030D0000B480B90ADF826401C216846FCF7FBF826
:1030E0009DF80000074B40F01A008DF800000CA876
:1030F0000590A88807AA6946A2DF0FB030BD00007E
:103100007C2200200C2000201FB50D490346002022
:10311000898A84B0A1F57F44FF3C0FD000900190D4
:1031200001208DF80200064869463C300088ADF861
:10313000000007A8CDE902021846A6DF08B010BDBE
:10314000D01F002070B58C1D0A8A20A1032003F037
:1031500013FC274920880988884236D1002506E0DB
:10316000601924A1027B032003F006FC6D1C60891A
:10317000A842F5DC207B33280FD0322811D0542808
:1031800011D04D2812D0522817D0472819D04228E4
:103190001BD1BDE8704007F0E2B8002211460120C3
:1031A00007E0002200E00122002101E000220121CD
:1031B0000020BDE87040FCF721BBBDE8704007F07F
:1031C0005BB9BDE8704007F048B970BD4150503A56
:1031D000494E464F3A705F6576745F7772697465E1
:1031E0002D3E6C656E205B25645D0D0A00000000BD
:1031F0000C2000204150503A494E464F3A705F65CE
:1032000076745F77726974652D3E64617461205BCA
:1032100025635D0D0A0000007FB50C4610B101204A
:1032200004B070BD2079002638B141F61D55012843
:103230001BD0022826D00F20F2E702960396E06802
:103240000190694601A805F079FD50B10298818886
:10325000E18000882081BDF80010029805F0E2FDB1
:1032600000E00A2002212171DAE70A4B6A460021B8
:10327000A01D05F01FFD38B1064908398E60CE60EB
:103280000A28CDD12846CBE702488188019805F06D
:10329000C9FDF5E7042200202DE9F04100260125B3
:1032A000144C22E06068226900EBC607387805FA02
:1032B00000F1114217D08A43226103F0ADF80246B3
:1032C0003878E36805FA00F1194002FA00F39942F0
:1032D00009D17978012901D0012100E00021514074
:1032E0007A6802B19047761CF6B220788642D9D32C
:1032F000BDE8F081C421002000B593B002208DF814
:10330000400041F61510ADF842004EF6EE60ADF803
:1033100044000120ADF8460040216846FBF7DBFF82
:103320000FA16846FEF750FD10A80E909DF83C00D6
:1033300020F00F00401C20F0F00020308DF83C0001
:103340009DF83D0020F0FF008DF83D006846FEF737
:1033500003FB002801D0FDF7FDFA13B000BD00000B
:1033600077616E6763713332375F76302E392E396D
:10337000000000000E4910B50A784C780023A242E4
:1033800012D0521CD2B20A70022A00D10B70084A25
:103390000B780C3252F8232002608868104420F029
:1033A0007F408860012010BD0360002010BD000038
:1033B000E82100203EB5094D38CD8DE83800ADF844
:1033C000041007498DF80620ADF8020000220978A4
:1033D000FEF79CF9684600F08FF83EBDDCB50200B0
:1033E0006021002010B503780022072B06D2DFE809
:1033F00003F00504060C1C252B000A7010BD0122E9
:103400000A7002898A81828814E002220A70028985
:103410008A818288CA81C2688A60007C062802D0BC
:103420000020087410BD0120FBE703220A70C28847
:103430008A810289CA81C068886010BD04230B702C
:10344000C0888881CA8110BD0520087010BD0000A9
:1034500070B5064D0646002455F8241009B13046D3
:103460008847641C082CF7D370BD0000042F00208F
:103470000EB5002911D011290FD00022009202921E
:10348000ADF8020001910D2908D0862908D0092045
:103490008DF80000684600F03DF80EBD0B20F7E700
:1034A0000A20F5E7014909680847000028210020A3
:1034B00070B5054D06460024304655F8241088475F
:1034C000641C022CF8D370BD6CB502002DE9F041EC
:1034D00007460024064E074D05E000BF56F82410AD
:1034E00038468847641CE8788442F7DBBDE8F08101
:1034F000982C00205021002070B5054D0646002470
:10350000304655F824108847641C022CF8D370BD4F
:10351000A4B502000149096808470000E8B50200A7
:103520007FB50446406858B10020039020780026FB
:10353000384D06285DD2DFE800F05C0505264169BC
:103540000120F2E7A08900F0B1F918B9E08905F08F
:1035500083FC80B3A089A0F54040ADF80200A07BB9
:103560008DF8040020780128606806D048B1042056
:103570008DF80000606803901AE00028F8D003205E
:10358000F6E70120F4E7A08900F090F918B9E08986
:1035900005F062FC78B1A089A0F54040ADF80200CA
:1035A000A07B8DF80400606830B105208DF8000024
:1035B000A06802901AE01CE00220F7E7A08900F062
:1035C00075F9B0B1E089A0B9A089FF21A0F540400C
:1035D00080B2ADF802008DF80410616881B1072057
:1035E0008DF800006E70AE7004F00AFC684604F0BE
:1035F000DFFA6878002802D06E7004F001FC7FBD0D
:1036000006218DF8001004F089FCEBE708208DF806
:103610000000EBE73C21002000B5114987B0097894
:10362000890702D4022007B000BDA0F57F41FF3911
:1036300011D005218DF8001001218DF80410ADF88E
:10364000060000221146684603F0E2FE28B105F0AC
:1036500013FB0020E7E70420E5E70820E3E700008C
:10366000FC21002000B50E4887B00078800702D406
:10367000022007B000BD06208DF800000022114690
:10368000684603F0C5FE40B10648017809B1012142
:10369000017305F0F1FA0020EBE70820E9E70000EC
:1036A000FC2100200430002010B58CB014216846A5
:1036B000FBF711FE1D480078810703D56846FFF728
:1036C000C7FE30E0C0072ED1012000F013F900F052
:1036D00083F901248DF8144003F066FF0C281BD2F7
:1036E000DFE800F0061006101A1809181A12161250
:1036F0000B200CB010BD022000F0FCF8012000F0FF
:10370000DFF8DBE7002000E003208DF8180003E07D
:103710000220FAE78DF818400022114605A803F0B0
:1037200077FE05F0A9FA0020E3E70000FC21002065
:1037300038B5040011D0694605F000FB88B10A488D
:10374000BDF8001000EB0110818941B1A27A32B1BD
:10375000491E81810020A07238BD052038BD062099
:1037600038BD0A2038BD0000E42F00201FB501A994
:10377000684605F09FFA04B010BD07B513460A4627
:103780006946002005F096FA0EBD07B513460A46B5
:103790000021684605F08EFA0EBD20B119B100680F
:1037A00008600020704705207047000038B50D46BE
:1037B000040015D0A5B1694605F0C0FA90B10A49D8
:1037C000BDF80020606801EB02129189491C9181CB
:1037D000286060680C3068600120A072002038BD4D
:1037E000052038BD0A2038BDE42F002018B103237E
:1037F000002207F02FBD052070470223002207F0AA
:1038000029BD12B1022307F025BD05207047000035
:10381000064A5178082906D0054B43F82100491C77
:103820005170002070470C2070470000FC210020E0
:10383000042F002038B504460A480D46007880075A
:1038400001D4022038BD54B16946284607F016FE5F
:103850000028F7D1BDF800102180658038BD052013
:1038600038BD0000FC21002010B504460D4800784A
:10387000800701D4022010BD84B1218802290FD80D
:10388000094800EB011042896088121A032A07D404
:1038900007F0EAFD00202080608010BD052010BDEB
:1038A000042010BDFC210020E42F002043F6FE710F
:1038B000A0F54040884201D80120704700207047A1
:1038C00002490A7882430A7070470000FC210020F8
:1038D00010B504460078182802D1FDF7DDFE2070EF
:1038E00010BD10B504460078182802D1FDF7D4FEAB
:1038F000207010BD02490A7802430A707047000028
:10390000FC21002070B51346002206461546862984
:1039100005D0112901D019B170BD012500E00122A7
:103920000D4C73B16179FDF7F1FE2A4621793046DD
:10393000FDF7ECFE002261783046FDF7E7FE00223D
:1039400003E06178FDF7E2FE2A4621783046BDE8C3
:103950007040FDF7DBBE000064210020F8B506468C
:103960001A481F46154600780C46C00708D0304656
:10397000FFF748FA30B13CB1200507D00620F8BD6A
:103980000120F8BD0220F8BD0320F8BD3068A04238
:1039900004D8716804EB0530884201D90520F8BDD0
:1039A0007DB1684605F0B6F868B100980221C0E91B
:1039B00000670172210B8181058205F06DF90020FD
:1039C000F8BD0420F8BD0720F8BD00001422002037
:1039D000084605F0BBB800002DE9F0472748284C01
:1039E0004FF01021001B0209496910464B1C03D1FE
:1039F0004FF0805149690903DFF888A09AF80070F8
:103A0000FB0702D00020BDE8F0870023A14607E0B5
:103A100009EB0314256815B1646804B1401E5B1CF2
:103A20009342F5D3002422E0002504F0FF0C2B463E
:103A300013E000BF09EB0316D6F80080B8F1000FC1
:103A400004D0D6F80480B8F1000F05D1767BAE42E1
:103A500002D9354603F0FF0C5B1C9342EAD309EB15
:103A60000C13641C59601D7BA1EB05311960844265
:103A7000DAD347F001018AF80010C3E75C22002086
:103A80004C2200201422002020B10349496E01601D
:103A90000020704703207047143000202DE9F843C0
:103AA00007461D48DDF820801E46007815460C4666
:103AB000C0070CD03846FFF7A5F950B15DB154B13D
:103AC00045EA0400800708D00620BDE8F8830120FD
:103AD000FBE70220F9E70320F7E73868A04204D8A3
:103AE000786804EB8601884201D20520EDE77EB1BB
:103AF000684605F00FF868B100980121C0E9007828
:103B00000172C0E90354868205F0C6F80020DCE7A4
:103B10000420DAE70720D8E71422002070B5174AFE
:103B200017490446106E0B7800EB400002EBC00012
:103B30009D0715D5022C02D0032C1BD102E003F007
:103B400045FB17E04A78521CD2B24A70032A11D9B9
:103B500000224A70082105F0FDFC04F0C5FF09E0D1
:103B6000580707D523F004000870526E12B140F0D8
:103B700002000870BDE8704005F046B8143000201F
:103B8000142200200EB517A19DF8080020F00F00A8
:103B9000401C20F0F00010308DF808000E2202A822
:103BA0007CDF08B1FCF7D6FE40F2C23078DF08B106
:103BB000FCF7D0FE0020009001900620ADF8000038
:103BC0000C20ADF802001420ADF804004FF49670FC
:103BD000ADF8060068467ADF002801D0FCF7BAFE8F
:103BE0000EBD0000736861646F775F637265617416
:103BF0006F72000070B508B1012070BD184C00252F
:103C0000207B08B1257301E000F0A2F82078082895
:103C100024D2DFE800F02304080C1023141EBDE8B2
:103C2000704000F01FB8BDE8704000F07FB8BDE8FC
:103C3000704000F061B8BDE8704000F037B8084946
:103C40006088203901EB00104068BDE8704003F047
:103C50008BBC6560BDE8704003F094BC0F2070BD64
:103C6000043000201049F0B48A1C00200346A1F162
:103C700020050C18A67A3EB1A37205EB0014A689A4
:103C800016B9A47B012C0AD0401C80B20228F0D3C4
:103C90000B704B804B60F0BC41F61D50704710809C
:103CA000F0BC00F043B800000430002010B50F4C09
:103CB000A4F12001608801EB0010818961B1052029
:103CC00020700B480221002381800168BDE810406C
:103CD00001220848FFF742BE41680023012205483F
:103CE000FFF73CFE0421217010BD000004300020CD
:103CF0000C2200204C22002038B50A490848032431
:103D00000B684268898803EB8101538804700020A6
:103D1000DB1C00909BB20448FFF7C0FE38BD0000DA
:103D2000043000200C2200204C220020074910B54E
:103D30004888091D05F050F818B1BDE81040FFF79C
:103D4000DBBFBDE81040FFF7B1BF0000043000202A
:103D5000F0B51D481D490125067802248B88A0F185
:103D60002002082E18D2DFE806F00417171A212CBB
:103D70002C160189491C01810021418080F80C101A
:103D800002EB01131B7843B100234418491C89B28C
:103D9000A3720229F4D30570F0BD0123F5E7426850
:103DA0005288D21C1A448A800470F0BD46880D687F
:103DB00002EB061256680E60556013818C80062156
:103DC00000E007210170F0BD043000200C2200202B
:103DD000F0B504460088384DA5B050281ED05228B2
:103DE00002D0542828D103E0A08801F0E7FC23E0AA
:103DF00006208DF84400A08800F008FEADF84600CB
:103E0000A188ADF8481000F05DF9A0880022E9789B
:103E1000FDF77CFC11A8FFF745FB0DE0207B012896
:103E20000AD1A07A012807D12089A0F524510239AE
:103E300002D1A08801F0FCFCA878FDF743FCC8B1D2
:103E400014A8FDF773FB442214A96846FBF72AFA6D
:103E500000246E460BE000BF06EB4407A978B88843
:103E6000FDF73EFC10B1B88801F0A8FC641C009876
:103E7000A042F1D86878FDF725FCC8B114A8FDF779
:103E800055FB442214A96846FBF70CFA00246E4641
:103E90000BE000BF06EB44076978B888FDF720FC0B
:103EA00010B1B88801F0C4FC641C0098A042F1D89D
:103EB00005F0F2FC25B0F0BD202100203EB50446FF
:103EC0004088ADF802002078A8B101281FD0022850
:103ED00010D1207900280DD0608800F083FCA0F577
:103EE0007F41FF3906D00F490122C978FDF70EFC4A
:103EF00005F0D2FC3EBD00208DF800006846FFF7BB
:103F0000D1FA608800F06EFC01F058FC3EBD012043
:103F10008DF80000A088ADF804006846FFF7C2FAEB
:103F20003EBD00002021002010B504460078012885
:103F30000FD1608801F042FC608800F089F9002808
:103F400007D0044960880122C978BDE81040FDF718
:103F5000DDBB10BD2021002010B5104C00202070CA
:103F6000FDF79AFB6070FDF797FBA070FDF794FBDF
:103F7000E070FDF791FB2071617818290BD0A178D2
:103F8000182908D0E178182905D0182803D0012075
:103F90002070002010BD032010BD00002021002053
:103FA0002DE9F04192B000F0A5F86846FDF7BEFAA1
:103FB00000246D464FF6FF77DFF834800FE000BF36
:103FC00005EB4406B08800F021FDB84205D1B08869
:103FD000012298F80310FDF799FB641CA4B2009825
:103FE000A042EDD805F058FC12B0BDE8F081000009
:103FF000202100200178072902D1408801F018BC57
:104000007047000010B504460A4841782046FDF785
:1040100067FB68B10848002101EB410200EB820216
:104020005288A24201D1C8B210BD491C1429F3D351
:10403000FF2010BD382100202828002070B5094D30
:10404000094E002404EB440005EB800071784088A1
:10405000FDF746FB20B1641C142CF3D3FF2070BD88
:10406000E0B270BD28280020382100202DE9F04161
:10407000124E07460125BD403068FCF77DFD002843
:104080000DD10F4C2069284207D1384602F0C4F9FF
:104090000028E06805D0284304E0A8432061BDE87B
:1040A000F081A843E060206928432061A16830685E
:1040B000BDE8F0410022FCF71BBD0000FCB502008A
:1040C000C42100201CB5054AD2E90212CDE9001234
:1040D0000022694603F039FC1CBD000058B50200FF
:1040E00003484FF6FF718180012101700020704765
:1040F0002C21002010B54FF6FF7003F05DFB034943
:104100008880BDE8104005F0F3BB00002C210020A2
:104110002DE9FC41804600F079FC002403250127AD
:10412000A0F57F412646FF3908D06A46082103F0F2
:10413000E7FB18B90198841D8688056832462B462E
:1041400021464046A9DF042804D0082804D00B28C3
:1041500008D002E0112000E00020002F00D10B2049
:10416000BDE8FC810027A80701D50125E6E7344317
:10417000F5D0002426460325E0E72DE9FC418046E2
:1041800000F044FC0746A0F57F40FF380ED0012523
:104190002A466D1C0026ADB26B460821384603F056
:1041A000D9FB040006D0072C24D024E043F20200FF
:1041B000BDE8FC81019903230A1D0B604046891D5F
:1041C000AADF040004D00C2C08D0052C08D008E08D
:1041D0000821384603F056FC04460CE0012600E0B6
:1041E00000240821384603F039FC00B10324002ED6
:1041F000CED100E00C242046DAE700001FB50446CB
:104200000078012815D12079012812D1608802AAEE
:10421000012103F075FB60B902208DF80000608871
:10422000ADF80200094901208DF8040009686846CC
:104230008847064808388088A0F57F41FF3903D0B9
:10424000BDE81F4005F054BB1FBD00003421002015
:104250001CB500F0DBFB6A46012103F051FB08B1FD
:1042600000201CBD019800781CBD00002DE9F04124
:10427000084C07464FF6FF7643F203053246618845
:104280003846A7DFA84203D16088401C6080F5E76C
:10429000BDE8F0812C2100208188A1F57F42FF3A02
:1042A00003D0008808B10120704700207047F0B5A6
:1042B0008FB00F4605461C216846FBF70CF800241A
:1042C0009DF80000039440F004008DF800000126E2
:1042D00001948DF8366042F64C20049405940694BF
:1042E000ADF834000C9438788DF8300078788DF87B
:1042F00031009DF832008DF8384020F00600801C17
:1043000020F019008DF83200142107A8FAF7E3FF16
:104310000DA807900CA80890ADF824600EA8ADF881
:104320002640ADF828600B90288905F5B77307AAD9
:104330006946A2DF0FB0F0BD70B590B00D460646DD
:104340001C2105A8FAF7C7FF00249DF81400069465
:1043500040F002008DF814000A9401208DF83E0010
:10436000089442F64A2009940B94ADF83C000D9451
:1043700095F834008DF8340095F835008DF8350047
:104380009DF83600142120F00600801C20F0190052
:104390008DF8360035F8300F8DF83800000A8DF8AA
:1043A0003900A8788DF83A00E8788DF83B000425AC
:1043B0006846FAF790FF0FA800900DA80190ADF89D
:1043C00008500EA8ADF80A40ADF80C5004903089A2
:1043D00006F5B3736A4605A9A2DF10B070BD0000F0
:1043E00070B59CB028216846FAF775FF9DF8040067
:1043F000032520F00F00401C20F0F00020308DF845
:1044000004009DF80500ADF8085020F00F00401C96
:1044100020F0F00020308DF805009DF80600012402
:1044200020F00F00401C20F0F00020308DF8060036
:1044300002208DF80A009DF80C00ADF8005020F025
:104440000F00401C20F0F00020308DF80C009DF88B
:104450000D008DF8024020F00F00401C20F0F0000D
:1044600020308DF80D009DF80E008DF8034020F0EF
:104470000F00401C20F0F00020308DF80E009DF859
:104480001400ADF8184020F00F00401C20F0F000A0
:1044900020308DF814009DF815008DF80B4020F0A9
:1044A0000F00401C20F0F00020308DF815009DF822
:1044B0001600ADF8104020F00F00401C20F0F00076
:1044C00020308DF8160004208DF81A009DF81C008D
:1044D0008DF8125020F00F00401C20F0F0008DF8F5
:1044E00013408DF81B4020308DF81C009DF81D00F6
:1044F000ADF8204020F00F00401C20F0F0002030EC
:104500008DF81D009DF81E00052620F00F00401CB0
:1045100020F0F00020308DF81E009DF824008DF86A
:10452000226020F00F00401C20F0F00020308DF8B9
:1045300024009DF825008DF8234020F00F00401C3A
:1045400020F0F00020308DF825009DF8260048214D
:1045500020F00F00401C20F0F00020308DF82600E5
:104560000AA8FAF7B8FE47480A9047480B9000207F
:104570008DF83800BD21ADF84C108DF83000CDF825
:1045800034D042498DF8314012918DF8326011904B
:1045900040F20111ADF858100F908DF840008DF8E1
:1045A0005A008DF85E0018909DF854008DF85B500D
:1045B00020F00F00401C20F0F00020308DF8540057
:1045C0009DF8550020F0FF008DF855009DF85C0027
:1045D00020F00F00401C20F0F00020308DF85C002F
:1045E0009DF85D0020F0FF008DF85D009DF86800EB
:1045F00020F00F00401C20F0F00020308DF8680003
:104600009DF8690020F00F00401C20F0F0002030E1
:104610008DF869009DF86A0020F00F00401C20F022
:10462000F00020308DF86A009DF8640020F00F0043
:10463000401C20F0F00020308DF864009DF86500EB
:1046400020F00F00401C20F0F00020308DF86500B5
:104650009DF8660020F0FF008DF866009DF8670069
:104660000AA920F00F00401C20F0F00020308DF847
:1046700067000748FDF770FA002801D0FCF76AF9D7
:104680001CB070BDAD710200519A020014200020D0
:104690008C2300200648054941600649816006498F
:1046A0000161682141700020704700005D1F020019
:1046B00020330020531F0200491F02003EB502783C
:1046C00002230C46B3EB520F17D1B0F80110ADF82E
:1046D0000010C1788DF802108188ADF8041080793F
:1046E0008DF8060002AA01A92046FCF78DF80322E6
:1046F00002A96846FAF701FE08B100203EBD01207C
:104700003EBD000010B50C46FFF77CFCFF280CD026
:10471000074900EB400001EB8000416821600189FE
:10472000A180807AA071002010BD052010BD00007E
:104730002828002070B5018890B010294FD1011DA4
:1047400034226846FAF7AEFD9DF804004FF6FF7676
:10475000032134466D46B1EB500F2AD003F090FA96
:104760009DF8040040080ED001280CD0022820D16A
:1047700018E00F99281D1131FBF7A6FE18B100BFF4
:10478000BDF8344015E00EAA0DA9072003F050FA39
:104790000028EED10DE00F99281D491CFFF78EFF70
:1047A0000028EDD10EAA0DA9072003F041FA002838
:1047B000F1D1BDF80000291D01F040FBB4420ED03C
:1047C000BDF80000214600F0D2F8BDF80000ADF8B9
:1047D000360001208DF834000DA8FEF769FE10B0F8
:1047E00070BD0000094A002101EB410332F823307B
:1047F000834205D101EB410002EB80004088704705
:10480000491C1429F0D34FF6FF7070472828002068
:104810002DE9F041CEB00D46070019D0C5B10DF11C
:10482000B8085020CDE94B80B8216846FAF753FD0F
:10483000002042A94FEA0D06C0EBC00202EB0012B5
:10484000324441F82020401C0828F5D300242BE0F6
:104850000022114610466FDF4EB0BDE8F0815021B6
:104860002EA8FAF738FD37F814004CAB4AAA0721F6
:1048700003F00EFA05280AD0072808D09DF8C900D1
:10488000400806D0012804D043F20220E4E70520C6
:10489000E2E7C4EBC40000EB04103044172208F137
:1048A0000101FAF7FFFC641CAC42D8D3EAB2002144
:1048B00042A86FDFD0E7000010B50D4C18200D4A5C
:1048C000607000204FF6FF7100EB400302EB8303A2
:1048D000401C59801428F7D3FCF7DEFE60701828BE
:1048E00003D001202070002010BD032010BD000067
:1048F000382100202828002070B504460D46401CB1
:1049000000F0D0FC00280ED01022691C601CFAF7C1
:10491000F4FC48B15FF0000605F1110104F111004B
:10492000FBF7D2FD304370BD0126F5E7018811B9D0
:10493000421892780AB101207047491C0829F7D320
:104940000020704710B50C460346FFF7EFFF002824
:104950000AD018882188884205D10822A11C981CF9
:10496000FAF7CBFC08B1002010BD012010BD03F008
:1049700029BB10B50446007888B0002828D12079DA
:10498000072825D1608801AA072102F0B9FF002875
:104990001ED103F075F91DE06088BDF80010884253
:1049A00018D004990298FFF7A7FF98B16088FFF725
:1049B00019FFADF8160000208DF814006088ADF8DE
:1049C0001800BDF80000ADF81A0005A8FEF770FD4C
:1049D00008B010BD03AA6946072003F029F9002892
:1049E000DAD1F5E770B50446FFF7FCFE0546204630
:1049F00002F089FF4FF6FF7104468D4203D014B9CF
:104A0000284603F0DFFA204670BD000010B5FFF71E
:104A1000F9FAFF2805D0044900EB400031F82000E6
:104A200010BD4FF6FF7010BD282800203EB504468B
:104A300003F026F90EE0019920464631FFF782FF88
:104A400028B9019920462A31FFF77CFF10B1BDF843
:104A500008003EBD6A4602A9072003F0E9F80028D5
:104A6000E9D14FF6FF703EBD7CB514460A000A49F5
:104A7000897802D015688D4203D323B11D688D4219
:104A800001D204207CBDCDE9004313460246034811
:104A900003F0DCFA7CBD000038210020182900203A
:104AA00070B50C4606469AB010211848FAF713FC68
:104AB000174800252EB324B3847062003146134892
:104AC000FAF7F0FB382102A81895FAF704FC0095D4
