:020000040001F9
:10F000003055002015F201001DF201001FF2010031
:10F0100021F2010023F2010025F2010000000000AE
:10F0200000000000000000000000000027F20100C6
:10F0300029F20100000000002BF201002DF2010076
:10F0400075FC01002FF201008D0702004904020047
:10F05000590402002FF2010039F60100E5FD01001C
:10F060002FF201002FF201002FF201002FF2010018
:10F070002FF201002FF201002FF201002FF2010008
:10F080002FF20100C1FD01002FF201002FF201005B
:10F09000690402002FF201006D0402002FF201004A
:10F0A0002FF201002FF201002FF201002FF20100D8
:10F0B0002FF201002FF2010000000000000000000C
:10F0C0002FF201002FF201002FF201002FF20100B8
:10F0D0002FF201002FF201002FF2010000000000CA
:10F0E0000000000000000000000000000000000020
:10F0F0000000000000000000000000000000000010
:10F1000000000000000000000000000000000000FF
:10F1100000000000000000000000000000000000EF
:10F1200000000000000000000000000000000000DF
:10F1300000000000000000000000000000000000CF
:10F1400000000000000000000000000000000000BF
:10F1500000000000000000000000000000000000AF
:10F16000000000000000000000000000000000009F
:10F17000000000000000000000000000000000008F
:10F18000000000000000000000000000000000007F
:10F19000000000000000000000000000000000006F
:10F1A000000000000000000000000000000000005F
:10F1B000000000000000000000000000000000004F
:10F1C000000000000000000000000000000000003F
:10F1D000000000000000000000000000000000002F
:10F1E000000000000000000000000000000000001F
:10F1F000000000000000000000000000000000000F
:10F20000DFF80CD000F0DAF900480047197102006D
:10F21000305500200648804706480047FEE7FEE7D5
:10F22000FEE7FEE7FEE7FEE7FEE7FEE7FEE7FEE7B6
:10F230009104020001F201002DE9F05F0546002073
:10F2400092469B4688460646814640241BE0284657
:10F2500041464746224600F043F953465A46C01AF3
:10F26000914110D311461846224600F02AF92D1A72
:10F2700067EB01084F4622460120002100F021F9EA
:10F2800017EB00094E41201EA4F10104DFDC4846C3
:10F2900031462A464346BDE8F09F000000487047CB
:10F2A000E4DA020040EA01039B0703D009E008C941
:10F2B000121F08C0042AFAD203E011F8013B00F83B
:10F2C000013B521EF9D27047D2B201E000F8012B87
:10F2D000491EFBD270470022F6E710B513460A46D6
:10F2E00004461946FFF7F0FF204610BD421C10F8F7
:10F2F000011B0029FBD1801A704730B5044600205D
:10F30000034600E05B1C934203D2E05CCD5C401BF3
:10F31000F8D030BD034611F8012B00F8012B002A6C
:10F32000F9D1184670472DE9FE4F81EA030404F035
:10F33000004421F0004100944FF0000B23F0004303
:10F3400050EA01045ED052EA03045BD0C3F30A54CE
:10F35000C1F30A552C44A4F2F3340194A0FB0254E7
:10F36000C1F3130141F48011C3F3130343F4801379
:10F3700001FB024400FB034E840A970A44EA8154CD
:10F3800047EA8357A4FB076802958D0A05FB0785AA
:10F390004FEA932C04FB0C542705029D4FEA0658B4
:10F3A00047EA1637B5EB08056EEB070C870E920E91
:10F3B00047EA811742EA8312A7FB0201B6EB0B0171
:10F3C00064EB00042B0D43EA0C335E1844EB1C5035
:10F3D000DA465146E7FB0201C5F313044FEA0B334B
:10F3E00043EA14534FEA0432019C43EA0603A4F1B2
:10F3F0000C040294009CCDE900B400F090F803B036
:10F40000BDE8F08F00200146F9E70EB5C10F80EA94
:10F41000E0700844CA07002140F233438DE80E0033
:10F420000A460B4600F07BF803B000BD70B5C1F38F
:10F430000A5201F000450024C1F3130140F2FF33EA
:10F4400041F480119A4201DA002070BD40F233434A
:10F450009A42A2F2334203DC524200F041F800E04B
:10F4600090402C43F1D0404270BDC1F30A5210B518
:10F47000C1F3130140F2FF3341F480119A4201DAE3
:10F48000002010BD40F233439A42A2F2334203DC23
:10F49000524200F025F810BD904010BD00F000422F
:10F4A00030F000400AD0C10D01F56071C0F31600C4
:10F4B00042EA0151C208400711437047002001464B
:10F4C0007047202A04DB203A00FA02F1002070473E
:10F4D0009140C2F1200320FA03F319439040704792
:10F4E000202A04DB203A21FA02F00021704721FA99
:10F4F00002F3D040C2F12002914008431946704700
:10F5000010B5141E73F1000408DA401C41F100012B
:10F5100092185B411A4301D120F0010010BD2DE982
:10F52000F04D92469B4611B1B1FA81F202E0B0FA79
:10F5300080F220329046FFF7C4FF04460F4640EAAF
:10F540000A0041EA0B0153465A46084313D01146BC
:10F5500053EA010019D0C8F140025046FFF7C0FF3E
:10F5600005460E46504659464246FFF7AAFF084355
:10F5700005D0012004E020463946BDE8F08D00208A
:10F58000054346EAE0762C4337430A986305E40ACC
:10F59000A0EB08000022FD0A44EA47540A3002D5D5
:10F5A00000200146E9E7010510196941DDE9084538
:10F5B00000196941BDE8F04DA2E70000064C074D77
:10F5C00006E0E06840F0010394E807009847103433
:10F5D000AC42F6D3FFF718FE94E20200B4E2020058
:10F5E00070B58C1810F8015B15F0070301D110F805
:10F5F000013B2A1106D110F8012B03E010F8016B32
:10F6000001F8016B5B1EF9D12B0705D40023521EB4
:10F610000DD401F8013BFAE710F8013BCB1A921C1C
:10F6200003E013F8015B01F8015B521EF9D5A1421A
:10F63000D8D3002070BD00002DE9F04700268CB023
:10F64000DFF86091B0464FF4807501243746069686
:10F65000284608F021FE38B1D9F80403204203D02F
:10F66000284608F00FFE26432D1D64007F1CADB216
:10F67000082FEDD34FF4BE74204608F00DFE48B1BC
:10F68000204608F0FFFD46F0004606AA01210020B2
:10F6900008F0E4FD444D16F0FF0F15D001270024BB
:10F6A00037420DD009EB8401D1F81005D1F81015BF
:10F6B000C0F3042055F82420C1F3014102B1904762
:10F6C0007F00641C082CEBD3002E67DA4FF0FF306C
:10F6D000CDE9088000263446281910F8507F90F9AB
:10F6E000000027F0C008401C44D009A9404608F09B
:10F6F0008BF858B34FEA9719404604F019FD55F8B6
:10F7000020701FB1B9F1030F03D00FE0B9F1030F5F
:10F7100030D108A84FEAD80208F00703815C4FF007
:10F72000010C0CFA03FC41EA0C0181544FF0A0419A
:10F7300001EB8800D0F8000706A9C0F3014A404653
:10F7400008F062F818B1BAF1020F03D012E0BAF172
:10F75000030F0FD1B9F1030F08D1BAF1020F1BD07B
:10F760000221404608F04BFD761CF6B217B149461F
:10F770004046B847641C042CAED3002E0ED06A4617
:10F780000121002008F06AFD06990098884205D002
:10F790000690089809909DE70321E2E70CB0BDE8C8
:10F7A000F087000000600040202E00207FB5044656
:10F7B00082B000201D4616460090012303AA214670
:10F7C000054808F0B5FC2B4632462146024808F0B1
:10F7D0009DFC06B040B270BD1CD902001CB50223CE
:10F7E0008DF80410002100918DF80520014601AA32
:10F7F000024808F09DFC40B21CBD00001CD902006C
:10F80000F8B504461E46002013460A460090069DA1
:10F810002146064808F08CFC01B02B4632462146B2
:10F82000BDE8F040014808F071BC000014D90200A6
:10F830001CB502238DF80410002100918DF80520DD
:10F84000014601AA024808F073FCC0B21CBD0000CA
:10F8500014D90200AFF3008000B5AC48AC4A2DEDDE
:10F86000088B90ED011A92ED023A90ED000AD0ED6E
:10F87000020A61EE433A92ED033A92ED034AD0ED6B
:10F88000042A43EE403A92ED043A90ED032AD0ED7B
:10F89000051A12EE901A9F4843EE603AB6EE003A0F
:10F8A000814223EE835AD2ED013A63EE813A44EE6F
:10F8B000203A92ED044A44EE403A92ED024A63EE59
:10F8C000834AD2ED013A63EE803A44EE603A92ED1B
:10F8D000044A44EE013A23EE834AD2ED013A63EE44
:10F8E000A00AD2ED023A43EE800A92ED030A40EEFE
:10F8F000410A60EE835A07DC12EE101A814203DCE3
:10F9000011EE901A81427CDD22EEA20A02EE020A7A
:10F9100001EEA10A06F098FF21EE808A62EE800ACD
:10F9200022EE001AD2ED011AB0EE000A92ED022A80
:10F9300061EE808AD2ED021AD2ED022A92ED023AED
:10F9400061EE807AD2ED031AD2ED033A92ED04AA69
:10F9500021EE807AD2ED041A92ED02BA61EE809A1D
:10F96000B1EE000AD2ED011A62EE006A92ED032AAE
:10F9700061EE801A22EE006AB2EE002A62EE82AADE
:10F98000D2ED032A22EE829A92ED012AD2ED012ACB
:10F9900022EE222AD2ED022A62EE832A92ED033A67
:10F9A00022EE002A63EE233A92ED043A23EE0AAAED
:10F9B00021EEA33A07EE203A01EEA23A66EE8A1A49
:10F9C00049EEE01A07EEC13A42EE0B1A48EEC11AB0
:10F9D00071EEE61A4AEEA21A4AEEA31A46EE881A09
:10F9E000D2ED036A22EE262A08EEA02A06EE0A2AA3
:10F9F00009EEC12A32EE462A09EE222A09EE232A0E
:10FA000000E033E006EE082A62EE802A92ED046AF6
:10FA100023EE800A62EE862A47EEE02AD2ED040A3F
:10FA200040EE202A23EE030A01EEA10A47EE412A06
:10FA300002EE020A02EEA20A06F006FF23EE001A08
:10FA400062EE000A92ED002A61EE801A22EE800A30
:10FA500002EE415A92ED001A41EE614A92ED001A0F
:10FA600001EE604AD2ED000A40EEC05AD2ED010A22
:10FA70009FED290A45EE000AC2ED010AD2ED020A05
:10FA800044EE800AC2ED020AD2ED030A44EE000AF7
:10FA9000C2ED030AD2ED040A45EE800AC2ED040A63
:10FAA00092ED010AD2ED010A92ED021A20EE200A2F
:10FAB000D2ED020A00EE810AD2ED030A92ED031A9A
:10FAC00000EE810AD2ED040A92ED041A00EE810ADA
:10FAD00006F0BAFED2ED010A60EE800AC2ED010A1C
:10FAE000D2ED020A60EE800AC2ED020AD2ED030AEC
:10FAF00060EE800AC2ED030AD2ED040A20EE800A0D
:10FB000082ED040ABDEC088B00BD00001827002020
:10FB1000C82200206F12833A0AD7233C70B5244CC8
:10FB200005460020A071E0712072E0726072A07240
:10FB300001200E46102D0AD0112D14D0122D18D0F0
:10FB4000142D1CD0152D1CD0132D1DD022E0A0711A
:10FB5000A6724FF00001AEB15FF005000CF0FDFDA4
:10FB6000A07A08BB14E0E071A672EEB90021022071
:10FB700002E02072012106200CF0EFFD14E060721B
:10FB800012E003210420E9E7E07201210320E5E708
:10FB9000132D09D003F0B6FC33462A46BDE8704069
:10FBA00004A1032008F0C3BC03F07AFBF4E70000D3
:10FBB000D01F00204150503A494E464F3A4D6F6495
:10FBC0006520737769746368204D6F64655B256495
:10FBD0005D207573655F6D6F7573655B25645D0D85
:10FBE0000A00000000F01F0201219140400980003E
:10FBF00000F1E020C0F88012704700F01F020121E0
:10FC000091404009800000F1E020C0F88011704769
:10FC100000F01F02012191404009800000F1E02026
:10FC2000C0F80011704700F01F0201219140400907
:10FC3000800000F1E020C0F80011704700F01F02C2
:10FC4000012191404009800000F1E020C0F800123D
:10FC500070474907090E002806DA00F00F0000F18E
:10FC6000E02080F8141D704700F1E02080F80014B7
:10FC7000704700002DE9F0414FF48077384607F0D7
:10FC800033FE0124104EA50748B1384607F033FE75
:10FC90000120C5F808037470002004F0D9FA4FF46D
:10FCA0008277384607F020FE00280BD0384607F050
:10FCB00022FE0220C5F80803B470BDE8F04101201F
:10FCC00004F0C6BABDE8F0810C2E002010B53A4908
:10FCD000B0EE001A2DED048B044691ED020AD1ED31
:10FCE000020AD1ED031A20EE010A91ED032AD1EDAB
:10FCF000012A91ED043A60EE200A91ED030AD1ED5C
:10FD0000013A20EE010A60EE211A91ED020A20EE7E
:10FD1000020A91ED042A02EE620AB7EE002AD1ED42
:10FD2000042A72EE600A62EE812A20EE010AB0EE29
:10FD3000602A42EEC30AD1ED022A91ED043A72EE36
:10FD4000618A62EE832A91ED033A43EE632A91EDD4
:10FD5000043AD1ED013A22EE818AD1ED032A62EE16
:10FD6000832A91ED023A43EE232A22EE819A00F093
:10FD700069FEB0EE401AB1EE490AF0EE419A00F089
:10FD8000CBFDB0EE401AB1EE480AB0EE419AF0EE6B
:10FD9000680A00F057FEDFED090A29EEA01A20EEEE
:10FDA000200A84ED001A29EE201A84ED011A84ED50
:10FDB000020ABDEC048B10BDC8220020E12E654272
:10FDC00007480021C0F84011C0F84411C0F848119C
:10FDD000C0F84C11C0F80011C0F804110CF0F2BDCD
:10FDE000001001402DE9FE434FF48278404608F0B0
:10FDF0001BFC4C4F00254C4C012600B3404608F03C
:10FE00001BFC94F82E0010B194F82F10D1B18DF88E
:10FE10000050616801912189ADF80810E26832B1A3
:10FE2000218B618362602181E56010B102E025745D
:10FE300000E03E6021686846884784F82F5094F8B7
:10FE40002E0060B34FF48077384608F0EDFB30B3F6
:10FE5000384608F0F1FB628B94F82D108A420AD9DB
:10FE6000A2EB010080B260832289A2EB00006268ED
:10FE700002EB400005E007D1E06828B184F82F606C
:10FE8000658308F08BFB04E08A4202D184F82F607E
:10FE90006583404608F0D0FB2248001D06604FF401
:10FEA0008877384608F0C0FB48B1384608F0C4FBF4
:10FEB000257402208DF800002168684688474FF4B9
:10FEC0008A77384608F0B0FB28B1384608F0B4FB12
:10FED0002574BDE8FE834FF000484FF48C796769C4
:10FEE0001DE000BFB7FA87F028FA00F109EB8005A2
:10FEF0008F43284608F098FB88B1284608F09CFB01
:10FF0000A5F58C75E8088DF8040045F38000401CC9
:10FF10008DF800608DF80500216868468847002F3D
:10FF2000E0D1D6E700700040E82E002003480078BA
:10FF3000002801D100F038BC7047000000340020D8
:10FF400070B50E46144900EB400001EBC0051446A5
:10FF5000E86A183520B101280FD0022805D113E036
:10FF6000284600F055FCA04201D2002411E02246B0
:10FF70003146284600F084FC0BE0284600F048FC9F
:10FF8000A042F4D20446F2E73146284600F04BFC8A
:10FF90000446204670BD00000034002006F08ABDF3
:10FFA000024A0021024801F0C7BB0000B5B80200B8
:10FFB00004D9020070B50446224803F047F92149EC
:10FFC000B1F90230002B01DB184600E0584247F639
:10FFD000FF75A8421DDAB1F90000002801DB0246D6
:10FFE00000E04242AA4214DAB1F90420002A01DBFF
:10FFF000164600E05642AE420BDA134D2D885B1BCD
:020000040002F8
:100000004B80124B1B88C01A088011480088101AB8
:100010008880B1F9020000EE100AB8EEC00A84ED43
:10002000000AB1F9000000EE100AB8EEC00A84ED33
:10003000010AB1F9040000EE100AB8EEC00A84ED1E
:10004000020A70BD98220020FC1F0020FE1F002025
:1000500000200020F8B507460E466E4803F0F6F87B
:100060006C48801D03F0C8F86A4CB4F90220002ADD
:1000700001DB104600E05042664D47F6FF73AD1DB0
:10008000984212DAB4F90010002901DB084600E0BA
:100090004842984209DAB4F90400002801DB84469A
:1000A00001E0C0F1000C9C4509DBB4F904000090AC
:1000B000B4F9003058A1032008F041FA23E0DFF83A
:1000C0008CC16B88BCF800C0A3EB0C03DFF880C1C7
:1000D0006B802B88BCF800C0A3EB0C03DFF874C165
:1000E0002B80AB88BCF800C0A3EB0C03AB805A4B51
:1000F0001B88D21A6280594A1288891A218058496D
:100100000988401AA080B4F90000002800DA4042B3
:100110000021052810DAB4F90200002800DA404274
:10012000052809DAB4F90400002800DA404205285D
:1001300002DA61802180A180288830806888708000
:10014000A888B0802088F08060883081A088708185
:1001500044480278444812B9016041608160B4F9B2
:1001600002104268114400EE101AF8EEC00A9FED2A
:100170003F0A80EE801A87ED001AB4F9002001686A
:10018000114400EE901AF8EEE00A80EE801A87ED36
:10019000011AB4F9041083680B4400EE903AF8EEAB
:1001A000E00A80EE801A87ED021AB5F9023000EEFF
:1001B000103AF8EEC00A9FED2E0A20EE801ADFED0D
:1001C0002D0A21EE201A87ED031AB5F9003001EE51
:1001D000103AB8EEC11A21EE001A21EE201A87ED6E
:1001E000041AB5F9043001EE103AB8EEC11A21EE46
:1001F000000A20EE200A87ED050A03681A4402600F
:10020000B4F9023042681A44426082681144816045
:100210000020F8BD982200203A494E464F3A7265B8
:100220006164206779726F20616674657220785B03
:1002300025645D2020795B25645D207A5B25645D03
:10024000202D2D2D2D2D200D0A0000000220002034
:100250000420002006200020FC1F0020FE1F00209C
:1002600000200020E61F00209834002000806A440F
:1002700079E91C41000080382DE9F04104463A48F4
:1002800002F0E4FF3848801D02F0B6FF3649B1F9AC
:100290000230002B01DB184600E05842324D47F691
:1002A000FF76AD1DB0422CDAB1F90020002A01DB47
:1002B000104600E05042B04223DAB1F904000028B1
:1002C00001DB074600E04742B7421ADA274E36887C
:1002D0009B1B4B80264B1B88D21A0A80254A12880A
:1002E000801A254A888068881288801A234A688084
:1002F00028881288801A224A2880A8881288801AA2
:10030000A880B1F9020000EE100AB8EEC00A84ED30
:10031000000AB1F9000000EE100AB8EEC00A84ED40
:10032000010AB1F9040000EE100AB8EEC00A84ED2B
:10033000020AB5F9020000EE100AB8EEC00A84ED18
:10034000030AB5F9000000EE100AB8EEC00A84ED09
:10035000040AB5F9040000EE100AB8EEC00A84EDF4
:10036000050ABDE8F081000098220020FC1F002053
:10037000FE1F00200020002002200020042000207A
:10038000062000202DE9F0410446284802F05EFFD7
:100390002648801D02F030FF2449B1F90250002D9B
:1003A00001DB284600E06842204A47F6FF76921DAE
:1003B000B0422CDAB1F90030002B01DB184600E026
:1003C0005842B04223DAB1F90400002801DB0746A5
:1003D00000E04742B7421ADA154E3688AD1B4D8011
:1003E000144D2D885B1B0B80134B1B88C01A134BBD
:1003F000888050881B88C01A114B508010881B8839
:10040000C01A104B108090881B88C01A90804888B2
:100410002080088860808888A0805088E0801088CC
:10042000208190886081BDE8F08100009822002042
:10043000FC1F0020FE1F00200020002002200020C2
:1004400004200020062000200149024806F06DBA71
:10045000982E00200030004002494FF0402006F066
:1004600009BA0000C02E00200CF0FAB9074810B5F8
:10047000406830B18047002807D0BDE8104001F047
:10048000C9B8BDE8104006F0A3B910BD7422002021
:10049000F0B5AE480023021D01780125101D4FF074
:1004A000805406290BD11678360708D10678C6F392
:1004B0000316032E06D0042E04D0052E02D00629E2
:1004C00007D00EE0B4F82463A14FC6F304263E60C3
:1004D00002E01678360704D10678C6F30316032E19
:1004E00002D0062904D00FE09B4F9A4E7E670EE0A3
:1004F0001678360708D10678C6F30316032E06D001
:10050000042E04D0052E02D0062907D00EE0D4F820
:100510004462924FC6F342363E6002E016783607D8
:1005200004D10678C6F30316032E02D0062906D09E
:1005300011E08B4E376827F0807737600EE0167831
:10054000360708D10678C6F30316032E06D0042E0C
:1005500004D0052E02D006290AD011E04FF08046C3
:10056000C6F80C31C6F810317C4E361F336002E0FD
:100570001678360704D10678C6F30316032E02D088
:10058000062905D00CE0754F032664373E600AE06B
:100590001678360704D10678C6F30316032E02D068
:1005A00006290DD014E06F4F05263E606D4E78365B
:1005B00035606C4E083633603F263F1D3E6002E0DA
:1005C0001678360704D10678C6F30316052E02D036
:1005D000062957D062E0644E3668644F3E60624E32
:1005E000361D36683F1D3E605F4E083636683F1D3B
:1005F0003E605D4E0C3636683F1D3E605A4E1036EA
:1006000036683F1D3E60584E143636683F1D3E60CA
:10061000554E18363668554F20373E60524E1C36C0
:1006200036683F1D3E60504E203636683F1D3E60A6
:100630004D4E243636683F1D3E604B4E2836366898
:100640003F1D3E60484E2C3636683F1D3E60464E8C
:1006500030363668454F40373E60434E3436366854
:100660003F1D3E60404E383636683F1D3E603E4E70
:100670003C3636683F1D3E603B4E403636683F1D77
:100680003E6002E01678360708D10678C6F30316F6
:10069000032E06D0042E04D0052E02D0062907D042
:1006A00019E0D4F85812324A01F04F01116002E00B
:1006B000117809070FD10078C0F30310032803D085
:1006C000042801D0052806D12A480168C90702D0AC
:1006D0006FF00101016022487438016841F4700133
:1006E0000160BFF34F8FBFF36F8F4FF01021D1F830
:1006F0000002002803DBD1F80402002822DA1E4A97
:1007000015601E480468002CFCD01524C1F8004276
:100710000568002DFCD0C1F8044201680029FCD016
:10072000136001680029FCD0BFF34F8F0C48F038EC
:100730000168134A01F4E06111430160BFF34F8F78
:1007400000BFFDE710490F480860F0BDE00F00F062
:10075000403501400DF0ADBA00C007403C050040F7
:10076000FCED00E0105600400404001020C50040DD
:10077000E40E00400004004004E5014000E40140B4
:100780000400FA050090D003DC2200200448017F19
:1007900004480029024901D00CF0CFBD0CF03EBD49
:1007A000782E00200020004010B5124C022020615D
:1007B000606111A0A061A4F50470E0614FF40070C5
:1007C00020620020A06260620BA1A164E062A4F13B
:1007D0001001E16410212165A0656065E06509A153
:1007E000E01DFEF797FD08A12046FEF793FD2020AF
:1007F000A07110BD003400205465726D696E616C8B
:100800000000000052545400534547474552000031
:100810000269C1688A4203D88068401A104400E027
:10082000501A401E70472DE9F047C46817468946A4
:1008300006464FF000083069A04201D9051B02E0CE
:10084000B168201A0D1AB0686D1E001BA84200D8AE
:100850000546BD4200D33D4670682A4620444946BD
:10086000FEF720FDB0687F1B2C44A844A944A04299
:1008700000D10024F460002FDDD14046BDE8F087B0
:100880002DE9F041C6680446174688468068851BF6
:100890006068BD4206D93044FEF704FDF019E060FF
:1008A000BDE8F0812A463044FEF7FCFC7E1B08EBD5
:1008B000050132466068FEF7F5FCE660F0E70000EF
:1008C0000FB41CB50246002007AC00290BD0491E0E
:1008D000CDE90021054B6A462146069800F018FA3A
:1008E000009A002111701CBC5DF814FB731102000A
:1008F0004100080218BF04200A0E18BF40F0010092
:100900004FF07F4232EA010108BF40F002000128A7
:1009100008BF05207047000010B54FF00E402DEDC8
:10092000028BB0EE408A18EE104A00EB4400B0F1A2
:10093000506F4AD84FF0FC40B0EB440F22D2B0EEDB
:10094000C80AF7EE000A30EEC00AF6EE000A60EEC2
:10095000208A18EE900A0BF06BFE01EE100A14F0DC
:10096000004F1DBFDFED2D0A9FED2D0AB1EE411A9C
:10097000DFED2C0A08BF9FED2C0AF8EE001A21EEDD
:10098000218A05E0DFED290A68EE088AB0EE600AE8
:100990009FED271ADFED271A30EE080A48EE811A7C
:1009A0009FED251A08EEA11ADFED241A48EE811AF0
:1009B0009FED231A08EEA11A68EE281ABDEC028BEF
:1009C00001EE810A30EE200A10BD4FF0E440B0EB9A
:1009D000440F0CD918EE100AFFF78AFF042808BF4D
:1009E00000F066F9B0EE480ABDEC028B10BD4FF086
:1009F0007F40B0EB440F07D2B0EE480ABDEC028B4B
:100A0000BDE8104000F046B9012000F07BF9BDECD4
:100A1000028BBDE8104000F043B900000000C9BFE0
:100A200022AAFDB90000C93F22AAFD39000000003A
:100A300024FE1C3DC78AD83C1E67383D1B93993D58
:100A4000AFAA2A3E10EE100A10B510EE901A4FF021
:100A5000684202EB40032DED028BB3F1654F3CBFC2
:100A600002EB4102B2F1654F7CD200BFC0F3C75325
:100A7000C1F3C7529A1A1B2A09DD10F0004F14BFA8
:100A80009FED6E0A9FED6E0ABDEC028B10BD12F158
:100A90001A0F1BDA11F0004F09D010F0004F0CBFF5
:100AA0009FED680A9FED680ABDEC028B10BD80EED9
:100AB000208A18EE100AFFF71BFF042808BF00F079
:100AC000F7F8B0EE480ABDEC028B10BD4200B2EB65
:100AD000410F37D910F0004F19BFDFED5C1A9FEDC1
:100AE0005C1ADFED5C1A9FED5C1AB0EE602A0A46D4
:100AF000F1EE400A80F00041B0EE420A10460A1AB8
:100B00005200B2F1807F34D2484010F0004FDFED48
:100B1000532A9FED533A1DBFBEEE002A71EEE21A32
:100B200031EE431AB6EE002A04BF71EEA21A31EE7E
:100B3000031AF0EE402A42EE602A40EE020A82EEEC
:100B4000A02A18E011F0004F04BF9FED461AF0EE06
:100B5000411AD4D010F0004F1CBFDFED431A9FEDB7
:100B6000431A00E026E004BFDFED411A9FED411A71
:100B7000C5E780EE202A22EE020ADFED3F0ADFED14
:100B80003F2ABDEC028B40EE202ADFED3D0A40EE0D
:100B9000220ADFED3C2A40EE202ADFED3B0A40EE40
:100BA000220A22EE000A00EE201A31EE020A30EE8E
:100BB000210A10BD4FF07F42B2EB400F28BFB2EBCD
:100BC000410F05D2BDEC028BBDE8104000F065B8C6
:100BD00040EA01035B0008BF41F0FF410BD0B2EBDC
:100BE000400F08BFB2EB410F08D120F0804000EE6B
:100BF000100A21F0804100EE901A37E7B2EB400F67
:100C000012BF5FEA410240F0FF4001F000413FF4B3
:100C10002DAF4A0092EA40033FF528AF002AACBF4F
:100C20009FED1A1A9FED1A1A20EE010A60EE810A52
:100C300010EE100A10EE901A18E70000DB0FC9BF83
:100C4000DB0FC93FDB0F4940DB0F49C00000C9BFC4
:100C500022AAFDB90000C93F22AAFD390060ED3E7D
:100C6000C30ACE3700000000000049C022AA7DBAA6
:100C70000000494022AA7D3A2DAD65BD8FB8D53D13
:100C80000FB511BE61C84C3EA8AAAABE0000804F95
:100C90000000802F30EE000A704730EE200A7047C7
:100CA000DFED020A80EEA00A70470000000000009D
:100CB0009FED020A20EE000A7047000000000010BD
:100CC00002E008C8121F08C1002AFAD17047704715
:100CD000002001E001C1121F002AFBD17047000073
:100CE0000121202803DA81400548014003E0402823
:100CF00002DA2038814009B1012070470020704796
:100D0000FC06FFBD0149086070470000E02200209A
:100D10002DE9FF4F8DB00F460546002606E0252839
:100D20000BD0DDE90F1290476D1C761C2878002847
:100D3000F5D111B03046BDE8F08F0024A246A1469F
:100D40000122EC4900E0044315F8013F203B02FA80
:100D500003F00842F7D128782A2810D06FF02F022C
:100D60002878A0F13001092914D80AEB8A0102EB96
:100D7000410144F0020400EB010A6D1CF0E701CFD1
:100D80005FEA000A03D544F40054CAF1000A44F0B3
:100D900002046D1C28782E2817D115F8010F44F095
:100DA00004042A280ED06FF02F022878A0F1300119
:100DB00009290AD809EB890102EB410100EB01097D
:100DC0006D1CF2E757F8049B6D1C28786C280FD037
:100DD00006DC4C2817D068280DD06A2814D104E00E
:100DE000742810D07A280FD10DE044F400140AE0E2
:100DF00044F4801401E044F440146978814202D143
:100E000004F580146D1C6D1C2A786E2A1FD00CDC32
:100E1000632A31D004DC002A8BD0582A11D1A3E0F8
:100E2000642A68D0692A0CD165E0732A2ED004DCCC
:100E30006F2A73D0702A04D19BE0752A6FD0782A6C
:100E40006ED01046DDE90F129047761C50E1C4F3D6
:100E50000250022806D0032809D0042801CF09D067
:100E6000066045E101CFF117C0E9006140E101CF23
:100E700006803DE106703BE117F8040B8DF8000099
:100E800000208DF80100EB46012003E057F804BB79
:100E90004FF0FF3061074FF0000102D40DE008F180
:100EA0000101884649450FDA8045F8DB1BF8081038
:100EB0000029F4D108E008F1010188468142FADBFB
:100EC0001BF808100029F6D1DDE90F23AAEB080072
:100ED0008146214600F036F9304400EB080604E074
:100EE000DDE90F121BF8010B9047B8F10108F7D2AA
:100EF00021464846F7E00A21C4F302534FF0000BA5
:100F00000891022B04D001CFC117032B09D00AE0AE
:100F1000FF1D27F00707F7E8020108E032E01FE0B5
:100F200020E000B2C117042B01D140B2C117031E4B
:100F300071F1000307DA4FF0000CD0EB0C006CEB02
:100F400001012D2302E0230504D52B238DF8243045
:100F5000012303E0E30701D02023F7E7984658E098
:100F60000A2110E010210EE010204FF0000B089035
:100F70000CE010214FF0000B44F004044FF008097E
:100F8000089103E008214FF0000B0891C4F30253CD
:100F9000022B04D001CF0021032B06D006E0FF1D59
:100FA00027F00707F7E8020103E080B2042B00D125
:100FB000C0B24FF0000823072BD5702A07D0DDF808
:100FC00020C08CF0100C5CEA0B0C05D00EE0402326
:100FD0008DF82430012308E050EA010306D03023C5
:100FE0008DF824308DF8252002239846DDF820C0A6
:100FF0008CF0080C5CEA0B0C0BD150EA010301D118
:10100000630706D530238DF824304FF00108A9F18D
:101010000109582A04D038A20B9208AA0A920BE0C0
:101020003AA2F9E75B46089AFEF706F90B9B9B5C30
:101030000A9A521E0A92137050EA0102F2D10A98DB
:10104000ADEB000000F1200B600702D524F48034E2
:1010500001E04FF00109D94502DDA9EB0B0000E0EA
:10106000002000EB0B0141440890AAEB010AE003C9
:1010700006D4DDE90F232146504600F063F806440C
:101080004FF0000908E009A911F80900DDE90F1285
:10109000904709F10109761CC145F4DBE0030CD54A
:1010A000DDE90F232146504600F04CF8064404E0E9
:1010B000DDE90F1230209047761C0899481E0890F1
:1010C0000029F5DC08E00A980A990078491C0A9181
:1010D000DDE90F129047761CBBF10001ABF1010B6B
:1010E000F1DC21465046DDE90F2300F019F80644F3
:1010F0006D1C1BE609280100303132333435363798
:101100003839616263646566000000003031323353
:1011100034353637383941424344454600000000F3
:101120002DE9F041044600251E461746880404D4E4
:1011300005E039462020B0476D1C641EF9D52846CD
:10114000BDE8F0812DE9F041044600251E46904699
:10115000C80301D5302700E02027880404D505E026
:1011600041463846B0476D1C641EF9D52846BDE897
:10117000F0814A68002A06D00A68531C0B60107080
:101180004868401E4860704710B560B159B1027898
:101190000B785208B2EB530F05D10622401C491CB4
:1011A000FEF7ABF808B1002010BD012010BD2DE9FD
:1011B000FC47002517880646158090F82D00144638
:1011C000894630B13A462146484601F057F90500B4
:1011D00009D1B0784FF00C0A18B32088C846001D1A
:1011E000B84202D95046BDE8FC87684679DF00283E
:1011F000F9D12088032108F8001020881921401C0B
:1012000080B2208008F800102088401C80B2208026
:1012100000EB0801BDF800000CF007F92188084434
:101220002080F0780222C8B1218896F9033001F1BC
:10123000030C4846BC45D5D8425421884FF0010CD8
:10124000491C89B2218000F801C02188491C89B25B
:10125000218009F801302088401C20807068B8B1D6
:10126000218890F9003001F1030C4846BC45B9D8FB
:10127000425421880A22491C89B221804254218883
:10128000491C89B2218009F801302088401C208047
:10129000308950B1CDE900474B460622022106F1C4
:1012A00008000CF01BF905009DD1308A50B1CDE942
:1012B00000474B460722032106F110000CF00EF9FF
:1012C000050090D1308B50B1CDE900474B46152237
:1012D000142106F118000CF001F9050083D1306AE1
:1012E00030B13B462246494603F01CF80500DBD1ED
:1012F000706A30B13B462246494606F0B2F8050016
:10130000D2D196F82C0038B13B46224649463046A9
:101310000AF00AFD0500C7D1307838B13B462246B5
:101320004946304606F0DEF90500BDD128465AE7A9
:10133000134A0021535C0BB1012203E0491C06292A
:10134000F8D300220F49012806D0022809D003282B
:101350000CD0042812D10DE0487810B10AB1012058
:101360007047887810B10AB102207047C87808B178
:1013700003207047087908B10420704700207047A7
:1013800061210020A827002010B598B03C2101A8B9
:10139000FDF7A1FF02218DF80410012405208DF82E
:1013A00006408DF8070016480690ADF8144020213D
:1013B00010A8FDF790FF00208DF840008DF8414007
:1013C0008DF8420012901390282014908DF843401D
:1013D0001E2015908DF844404FF448601690B420BC
:1013E000179008480090084B10AA002101A800F0AF
:1013F00031FC002801D000F00DF918B010BD00003C
:1014000010200020511C0200B18602002DE9F04797
:1014100030B125A1032007F07FF809F07BF83AE00E
:101420004FF6FF76324610212548FDF74DFF254C3B
:1014300008200546E066DFF8888004F16C07B146B5
:10144000304608F057FF0026BA463E604F460AE095
:10145000DAF800104FEA410C491CCAF8001028F8CD
:101460000C0008F047FFB84201D06D1EF0D21448BE
:10147000E16E09F069F908B100F0CCF81048E16EAE
:1014800008F072FD062802D008B100F0C3F8A67774
:10149000032000F0FFFC002803D0BDE8F04700F077
:1014A000B9B8BDE8F08700004150503A494E464F68
:1014B0003A457261736520626F6E6473210D0A0094
:1014C000C4260020D01F002070B58CB015460E46F3
:1014D00000236C46C3F10F01415CE1545B1C102BEF
:1014E000F8D30D2104F11000FDF7F5FE0020C0F146
:1014F0000F02315C2244401C11740328F7D3684664
:1015000043DF0020C0F10F01214491F8201029543D
:10151000401C0328F6D30CB070BD022002F01CB9A9
:1015200070B50024064D06E06868012110F834000B
:1015300006F0ACFB641C28788442F5D3002070BD13
:1015400020220020F8B515460C460646052A01D291
:101550000720F8BD06F080FC18B906F04FFC002803
:10156000F7D1104900204E600C70C1E902500E4DB9
:1015700008610DE006EBC4006968009181788DF880
:1015800001100078094A694606F0D2FB0028E0D134
:10159000641EE4B2EED2BDE8F840054A00210248DC
:1015A00000F0CAB82022002028DA02009557020075
:1015B000454802000AA1012006F0AEFF0CA103205D
:1015C00006F0AAFFBFF34F8F10480168104A01F4DC
:1015D000E06111430160BFF34F8F00BFFDE70000E2
:1015E0003A4552524F523A466174616C0D0A0000FE
:1015F0003A494E464F3A486974207765616B2068D6
:10160000616E646C65720D0A000000000CED00E074
:101610000400FA050EB500210091CDE901106A46DB
:1016200044F20100FFF7C6FF0EBD00002DE9F84FA0
:10163000254C8146924660880E46814241D800275B
:101640004FF6FF788DF80070684600F005F92278B3
:101650006078A188884201DA401C00E00020C0B216
:10166000904204D19DF8000000F01AF927E0657857
:101670006078884201DA401C00E0002060709DF82C
:10168000000000F00DF9454519D0A068B9F1000F30
:1016900040F835A00DD066B16188E068324605FBA0
:1016A00001004946FDF7FEFDA06800EBC5008680FD
:1016B00002E000EBC50087800020BDE8F88F042021
:1016C000FBE70920F9E700003422002010B50E4C9A
:1016D00003E0401C00E00020207020786178814207
:1016E00010D022786188E068A36802FB010003EB58
:1016F000C20153F83220898890472078A188884217
:10170000E9DAE6E710BD00003422002030B5CB0056
:1017100008339DB293074FF0000401D0072030BD7D
:10172000044B9A602A44DA605C701C70588099807F
:10173000002030BD34220020074B9B7823B12AB112
:1017400020B10068037C1BB1082070470720704758
:101750004174426100207047382F002070B509F0B5
:10176000CFFB104800240B21047044700E4D817093
:1017700014206C602C706C70FEF734FA0721142072
:10178000FEF767FA1420FEF743FA084804600721C1
:101790001120FEF75EFA0548001F0068A8600020CF
:1017A00070BD0000382F00204422002008150140A1
:1017B0002DE9FC47DFF8789099F8023073B368B3ED
:1017C000052902D20720BDE8FC87436933B3437C77
:1017D000012B25D0002704460025884616468DF8A3
:1017E0000050684600F038F801A80BF05FFEC8B161
:1017F000012101700F4944600968C0E90218C0E97D
:1018000004769DF8040089F801009DF8000000F0BE
:1018100047F81420FEF712FA2846D4E70820D2E74A
:101820000F46D8E704259DF8000000F039F8F3E7EB
:10183000382F0020041501400649897839B130B1AC
:10184000416921B10021017402210BF097B80820F1
:1018500070470000382F002030B5EFF3108172B6CA
:101860000D4A9468012324B10370002900D162B6A7
:1018700030BD93604FF0E023D3F88051074C2540F2
:101880001560C3F88041D3F8844154605A17C3F8F7
:10189000842100220270E8E744300020FC06FFBDEE
:1018A0000B498A68002A11D000280FD1EFF310806D
:1018B00072B60B684FF0E022C2F800314B68C2F8F4
:1018C000043100228A60002800D162B6704700000F
:1018D000443000202DE9F043044687B0008800F032
:1018E00063FD8146208804F025FC214F8046667AFE
:1018F000208800223978A56800F0A8FDB9F1000F12
:1019000033D06079400711D50721404607F054FFD6
:10191000A0B108218DF80C1021880590ADF80E10AB
:10192000ADF8108003A803F0CBF807E02088B97861
:1019300000F076FD10B1404604F0E8FB03208DF87E
:1019400000002088ADF802006079C0F380008DF8B7
:101950000400A079C0F380008DF805008DF80650D2
:101960008DF80760684603F0ABF807B0BDE8F08378
:10197000BC21002000B585B014216846FDF7ABFC02
:1019800000200090029064208DF80C009DF80D005E
:10199000012120F00F00401C20F0F00020308DF8D5
:1019A0000D009DF80E008DF8041020F00F00401C73
:1019B00020F0F00020308DF80E009DF80F006946F1
:1019C00020F0FF008DF80F009DF8100020F00F00B0
:1019D000401C20F0F00020308DF81000074800F087
:1019E00074FB08B1FFF716FE6946044802F042FD99
:1019F000002801D0FFF70EFE05B000BD80260020B4
:101A000070B5194C194DA078102816D00026122850
:101A10000FD015281DD014281FD013280CD16078A2
:101A2000002809D0032102200AF097FE284606F07C
:101A300087F805F08FF8667070BD012102200AF06A
:101A40008CFE284606F07CF805F084F801206070D2
:101A500070BDBDE8704005F07DB8BDE87040022162
:101A600003200AF07ABE0000A822002080841E0015
:101A7000034800224FF4A4710068FFF799BE0000EC
:101A800054DA02002DE9F0430546007D93B00E467E
:101A90000024A0B107949DF81C0020F00F00401C0A
:101AA00020F0F00010308DF81C00707B8DF81D00C8
:101AB0009DF81E0020F00600801C8DF81E001C21E1
:101AC0006846FDF708FC9DF8000040F002008DF824
:101AD0000000297D11B140F0100001E020F010005D
:101AE0008DF80000019403940494287D00B107A8A8
:101AF000CDE9050401278DF8427042F61920ADF8B2
:101B000040000D94B07B8DF83400F07B8DF83500EB
:101B10009DF83600142120F00600801C20F01900EA
:101B20008DF83600307B8DF8440008A8FDF7D3FB14
:101B30000DF140080DF13409ADF8287011A8CDE978
:101B40000889ADF82A40ADF82C700C90A888AB1D20
:101B500008AA6946A2DF002838D1B06898B38DF88A
:101B6000427042F60810ADF840000D94307C8DF8BC
:101B700034009DF8350020F0FF008DF835009DF809
:101B8000360020F00600801C20F019008DF8360089
:101B90000EA8B16800F0D7FF0646142108A8FDF78B
:101BA0009AFBADF828600EA8CDE90889ADF82A4067
:101BB000ADF82C600C90E88805F10E0208A9A3DFAF
:101BC000002803D101E0FFE7EC81002013B0BDE85D
:101BD000F083000002480178024800F039BA0000A2
:101BE000A822002080260020F0B50C4693B01F21CB
:101BF0000726ADF80010ADF80410002750B1C178E9
:101C000049070DD56A4602A9FFF7D1FA002808D185
:101C100002AD02E00025ADF800706CB1E07810B1C3
:101C2000304613B0F0BD01AA0AA92046FFF7BFFA5B
:101C30000028F6D10AAA02E00022ADF80470BDF82F
:101C40000400C3B2BDF80000C1B2284672DFE8E765
:101C5000FFF7E0BC2DE9F0471F46DDF82080134672
:101C60008946040043D0EBB3404D01200026687044
:101C70002E71202219463E48FDF714FB6E71C5E90E
:101C800004784FF6FF706881AE613948AE83AE7755
:101C90003C212030FDF71FFB3548217820300170B2
:101CA000A1788170E178C170617841703049D4E9E0
:101CB0000423C1E90C23D4E90223C1E90A23D4E9AE
:101CC0000623C1E90E23616AE1B100F13C0100F194
:101CD000480241628A60636A1B880B80616A436ABA
:101CE000898800E003E099800021436A07E00E2024
:101CF000BDE8F087656AAD686D5C5554491C9D88E8
:101D00008D42F7D8A16AD9B1194A9432A2F10C01D7
:101D10008A608162A36A9B888B80A16A836A098832
:101D200019800021836A04E0A56AAD686D5C555492
:101D3000491C9D888D42F7D894F82C1080F82C10FF
:101D4000216A49B109490C310162226A52884A80EC
:101D5000216A026A09881180616801B141604946BF
:101D6000BDE8F04702482030FFF73EBF4821002081
:101D7000A827002010B50188184C102916D0112969
:101D80001AD01B2911D1007A00280ED114A10320EA
:101D900006F0C6FB20790521401CB0FBF1F201FBE7
:101DA000120000F077F8020011D110BDC17B0129AB
:101DB000FBD18088608110BD0021E171808861893C
:101DC0008842F8D1012000F065F80028F3D061695D
:101DD0000029F0D0BDE8104008470000482100204D
:101DE0003A494E464F3A202D2D2D2D202074696DF5
:101DF000656F757420726574203D2025640D0A009E
:101E000010B5022801D0032810D1094CA078002871
:101E10000CD00020A070207900F03CF8002805D0FC
:101E20006169002902D0BDE81040084710BD0000DC
:101E30004821002007498A794AB100228A71026844
:101E40008A6182888A838079887700207047082099
:101E5000704700004821002010B574DF0B4C0120B2
:101E60000B49E071002060720620C870002108480C
:101E7000FFF7BAFE002807D1207900F00BF810B167
:101E8000616901B18847002010BD00004821002091
:101E9000C82700202DE9F0414E4C804686B060787E
:101EA00048B184F8048004A803F084F9049801265A
:101EB00028B1A6708AE0082006B0BDE8F0810025B0
:101EC000A561454FA583A577787810B120790128C1
:101ED00006D0B878B8B12079012801D0022812D1F3
:101EE000216919B1A6710820884700E0A571207802
:101EF000401CC0B220701E2805D13849032006F0CE
:101F00000BFB09F0A9FF424635A1032006F008FBB0
:101F10004046FFF70DFA2071024631A1032006F07A
:101F2000FFFA216941B12079032801D0042803D1A7
:101F3000387808B1E079B8B125720095029501951D
:101F400003958DF800508DF80850424624A10320D7
:101F500006F0E6FA1F4821791830052925D2DFE876
:101F600001F03708111D210065722672072088478D
:101F7000E3E7E67001908DF80060ADF80C50ADF825
:101F80000A5014E00221E17001908DF80060B889D8
:101F9000ADF80C003889ADF80A0008E0684609F091
:101FA00009FF02E0684609F029FF207928B161792C
:101FB000684673DF00287FF47FAFE27812A1032028
:101FC00006F0AEFA216909B1E0788847002073E78E
:101FD000E570F2E748210020A827002088DD0200F4
:101FE0003A494E464F3A616476657274697320735C
:101FF00074617274206D6F64652073746172743DD6
:102000003D2025640D0A00003A494E464F3A61646E
:10201000766572746973207374617274206D6F6475
:102020006520656E643D3D2025640D0A00000000BA
:102030000648027A3AB100220272194300D0012107
:10204000417200207047082070470000482100209E
:1020500073B586B0040034D0217C9DF81C2000208C
:1020600091422CD0002501260095ADF8006007A80C
:10207000ADF802500190E188608A6A46A4DF00282A
:102080001DD19DF81C002074608AA0F57F41FF39A6
:1020900019D0207DB8B10295039504950595E08887
:1020A000ADF80800BDF80200ADF80C0001988DF8FD
:1020B0000A60CDF810D00590608A02A9A6DF08B0AA
:1020C00070BD0E20FBE70820F9E738B50D46040087
:1020D0001BD0D5B1286820604FF6FF706082287948
:1020E0002075FF20207401208DF8020041F60F00BA
:1020F000ADF80000221D69460120A0DF002803D1B1
:1021000029462046FFF7BEFC38BD0E2038BD38B545
:1021100004000D4619D0002D17D0288810280FD0A4
:1021200011280FD0502810D10846217DE9B130F890
:10213000062F61898A4218D14189022906D014E00C
:10214000888801E04FF6FF70608238BD216861B178
:102150000C3000F0F4FC08B1002000E001208DF804
:102160000000226820466946904729462046BDE87F
:10217000384002F0A7BA000070B5054601461C229F
:102180000F48FDF78FF80F4C00262670286830B1F5
:10219000016861604068A060201D7ADF02E00948A4
:1021A000001D7BDF00280AD14FF6FF70608066704B
:1021B000BDE87040044A00210448FFF7BDBA70BD75
:1021C0007C2800206821002035D4020078D9020044
:1021D00070B5224C068800231F49E289102E15D0C5
:1021E0001F4D112E1CD0122E29D0502E17D130F891
:1021F000061F914213D14189022910D10C3000F001
:102200009EFC88B1BDE8704002F0D2B884884C8052
:102210000469CC60406908614B70002AF2D070BD3F
:102220004FF6FF7048804B702868FFF705FB0028C9
:10223000F5D0A1690029F2D0BDE870400847826856
:10224000CA60C06808610448064A0C3001881180E1
:10225000054940880880D5E7682100207C280020B7
:1022600078D902002A2100202C21002002494A6C42
:10227000091D09F05DB900009828002002460248B7
:10228000016D001D09F041B998280020024602485E
:10229000416D001D09F039B9982800202DE9F0475B
:1022A000044603883F480122A4B000F1480A102BDD
:1022B00009D0112B54D01A2B70D1217AB2EB111FF7
:1022C00053D2012352E0D0E911218A430546011D72
:1022D00012A809F02DF9442212A901A8FCF7E2FF87
:1022E000DFF8C0900026374609F144090DF10408D3
:1022F0000AE000BF08EB46001D2283884946281DDE
:10230000009709F0C7F8761C0198B042F2D8686CC3
:10231000A688C04309F0E0F8A0F57F41FF3917D047
:1023200005EB40000123868032465146281D09F006
:1023300024F9012332464946281D09F01EF9E07BA5
:1023400002280BD000231749A2884C31281D20E019
:1023500024B00420BDE8F047FFF75CB90123F2E7A1
:102360000023A2885146001D13E000230D490546B5
:10237000A2885031001D09F000F9207A0221B1EB4A
:10238000101F01D2012300E000230649A288543126
:10239000281D24B0BDE8F04709F0EFB824B0BDE82F
:1023A000F08700009828002070B50A4E05460024EA
:1023B0002A46301D716C09F0A8F840B12A46301D3C
:1023C000F16C09F0A2F808B1022400E001242046D3
:1023D00070BD00009828002010B5002420460BF0A6
:1023E00059F828B1641CE4B2182CF7D3182010BD9A
:1023F00003480122A240016811430160204610BD3C
:102400009828002010B504460BF044F8002803D0AB
:10241000024800EB8400806D10BD00009828002069
:1024200070B505460C4608460BF034F8002809D074
:1024300005482A4600EB8401001D896DBDE8704007
:1024400009F063B870BD00009828002070B50646FA
:1024500015460C4608460BF01DF800280AD0064821
:102460002B4600EB84013246BDE87040001D583118
:1024700009F083B870BD0000982800207CB505469F
:1024800008880C460930904201D90C207CBD684672
:102490006DDF0028FAD121880820685420881B218C
:1024A000401C80B2208029542088401C80B22080AB
:1024B0002844DDF801100160BDF8051081802088F6
:1024C000801D80B220809DF80010490800D00121B5
:1024D00029542088401C208000207CBD08780028DA
:1024E00009D0012805D0022801D005A104E00EA1E1
:1024F00002E019A100E024A1032006F00DB80000BD
:102500004150503A494E464F3A556E6B6E6F776E5A
:10251000206576656E742066726F6D20626C655FF3
:102520006466752E0D0A00004150503A494E464FE0
:102530003A496E6469636174696F6E20666F7220D8
:10254000424C455F4446552069732064697361625B
:102550006C65642E0D0A00004150503A494E464FBA
:102560003A496E6469636174696F6E20666F7220A8
:10257000424C455F44465520697320656E61626C2C
:1025800065642E0D0A0000004150503A494E464FF6
:102590003A44657669636520697320726571756573
:1025A0007374656420746F20656E74657220626F49
:1025B0006F746C6F61646572206D6F6465210D0AC4
:1025C0000000000030B5154B0D4604000FCB85B060
:1025D0008DE80F0020D0FDB14FF6FF70A080286875
:1025E000206100202075A07301208DF812004FF6A5
:1025F0005960ADF81000A21C04A90120A0DF00283A
:1026000008D12146684662DF002803D129462046CA
:1026100001F0EFFC05B030BD0E20FBE744DA02000C
:10262000002810D000290ED00A88502A31D00BDCA7
:10263000102A16D0112A06D1828889888A4202D1AE
:102640004FF6FF7181807047512A0CD0532AFAD17E
:10265000C988C2889142F6D1007D0028F3D001F0EC
:1026600023B88988EEE78A8883889A42EBD111F8EB
:10267000062F022AE7D14A88C3889A42E3D10A7A10
:10268000042AE0D0062ADED0052ADCD0891C06F018
:1026900067BA06F011BD00007FB5044601208DF831
:1026A000060041F60A00ADF80400454A01A90120E0
:1026B000A0DF00287ED1228804F13C0552B14048B9
:1026C0002B46801C009042F62920616801F038FDFD
:1026D000002873D1228952B139482B460A30009024
:1026E00042F62420E16801F02BFD002866D1228A01
:1026F00052B133482B461230009042F625206169D2
:1027000001F01EFD002859D1228B52B12C482B46D6
:102710001A30009042F62720E16901F011FD0028EF
:102720004CD1228C52B126482B462230009042F6E2
:102730002620616A01F004FD00283FD1228D52B1AC
:102740001F482B462A30009042F62820E16A01F00B
:10275000F7FC002832D1216B71B102A80AF053F8BE
:1027600017482B4632300090082202A942F6232057
:1027700001F0E6FC002821D1606B58B110492B46CE
:102780003A3100910279016842F62A2001F0D8FC22
:10279000002813D1A16B81B102A807F0DFFF084820
:1027A0002B4642300090072202A942F6502001F049
:1027B000C7FC00E002E0002800D1002004B070BD9A
:1027C000D621002010B504460088572808D11748A4
:1027D000C17909B1C07818B101F046FE01F03AFEA6
:1027E0002046FFF75BFD204607F08EFD204601F0F6
:1027F00049F8204606F046F82046FFF7BBFA204687
:10280000FFF7E6FC21460A4800F03DF92146094859
:10281000FFF77DFC074821465430FFF701FF2146B2
:102820000448BDE81040183005F00CB8D01F002057
:102830000825002080260020F0B5054687B0164602
:10284000B5F87641DDE90C20A4F57F47FF3F2FD096
:10285000D41CA7B2ADF80070082F26D88DF814103C
:102860008DF815608DF8163005AE1AB10146F01CD2
:10287000FCF718FD00200190029003900490B5F839
:102880005E11ADF8041001218DF80610ADF80800B6
:102890006846CDE90306B5F8760101A9A6DF002850
:1028A00004D1BDF80010A14200D00C2007B0F0BD4B
:1028B0000820FBE7F0B50546887A85B00C460A2863
:1028C00005D8207C0A2802D8207E0A2802D90720B1
:1028D00005B0F0BD2068286060686860A07AA874C0
:1028E000207C85F87800207E85F8DE004FF6FF70AA
:1028F000A5F8760101208DF80E0041F61200ADF822
:102900000C0005F1080203A90120A0DF0028DFD197
:10291000002609E0A06B6A4630F816102889A1DF6E
:102920000028D5D1761CF6B294F83600B042F1D822
:10293000207A002708B9607A30B104F13C012846BA
:1029400007F026FF0028C3D12146284603F004FFE4
:102950000028BDD12146284606F034FC0028B7D116
:10296000207E30B3E06920B300261FE0E0690497C1
:1029700000EBC6039DF8100006EB860140F00A004C
:102980008DF8100005EB4100D979E03001F001022B
:10299000191D0091CDE9012033F8022B04A9284626
:1029A00008F034F9002893D1761CF6B2207EB042AC
:1029B000DCD82146284608F0C2F9002888D1207AC0
:1029C00090B105F5A770009004F14303082242F688
:1029D0002221284600F0BCFD002898D12146284637
:1029E00000F01EFE002892D1607A60B105F5AF704C
:1029F000009004F14003082242F63321284600F0FB
:102A0000A7FD00288DD12146284603F029F800288B
:102A100087D104F13E01284602F0DDFF58E730B5CA
:102A20001446827C85B08A422BD901EB8101B0F833
:102A3000762100EB41011431A2F57F45FF3D1ED008
:102A40000022ADF80040019202920392049209889C
:102A5000ADF8041001218DF80610ADF80820694684
:102A6000CDE90313B0F8760101A9A6DF002804D14F
:102A7000BDF80010A14200D00C2005B030BD0820E8
:102A8000FBE70720F9E730B50446088887B010282F
:102A900020D011283BD050283ED0512818D10D46C7
:102AA00011F8060F012813D1498801AA204608F021
:102AB000E5F900280CD021682046002908D007211C
:102AC0008DF80810019906950391026802A99047B4
:102AD00007B030BD8888A4F8760160890028F7D057
:102AE000012000210091ADF800008DF8080002A837
:102AF000ADF8021001906189B4F876016A46A4DF4E
:102B00000028E5D061680029E2D08847E0E74FF669
:102B1000FF70A4F87601DBE707B02046BDE830403F
:102B200006F04CBA70B504460D460846FCF7DEFBCD
:102B30002080656070BD0078C0F340007047007869
:102B400000F0010070470A78027049784170022055
:102B50007047000030B5234885B0234B406A04908D
:102B60005022224904A809F021FD08B1FEF752FDC8
:102B700000246846009409F065FC08B1FEF74AFDA0
:102B800001250194029403948DF8045001A928466C
:102B9000009A69DF08B1FEF73DFD01948DF80450FD
:102BA0008DF80540029403948DF8064001A9402059
:102BB000009A69DF08B1FEF72DFD684609F056FC62
:102BC00008B1FEF727FD0A4809F046FC08B1FEF7F8
:102BD00021FD084809F022FD002801D0FEF71AFD6A
:102BE00005B030BDE8D8020099C5020008240020D5
:102BF000C5270200F5C7020038B500248DF8004053
:102C000001236A4621466820FCF7D0FD9DF800208C
:102C10000DA1032005F084FC03208DF80000112293
:102C200040216820FCF7DAFD8DF8004001236A4658
:102C300003216820FCF7BAFD9DF800200DA10320B8
:102C400005F06EFC38BD00004150503A494E464FE9
:102C50003A2D2D2D2D2D2D2D2D2D2D2D626D6731E4
:102C60003630207265616420696420307825780DE3
:102C70000A0000004150503A494E464F3A2D2D2D42
:102C80002D2D2D2D2D2D2D2D626D6731363020727D
:102C90006561642030783663205B307825785D0D7F
:102CA0000A0000003EB500250195029502F086F964
:102CB00001A802F021F80298000C2DD01A4C0198BE
:102CC0001AA1A08501980014E08502982086DDE90C
:102CD0000132032005F02BFCB4F92C2002F1640032
:102CE000C8280BD8B4F92E3003F16400C82805D8E1
:102CF000B4F9300000F16401C82907D9A585E5853C
:102D000025861749032005F007FC3EBD009015A15C
:102D1000032005F014FC3EBDDDE901321EA10320B5
:102D200005F005FC3EBD0000D01F00204150503A88
:102D3000494E464F3A6779726F206F6666736574C5
:102D40002072656164206F6B2021212020685B3038
:102D50007825785D20206C5B307825785D0D0A0041
:102D6000E8DA02004150503A494E464F3A677972CC
:102D70006F206F6666736574206170706C792020B7
:102D8000785B25645D2020795B25645D207A5B2576
:102D9000645D0D0A000000004150503A494E464F14
:102DA0003A6779726F206F66667365742072656129
:102DB00064206661696C2021212020685B307825C1
:102DC000785D20206C5B307825785D0D0A0000006E
:102DD0002DE9F0438BB000240694079402F0EEF83E
:102DE00006A801F089FF07984FF4FA69000C0BD090
:102DF0000021032009F0B1FC484604F084FD0120C5
:102E000000F0A6FD002873D0DFF8E881264635469D
:102E1000A8F82C40A8F82E40A8F83040A8F8324076
:102E2000A8F83440A8F83640C8F84440C8F84840EC
:102E300088F8144070A1032005F06EFB01210320E7
:102E400009F08BFC40F6B837384604F05CFD0021F1
:102E5000052009F082FC384604F055FD01210520CB
:102E600009F07BFC00270394049403A80594FDF764
:102E700089FABDF910000090BDF90E30BDF90C20A3
:102E800067A1032005F05BFBBDF80C00BDF80E1038
:102E9000304460F30F0601EB264060F31F46BDF897
:102EA0001000BDF81210284460F30F0501EB254017
:102EB00060F31F45142004F026FD7F1CFFB2642F31
:102EC000D1D32FB2351432B216462B465DA1032062
:102ED000009705F034FB642096FBF0F10EB295FBF1
:102EE000F0F197FBF0F00BB21D4607B2324600E05E
:102EF00022E05FA10320009705F021FB06F16400AA
:102F0000C82805D805F16400C82801D8642F1CDD45
:102F100088F8144000211520FCF700FE0121032051
:102F200009F01BFC484604F0EEFC5CA1032005F010
:102F3000F3FA08F0EFFF57E065A1032005F0ECFA83
:102F400008F0E8FF0BB0BDE8F0834FF0010988F806
:102F50001490C6EA05434FF48031C7EA010269A123
:102F60000320C8E9112305F0E2FA02F027F8ADF8D2
:102F70001040039442F22224651007E0684601F0F5
:102F80005BFF6AA10320009A05F0CAFA03AB6A4608
:102F90002146284601F072FF0028EFD001F046FEDE
:102FA0001448D8E911218430C0E9001208900220A9
:102FB000ADF8240008A8ADF80C500490ADF80E4010
:102FC000ADF8149003A9684601F09FFF20B960A1F5
:102FD0000320009A05F0A4FA00211520FCF79EFDBD
:102FE0000321052009F0B9FB62A1032005F094FA42
:102FF000A8E70000D01F00204150503A494E464FEC
:103000003A73656E736F722063616C69627261748A
:103010006520737461727420212121200D0A000043
:103020004150503A494E464F3A6779726F206F6669
:1030300066736574205B25645D5B25645D5B256458
:103040005D0D0A004150503A494E464F3A67797239
:103050006F206F6666736574203130302073756D34
:103060005B25645D5B25645D5B25645D0D0A000086
:103070004150503A494E464F3A6779726F206F6619
:10308000667365742031303020617667205B25647B
:103090005D5B25645D5B25645D0D0A004150503A1F
:1030A000494E464F3A73656E736F722063616C6967
:1030B0006272617465206661696C202C696E746F40
:1030C00020736C65657020212121200D0A0000000D
:1030D0004150503A494E464F3A68617665642061E6
:1030E00070706C79206F6666736574206E6F7420E3
:1030F0006170706C7920746869732074696D650DF6
:103100000A0000004150503A494E464F3A677972E2
:103110006F206F666673657420685B307825785D14
:103120002D2D6C5B307825785D0D0A004150503AAA
:10313000494E464F3A44656C657465642072656318
:103140006F72642049443A202564200D0A00000073
:103150004150503A494E464F3A57726974696E670A
:10316000205265636F7264204944203D202564200D
:103170000D0A00004150503A494E464F3A73656E71
:10318000736F722063616C69627261746520656E31
:103190006420212121200D0A000000004FF47A71E3
:1031A000484304F087BC10B5FCF700FB002010BDBD
:1031B00010B51278FCF712FB002010BD7CB5002181
:1031C0000C4C8DF800108DF804100146606001234E
:1031D0008D6840786A460021A847616805469DF8D9
:1031E00000000870012201A96C2000F09DF928441C
:1031F00040B27CBD882200207CB5044600200090AF
:10320000019011484068E0B14578062386686A4617
:1032100012212846B0479DF800109DF8012041EA90
:10322000022121809DF802109DF8032041EA02212D
:1032300061809DF804109DF8052041EA0221A180DB
:103240007CBD6FF07E007CBD882200207CB50446EA
:1032500000200090019011484068E0B145780623B5
:1032600086686A460C212846B0479DF800109DF8F4
:10327000012041EA022121809DF802109DF80320DF
:1032800041EA022161809DF804109DF8052041EA81
:103290000221A1807CBD6FF07E007CBD88220020D1
:1032A00010B5112000F0BEF8054C1E20216988479A
:1032B000152000F0B7F821691E20884710BD0000D6
:1032C00078340020F8B50546124C00208DF8000037
:1032D0006068C8B1072D1AD84678012387686A4606
:1032E00040213046B84700280DD19DF80000012349
:1032F00065F306108DF8000061686A4648784C68EE
:103300004021A04740B2F8BD6FF07E00F8BD6FF0DD
:103310000100F8BD88220020F8B504462B4E00209D
:103320008DF8000070680D464FF0FF3720B1281F60
:10333000062804D8012007E06FF07E00F8BD681E63
:10334000022800D91DB9002000F042F80746611E8E
:10335000621F6FF001000B2DF0D2DFE805F01B1BA0
:103360001B1B06090C0F12151800092914D9F8BDEA
:10337000082911D9F8BD07290ED9F8BD06290BD99E
:10338000F8BD052908D9F8BD042905D9F8BD0329D8
:1033900002D9F8BD072AFCD8716801236A4648782B
:1033A0008D684021A847384440B20028F1D19DF8EB
:1033B0000000012364F303008DF8000071686A4681
:1033C00048784C684021A04740B2F8BD88220020D0
:1033D000F8B50546124C00208DF800006068C8B1B1
:1033E000012D1AD84678012387686A464021304665
:1033F000B84700280DD19DF80000012365F3C710E0
:103400008DF8000061686A4648784C684021A04702
:1034100040B2F8BD6FF07E00F8BD6FF00100F8BD5E
:103420008822002031B50648416831B1487801232F
:103430004C686A467E21A04738BD6FF07E0038BDDB
:1034400088220020F8B50546124C00208DF80000B7
:103450006068C8B1032D1AD84678012387686A4688
:1034600042213046B84700280DD19DF800000123C5
:1034700065F305108DF8000061686A4648784C686D
:103480004221A04740B2F8BD6FF07E00F8BD6FF05A
:103490000100F8BD88220020F8B50446184D002030
:1034A0008DF80000686820B30E2C25D224B3012CBF
:1034B00022D0022C20D0032C1ED0042C1CD0052C92
:1034C0001AD04678012387686A4642213046B847B9
:1034D00000280DD19DF80000012364F303008DF84E
:1034E000000069686A4648784C684221A04740B2AB
:1034F000F8BD6FF07E00F8BD6FF00100F8BD000070
:103500008822002010B51020FFF78CFF054C1E20EC
:10351000216988471420FFF785FF21691E2088470D
:1035200010BD000078340020F0B40646074840681B
:1035300040B14578134644680A4631462846A446B9
:10354000F0BC6047F0BC6FF07E007047882200201E
:103550002DE9F0438FB00024DDF8589080460794A1
:103560009DF81C000F4620F00F00401C20F0F000DA
:1035700010308DF81C0018788DF81D009DF81E0085
:103580001D4620F00600801C8DF81E0016461C21EA
:103590006846FBF7A0FE9DF8000040F002008DF8A1
:1035A0000000A978090702D040F0080001E020F0EF
:1035B000080040F010008DF8000007A8CDE9044095
:1035C0000120019403948DF83A000694ADF8387008
:1035D0000D9468788DF83400A8788DF835009DF842
:1035E0003600142120F00600801C20F019008DF810
:1035F000360008A8FBF76FFE0EA808900DA8ADF8DE
:1036000028400990ADF82A40ADF82C600C94B8F829
:1036100008004B4608AA6946A2DF0FB0BDE8F08358
:10362000F0B58FB00E4605461C216846FBF753FEE9
:1036300000249DF80000039440F00E008DF8000077
:10364000012701948DF8367042F6322004940594D7
:103650000694ADF834000C9416F8460F8DF830003F
:1036600070788DF831009DF83200142120F00600AA
:10367000801C20F019008DF8320007A8FBF72BFE04
:103680000DA807900CA8ADF824400890ADF826408E
:10369000ADF828700B94288905F5AB7307AA694625
:1036A000A2DF0FB0F0BD000070B54FF0FF31002079
:1036B0003BDF002835D1B1213ADF002831D111DFBD
:1036C00000282ED14FF01020406913DF002828D1A8
:1036D00001214FF0E0208A05C0F88022D0F80031A7
:1036E0005FF0000001FA00F21A420AD042B202F082
:1036F0001F0501FA05F45209920002F1E022C2F816
:103700008041401C2028EDD3BFF34F8F054801684E
:10371000054A01F4E06111430160BFF34F8F00BF20
:10372000FDE770BD0CED00E00400FA050149085CFE
:103730007047000048D902000649095C4FF0A040DC
:10374000D0F81005C84010F0010000D0012080F032
:103750000100704748D9020007490B5C4FF0A041B7
:10376000D1F804250120984020EA0203C1F8083569
:103770001040C1F80C05704744D902000249085CAA
:10378000012104F05FBD000044D902000249085C39
:10379000002104F057BD000044D902000649095C2D
:1037A0004FF0A040D0F80405C84010F0010000D050
:1037B000012080F00100704744D902007CB500244C
:1037C000084E25460122305D0095002311460195E3
:1037D00004F0E0FC641C042CF4D3BDE87C4000F051
:1037E00003B8000044D9020010B500242046FFF7BA
:1037F000C5FF641C042CF9D310BD10B5002420466D
:10380000FFF7C4FF641C042CF9D310BD10B50246A9
:10381000064B4FF0FF3000215C5C944201D108461A
:1038200010BD491C0429F7D310BD000048D902007F
:1038300070B50C0012494FF0000508601DD0022041
:1038400000F086F890B1012000F082F800282846A8
:1038500007D000F07DF808B1022000E005202070BC
:103860000BE000F075F840B10420F8E7022000F00A
:103870006FF80028F3D00D20F1E7284670BD000056
:1038800040210020054902884868102A04D0112AE6
:1038900001D1401E48607047401CFBE740210020DA
:1038A00010B5022000F090FB08B1062806D10220D6
:1038B00000F08AFB08B1062800D1002010BD0000EE
:1038C0002DE9F0470D468146FFF7A0FF0446042886
:1038D00036D2DFF874801B481C4EA8F10C0725B3C4
:1038E000012D0ED0022D2BD104EB4400304445783D
:1038F000002D25D0B968002922D02846BDE8F04720
:10390000084704EB4401755C0E44717849B10E4AD6
:103910004FF4C031093A8068FDF74AFF08B987F8CB
:103920000390B17808F80410E2E78068FDF784FF9F
:1039300004EB4401314418F804008D78A842D7D034
:10394000BDE8F0874CD902003C2100207C270020F4
:10395000FFF7F2BE2DE9FC5FAA4DA0F1060CA5F120
:10396000700495F901B0227AA178A08C02EA0109CD
:1039700095F902A094F80AE0E17BE37901938B4387
:103980000327E17F4FF6FF76BCF1190F21D2DFE864
:103990000CF01120201A20200D2020205822E82091
:1039A00020202020A74EE620B838E500BDE8FC5FC7
:1039B00008F052BA132176DF09E0002809D0BDE8EB
:1039C000FC5FFDF727BEB04203D1FEF745FA082899
:1039D000F3D1BDE8FC9FB9F1000F01D003214FE006
:1039E000B042F6D0FF208DF800006B460122042182
:1039F0008548FFF714F82F70687840F02000687051
:103A0000E7E7B042E5D0002AE3D100208DF80000BE
:103A10006B46012204217C48FFF701F82F7068787B
:103A200020F020006870A87820F0200007E0B04265
:103A3000CFD02F704BF0200068704AF02000A870A3
:103A4000C7E7B9F1000F20D0522914D0412912D074
:103A5000512912D0422910D04F29BFD04429BDD0BE
:103A600050297AD04329FCD0282901D04529B0D14A
:103A70000121042005E0012100E00321032000E0F2
:103A80000220BDE8FC5F08F068BEB042A1D028204B
:103A90008DF80000019810B145208DF80000BEF1AE
:103AA000000F0AD059A1032004F036FDE079E17B34
:103AB00088438ED10021012037E02BB96B460122CB
:103AC00003215148FEF7ABFF01206073E17F84F8CA
:103AD00020102F706A784139884002436A7078E775
:103AE000B0428DD00120413900FA01F12F704BEA2C
:103AF00001026A7094F82020413A90404AEA00019D
:103B000029E0B0429CD0002A9AD100208DF8000014
:103B1000BEF1000F0CD04AA1032004F0FDFCE079B7
:103B2000E17B88438CD10021084603F0CDFC50E7AF
:103B30002BB96B46012203213348FEF770FF0120A9
:103B400060732F7094F820206978413A9040814347
:103B50006970A9788143A9703BE70AE038E03DE04D
:103B6000FFE743A1032004F0D7FC207AA1780842A4
:103B700001D0012184E7A08CB042B0D0A07958B127
:103B800010206077A07A20B1207CF8B100211320AA
:103B90000AE00121102007E0E07968B11120607788
:103BA000A07A28B100211120BDE8FC5FFBF7B6BF69
:103BB000207C0028F6D0E9E7E07A217C08428ED00C
:103BC000607F102802D01128ECD002E70021E1E745
:103BD000BDE8FC5F2FA1032004F09EBC35A10320AB
:103BE00004F09AFC0021032008F0B7FD4FF4FA60BE
:103BF00003F089FE38A1032004F08EFCBDE8FC5FD1
:103C000008F088B940200020082500204150503A93
:103C1000494E464F3A6B65795F3220707265737317
:103C2000206C6F6E672D2D2D2D2D2D2D2D2D2D2DD5
:103C30002D2D2D2D2D20646F776E0D0A00000000B4
:103C40004150503A494E464F3A6B65795F32207089
:103C500072657373206C6F6E672D2D2D2D2D2D2D9C
:103C60002D2D2D2D2D2D2D2D2D2075700D0A0000A3
:103C70004150503A494E464F3A506F776572206B2B
:103C8000657920444F574E202D2D2D2D20444F5720
:103C90004E0D0A004150503A494E464F3A506F7708
:103CA0006572206B6579205550202D2D2D2D2055C6
:103CB000500D0A004150503A494E464F3A506F77E6
:103CC0006572206B6579204C4F4E47202D2D2D2D90
:103CD000204C4F4E470D0A004150503A494E464F36
:103CE0003A706F77657220206B657920207075734C
:103CF000682020746F20736C65657020212121205D
:103D00000D0A000070B50023042810D20D4D00EB01
:103D10004004012A02D101290CD00022094E00EBF7
:103D20004000304461B1012906D0022906D00723A2
:103D3000184670BD1030C2B22A55F9E74270F7E755
:103D40008270F5E77C270020044A014600201279A2
:103D5000D20702D0084600F05BB87047302100203F
:103D600070B5064625480024C0E90161B0072ED58C
:103D70000025012211462846FFF7C4FF05F11C006B
:103D8000C2B200212846FFF7BDFF05F11800C2B2FC
:103D900002212846FFF7B6FF6D1C0446042D02D20F
:103DA000002CE6D013E094B940F2D7320421144835
:103DB000FDF7C8FB04000AD1FDF7B2FB040006D1F1
:103DC0000F48104A0021001FFDF7B6FC0446F0071B
:103DD00001D0FFF7F3FC74B909480B4A00210C38F5
:103DE000FDF7AAFC040006D10548084A012108385D
:103DF000FDF7A2FC0446204670BD000030210020E3
:103E000058D90200EB3F0200D16B02001B150200E3
:103E10002DE9F05F6A4C054600266078B34618B17C
:103E200084F801B002F0BCFE664F4FF47A694FF49B
:103E3000C87A4FF00108182D62D2DFE805F0AC0C0B
:103E40000C31404D62676B746B74BE7D7D7D7D7DF2
:103E5000ACAFB2B5BEBE0020FFF7A0FC00284FF00B
:103E6000000008D0FFF78AFC022D02D14FF4E16078
:103E700008E0484606E0FFF789FC022D01D1C82082
:103E800000E05046410CC0034FF4FA72801841F133
:103E90000001257052000023FBF7CEF901462AE00D
:103EA0000020FFF77BFC00284FF0000004D0FFF754
:103EB00065FC4FF44870E5E7FFF768FCDFE700209A
:103EC000FFF76CFC00284FF0000002D0FFF756FC13
:103ED000CFE7FFF75BFCD4E70020FFF75FFC00288B
:103EE0004FF0000002D0FFF749FC01E0FFF74EFC65
:103EF000257041F69A1100223868FDF759FC0646F4
:103F000046E00020FFF728FC257008E0002051E083
:103F100025703DE084F801800120FFF71DFC0022A0
:103F200040F6CD41E8E784F801800120FFF714FC5A
:103F300000224FF48041DFE77868FDF77DFC0646FC
:103F4000D5F1110000D02EB10220FFF717FC84F844
:103F500002B01DE0012816D980B2C8214843C1171C
:103F6000C90341EA5041C0034FF4FA72801841F18D
:103F7000000152000023FBF75FF901460022786838
:103F8000FDF716FC06460220FFF700FC84F80280CD
:103F90003046BDE8F09F02F003FEB9E702F000FEF4
:103FA000B4E702F0FDFD04E002F0FAFD0020FFF7A7
:103FB000EDFB0120FFF7EAFBAAE7FFF71EFCA7E7EE
:103FC000302100204CD9020010B5FFF7AFFB0321D0
:103FD00004F004F9002010BD002901DA0020704728
:103FE0000268114401600120704700780221FFF748
:103FF00067BC30B58FB005461C2101A8FBF76BF9F3
:104000000024142109A80894FBF765F99DF8200005
:10401000009420F00F00401C20F0F00010308DF8CC
:1040200020009DF82100029420F00F00401C20F099
:10403000F00010308DF821009DF82200049420F04B
:104040000600801C8DF822009DF8040009AA40F0AB
:1040500028008DF8040008A8CDE9054007942878C9
:104060008DF83A000320ADF838009DF80000ADF857
:104070002C4020F00F00401C20F0F00010308DF894
:1040800000009DF80100ADF82E4020F00F00401C0C
:1040900020F0F00010308DF801009DF802000D9422
:1040A00020F00600801C20F0080040F011008DF880
:1040B00002000EA809901720CDF828D0ADF83000E6
:1040C0006888AB1D01A9A2DF0FB030BD05494FF0D4
:1040D000FF32082841F8202002D3084480F8482005
:1040E00070470000202E0020F0B54FF0FF3512B1D0
:1040F0000023082601E008230C260C4C05E000BF35
:1041000054F823707F1C04D05B1CB342F8D32846BC
:10411000F0BD26185DB286F8305044F82310002A0E
:10412000F5D1E11881F84800F1E70000202E0020C9
:104130000249084490F9300070470000202E00200A
:104140002DE9F0438FB01E46DDF8589015460F005C
:10415000804602D10020FDF75DFA15B90020FDF779
:1041600059FA1C216846FBF7B6F800249DF80000B8
:10417000039440F002008DF80000012001948DF8B6
:104180003600049405940694ADF834800C9430788D
:104190008DF8300070788DF831009DF832001421D0
:1041A00020F00600801C20F019008DF8320007A8CE
:1041B000FBF791F80DA807900CA808900748ADF8F8
:1041C0002450ADF82640ADF828500B974B4607AA6F
:1041D00069460088A2DF0FB0BDE8F083D621002039
:1041E00038B10549814204D80449814201D90120EE
:1041F0007047002070470000E4220020F4220020D5
:10420000044A0168914201D0083101E0014938397E
:10421000016070472C31002070B504464FF6FF75E1
:104220000A462846AC4208D14FF480742146104615
:1042300006F01CF8A04209D070BDFF2CFCD8214626
:10424000104606F006F808B1204670BD284670BD3D
:1042500070B5084C050009D010342168002907D03A
:1042600008682060496828468847F6E70834F4E77C
:1042700070BD00000C2E00202DE9F05F264841683B
:10428000F1B3DFF898B00E688146DBF8004087682C
:104290008078E11B21F07F45ED1CB0B9DFF880800C
:1042A0004FF48030C8F84403C8F804031120FBF72A
:1042B00099FC1120FBF7ACFC4FF0010AC8F800A0F4
:1042C0002F2003F0B1FB89F802A0B54200D2354699
:1042D000124BE8193C3320F07F401860DBF80010E7
:1042E0005A46091B21F07F41001B20F07F40C91C6A
:1042F00081420FD9106818602F2003F095FB00E071
:1043000004E0BDE8F05F1120FBF798BCBDE8F05F6A
:1043100006F0F6BDBDE8F09F4422002004150140E0
:10432000001001402DE9F04117880646B81D1446DB
:104330000D46984202D90C20BDE8F0813188072251
:1043400006290AD34FF4486C4FF6FF73614501D933
:10435000994202D17088062801D21046ECE76045E8
:1043600001D99842F9D1994203D0984201D08142B3
:10437000F3D80520E85520881221401C80B2208007
:1043800029542088401C80B220804119308809F0CF
:104390004CF82188084480B220804119708809F0C7
:1043A00044F82188084420800020C5E7FDF732B991
:1043B000F8B5134802F060FB114D0026114C0C3D7E
:1043C00030B16169B9B101208DF80000684611E093
:1043D000287820B1616971B18DF80060F6E76878DE
:1043E00058B1A168084800220068FDF7E1F910B152
:1043F000A16901B188472E70F8BD6168F2E700003D
:10440000742100207C28002078D9020010B504A176
:10441000032004F081F8BDE8104007F07BBD0000E8
:104420004150503A494E464F3A6E6F206F70657258
:104430006174696F6E20746F206C6F6E6720676F98
:10444000746F20736C656570206E6F77202E2E2E32
:104450002E0D0A00034800224FF470014069FDF759
:10446000A7B90000E8D8020001484069FDF7E4B9A7
:10447000E8D8020030B58FB0002405460C949DF8B2
:1044800030000D9420F00F00401C20F0F0001030A0
:104490008DF830009DF83100142120F00F00401CF1
:1044A00020F0F00010308DF831009DF8320020F03F
:1044B0000600801C8DF832009DF8340020F00F00BB
:1044C000401C20F0F00010308DF834009DF83500CD
:1044D00020F00F00401C20F0F00010308DF8350067
:1044E0009DF8360020F00600801C8DF8360007A8E5
:1044F000FAF7F1FE01208DF83A0041F22450ADF8B0
:1045000038000EA807900DA808901420ADF82400DC
:10451000ADF828000B480B90ADF826401C216846EA
:10452000FAF7D9FE9DF80000074B40F01A008DF80D
:1045300000000CA80590A88807AA6946A2DF0FB062
:1045400030BD0000F4230020642000202DE9FF434B
:10455000464C81460025A08C87B0A0F57F411746C8
:10456000FF397FD0002603964FF0010804F1940034
:1045700004968DF80E800088ADF80C000AA8CDE9ED
:10458000050703A94846A6DF97F900200546032A38
:1045900001D0042A0FD1A06D00F10101A16597F9A6
:1045A00002100091CDE9015097F901305DB1304919
:1045B000032003F0CDFFE06D401CE065F5B1797B91
:1045C000012902D013E02B49F2E784F81680616ECE
:1045D0004A1C62660091216E2A46401A00EB800058
:1045E00043002549032003F0AAFFE06D206697F9F8
:1045F0000000032809D0042805D033E038780128CA
:1046000030D1A6752EE008F07BFA322003F07BF95A
:1046100003A94846A6DF05461328024607D017A17E
:10462000032003F07DFF3878042802D01AE02349E4
:10463000F6E708F055FA2248C18842898A1A1921FA
:1046400092FBF1F26287228782880389D21A92FB59
:10465000F1F1E187A187407820B9E6646687268773
:10466000E687A6870BB02846BDE8F083D01F002060
:1046700010DC020060DC020080DB02004150503A96
:10468000494E464F3A2D2D2D2D2D202D2D2D2D2DE2
:104690002D2D2D2D2D2D2D2D2D2D2D2D2D2D2D2D4A
:1046A0002D206572726F725F636F6465207265732F
:1046B000656E64202564206F6B0D0A00F4DC020037
:1046C000EC26002070B58C1D0A8A2BA1032003F074
:1046D00027FF324920880988884229D1002506E031
:1046E00060192FA1027B032003F01AFF6D1C608963
:1046F000A842F5DC207B33281BD032281CD054285C
:104700001CD04D281DD043281ED0522822D0472827
:1047100023D0422824D0214901229439492825D088
:104720000023692824D0572824D0772800D14B743F
:1047300070BD0021112009E0002103E000211220BA
:1047400004E00121102001E000211420BDE87040A8
:10475000FBF7E4B90021032004E00021052001E07B
:1047600000210420BDE8704007F0F7BF8A7470BDD7
:104770008B7470BD4A7470BD4150503A494E464FDB
:104780003A705F6576745F77726974652D3E6C650B
:104790006E205B25645D0D0A00000000642000208F
:1047A0004150503A494E464F3A705F6576745F7794
:1047B000726974652D3E64617461205B25635D0DD3
:1047C0000A0000007FB50C4610B1012004B070BD96
:1047D0002079002638B141F61D5501281BD002284A
:1047E00026D00F20F2E702960396E0680190694612
:1047F00001A806F03DF950B102988188E180008857
:104800002081BDF80010029806F0A6F900E00A2009
:1048100002212171DAE70A4B6A460021A01D06F049
:10482000E3F838B1064908398E60CE600A28CDD148
:104830002846CBE702488188019806F08DF9F5E714
:10484000602200202DE9F04100260125144C22E0D1
:104850006068226900EBC607387805FA00F111425A
:1048600017D08A43226103F0BFFA02463878E36822
:1048700005FA00F1194002FA00F3994209D179785A
:10488000012901D0012100E0002151407A6802B1E4
:104890009047761CF6B220788642D9D3BDE8F081E5
:1048A0002022002010B5FEF72DFE0021084607F05B
:1048B00054FF0021BDE810400B2003F0B8BC0000FD
:1048C00000B593B002208DF8400041F61510ADF808
:1048D00042004EF6EE60ADF844000120ADF846000F
:1048E00040216846FAF7F7FC0FA16846FEF71AF96F
:1048F00010A80E909DF83C0020F00F00401C20F006
:10490000F00020308DF83C009DF83D0020F0FF00C5
:104910008DF83D006846FDF7BFFE002801D0FCF78A
:1049200079FE13B000BD000077616E6763713332AA
:10493000375F76312E302E33000000000E4910B55F
:104940000A784C780023A24212D0521CD2B20A70CC
:10495000022A00D10B70084A0B780C3252F823203F
:1049600002608868104420F07F408860012010BDFC
:104970000360002010BD0000442200203EB5094D18
:1049800038CD8DE83800ADF8041007498DF80620C1
:10499000ADF8020000220978FDF758FD684600F0E6
:1049A0008FF83EBD04DA0200BC21002010B5037868
:1049B0000022072B06D2DFE803F00504060C1C25B5
:1049C0002B000A7010BD01220A7002898A81828838
:1049D00014E002220A7002898A818288CA81C26830
:1049E0008A60007C062802D00020087410BD0120D7
:1049F000FBE703220A70C2888A810289CA81C068E3
:104A0000886010BD04230B70C0888881CA8110BDE6
:104A10000520087010BD000070B5064D0646002444
:104A200055F8241009B130468847641C082CF7D388
:104A300070BD00005C3000200EB5002911D0112996
:104A40000FD0002200920292ADF8020001910D29D0
:104A500008D0862908D009208DF80000684600F0AB
:104A60003DF80EBD0B20F7E70A20F5E7014909687C
:104A7000084700008421002070B5054D064600243B
:104A8000304655F824108847641C022CF8D370BDBA
:104A900094D902002DE9F04107460024064E074D47
:104AA00005E000BF56F8241038468847641CE878B3
:104AB0008442F7DBBDE8F081C02D0020AC2100204E
:104AC00070B5054D06460024304655F82410884739
