:020000040001F9
:10C00000B854002039C5010041C5010043C50100F5
:10C0100045C5010047C5010049C5010000000000F9
:10C020000000000000000000000000004BC50100FF
:10C030004DC50100000000004FC5010051C50100C1
:10C0400053C5010053C501009DCD010053C501003A
:10C0500053C5010053C501005DC6010053C5010071
:10C0600053C5010053C5010053C5010053C501006C
:10C0700053C5010053C5010053C5010053C501005C
:10C0800053C5010009C8010053C5010053C5010093
:10C09000FDCA010053C5010001CB010053C50100D9
:10C0A00053C5010053C5010053C5010053C501002C
:10C0B00053C5010053C5010000000000000000004E
:10C0C00053C5010053C5010053C5010053C501000C
:10C0D00053C5010053C5010053C501000000000015
:10C0E0000000000000000000000000000000000050
:10C0F0000000000000000000000000000000000040
:10C10000000000000000000000000000000000002F
:10C11000000000000000000000000000000000001F
:10C40000DFF80CD000F0FAF8004800474D0B0200AE
:10C41000B8540020401E00BF00BF00BF00BF00BFD7
:10C4200000BF00BF00BF00BF00BF00BF00BF00BF14
:10C4300000BF00BF00BF00BF00BF00BF00BF00BF04
:10C4400000BF00BF00BF00BF00BF00BF00BF00BFF4
:10C4500000BF00BF00BF00BF00BF00BF00BF00BFE4
:10C4600000BF00BF00BF00BF00BF00BF00BF00BFD4
:10C4700000BF00BF00BF00BF00BF00BF00BF00BFC4
:10C4800000BF00BF00BFC5D170470000401E00BF05
:10C4900000BF00BF00BF00BF00BF00BF00BF00BFA4
:10C4A00000BF00BF00BF00BF00BF00BF00BF00BF94
:10C4B00000BF00BF00BF00BF00BF00BF00BF00BF84
:10C4C00000BF00BF00BF00BF00BF00BF00BF00BF74
:10C4D00000BF00BF00BF00BF00BF00BF00BF00BF64
:10C4E00000BF00BF00BF00BF00BF00BF00BF00BF54
:10C4F00000BF00BF00BF00BF00BF00BF00BFC5D16D
:10C5000070470000056885F308884068FF2464B21E
:10C51000EFF30585002D01D1A646004725460646C6
:10C5200021273FBAF0B40024002500260027F0B4EC
:10C53000F92040B2004700000648804706480047FF
:10C54000FEE7FEE7FEE7FEE7FEE7FEE7FEE7FEE7C3
:10C55000FEE7FEE731CB010001C4010010B5431A2C
:10C56000934209D28318881803E010F8011D03F8DC
:10C57000011D521EF9D210BD40EA01039B0703D0F2
:10C5800009E008C9121F08C0042AFAD203E011F812
:10C59000013B00F8013B521EF9D210BDD2B201E0BE
:10C5A00000F8012B491EFBD270470022F6E710B5B8
:10C5B00013460A4604461946FFF7F0FF204610BD11
:10C5C000421C10F8011B0029FBD1801A704730B5BE
:10C5D00004460020034600E05B1C934203D2E05C6B
:10C5E000CD5C401BF8D030BD034611F8012B00F89C
:10C5F000012B002AF9D1184670470000064C074D60
:10C6000006E0E06840F0010394E807009847103422
:10C61000AC42F6D3FFF7F8FEEC2802000C2902002A
:10C6200030B58C1810F8012B12F00F0301D110F85F
:10C63000013B120906D110F8012B03E010F8015B51
:10C6400001F8015B5B1EF9D101E001F8013B521ECC
:10C65000FBD1A142E6D3002030BD00002DE9FC5FF4
:10C660000025DFF83491A8464FF4807601242F4648
:10C67000304604F0C3FC38B1D9F80403204203D09B
:10C68000304604F0B1FC2543361D64007F1CB6B271
:10C69000082FEDD34FF4BE74204604F0AFFC38B140
:10C6A000204604F0A1FC3D4845F00045D0F800804C
:10C6B0003B4E15F0FF0F14D0012700242F420CD061
:10C6C00009EB8401D1F81005D1F81015C0F304204E
:10C6D00056F82420C1F3014190477F00641C082CC8
:10C6E000ECD3002D56DA00200190401E4CE070196A
:10C6F00010F8501F90F9000021F0C004401C38D001
:10C70000012000FA04FA1AEA090F32D04FEA911B0D
:10C71000204602F0ADFA56F82000009010B9BBF1A7
:10C72000030F26D15146BBF1030F02D101980843F4
:10C730000190A00000F1A040D0F800071AEA080F0D
:10C74000C0F3014002D0022802D012E0032810D129
:10C75000BBF1030F07D102281AD00221204604F0B2
:10C7600034FC7F1CFFB2009818B1009A594620464D
:10C7700090476D1C042DBAD3002F0BD007480068DA
:10C78000404507D080460198002781463D46AEE7E8
:10C790000321E3E7BDE8FC9F006000401005005066
:10C7A0004428002000F01F02012191404009800030
:10C7B00000F1E020C0F88012704700F01F02012154
:10C7C00091404009800000F1E020C0F8001170475E
:10C7D00000F01F02012191404009800000F1E0209B
:10C7E000C0F8001270474907090E002806DA00F069
:10C7F0000F0000F1E02080F8141D704700F1E020E8
:10C8000080F800147047000007480021C0F840116C
:10C81000C0F84411C0F84811C0F84C11C0F800111C
:10C82000C0F8041105F0D2BC001001402DE9F0471A
:10C83000114F0446DDF8209038781D46164688468C
:10C8400008B900F0B5FA7869A04211D90A4904EB99
:10C85000440001EBC00134B1C1F84880C1E913655F
:10C860000020886548650020C1F85C90BDE8F0872D
:10C870004FF0FF30FAE70000303400202DE9F04798
:10C88000114F0446DDF8209038781D46164688463C
:10C8900008B900F08DFA3869A04211D90A4904EBB1
:10C8A000440001EBC00134B1C1F81880C1E907654B
:10C8B0000020886248620020C1F82C90BDE8F08713
:10C8C0004FF0FF30FAE700003034002070B5074B1E
:10C8D0000646144618780D4608B900F069FA224653
:10C8E00029463046BDE8704000F002B830340020E0
:10C8F00070B50E46144900EB400001EBC00514462C
:10C90000E86A183520B101280FD0022805D113E0BC
:10C91000284600F081FAA04201D2002411E022460C
:10C920003146284600F09EFB0BE0284600F074FAE2
:10C93000A042F4D20446F2E73146284600F065FBF7
:10C940000446204670BD00003034002070B5054616
:10C950000C460846FFF734FE024621462846BDE84D
:10C960007040FFF7B3BF2DE9F04198B0064607A825
:10C97000029040200025CDE90305CDE905569046FB
:10C980000C4614F8011B002973D0252908D002A8F1
:10C9900000F01CFB05980028F3DA18B0BDE8F08120
:10C9A00000200122217823291ED02B2919D02D29DE
:10C9B00002D0302908D102E040F0010001E040F04F
:10C9C0000200641C002AEDD100222178A1F130037D
:10C9D0000A2B0CD202EB820201EB4202303A641CB9
:10C9E000F3E740F00400ECE740F00800E9E700233B
:10C9F000CFB22E2F0BD114F8011FA1F130070A2F4F
:10CA000005D203EB830301EB4303303BF3E76C29CF
:10CA10000DD068290BD0702954D00BDC252916D0F5
:10CA2000582931D063290CD0642913D114E014F8AB
:10CA3000011BECE7732934D075291BD0782909D163
:10CA400022E0D8F80000011DC8F80010017802A803
:10CA500000F0BCFA641C9DE7D8F800100F1DC8F860
:10CA600000700968CDE900200A2202A800F0E0F970
:10CA7000F0E733E0D8F800100F1DC8F8007009681F
:10CA8000CDE900200A2208E0D8F800100F1DC8F8F0
:10CA900000700968CDE90020102202A800F02CFAED
:10CAA000D8E7D8F80000011DC8F80010076817F88B
:10CAB000011B0029CED002A800F088FA05980028B2
:10CAC000F5DAC7E7D8F80000011DC8F800100168C2
:10CAD0000820CDE9000503461022DEE7059800286E
:10CAE0007FF75BAF049820B1024607A93046FFF7F5
:10CAF000EDFEDDE90410084405904EE705F002BBA9
:10CB0000094810B5406848B1804700280AD0BDE800
:10CB10001040064A4FF4B37100F0CEBCBDE810409F
:10CB200003F062BE10BD0000D8210020942802004E
:10CB300070B58D480023021D0178101D01240629BF
:10CB400007D115782D0704D10578C5F30315032DFA
:10CB500002D0062904D00FE0854E844D75670EE0A3
:10CB600015782D0708D10578C5F30315032D06D0D8
:10CB7000042D04D0052D02D0062909D010E04FF075
:10CB80008055D5F844527B4EC5F34235356002E0FE
:10CB900015782D0704D10578C5F30315032D02D0B0
:10CBA000062906D011E0744D2E6826F080762E609E
:10CBB0000EE015782D0708D10578C5F30315032D70
:10CBC00006D0042D04D0052D02D006290AD011E08C
:10CBD0004FF08045C5F80C31C5F81031654D2D1F5B
:10CBE0002B6002E015782D0704D10578C5F30315F5
:10CBF000032D02D0062905D00CE05E4A03216432E1
:10CC000011600AE015782D0704D10578C5F30315E6
:10CC1000032D02D006290DD06AE0584A0521116083
:10CC2000564978310C60554908310B603F21121D7F
:10CC3000116002E0117809075AD10078C0F303109F
:10CC4000052855D14E4800684E4908604C48001DE3
:10CC50000068091D08604A4808300068091D08601E
:10CC600047480C300068091D0860454810300068CE
:10CC7000091D0860424814300068091D08604048DA
:10CC8000183000683F49203108603D481C3000687A
:10CC9000091D08603A4820300068091D08603848BE
:10CCA00024300068091D0860354828300068091DD7
:10CCB000086033482C300068091D08603048303067
:10CCC00000683049403108602D4834300068091D43
:10CCD00008602B4838300068091D086028483C303F
:10CCE0000068091D0860264840300068091D08607A
:10CCF00021487438016841F470010160BFF34F8F1F
:10CD0000BFF36F8F4FF01021D1F80002002803DB32
:10CD1000D1F80402002822DA1B4A14601B48046878
:10CD2000002CFCD01524C1F800420568002DFCD071
:10CD3000C1F8044201680029FCD013600168002991
:10CD4000FCD0BFF34F8F0C48F0380168104A01F453
:10CD5000E06111430160BFF34F8F00BFFDE70E4953
:10CD60000C48086070BD0000E00F00F00DF0ADBA97
:10CD700000C007403C050040FCED00E010560040BC
:10CD80000404001020C5004004E5014000E4014017
:10CD90000400FA050090D003EC2100200348007F36
:10CDA00008B105F073BB05F0EDBA00009C28002027
:10CDB00010B5124C02202061606111A0A061A4F5A1
:10CDC0008260E0614FF4806020620020A0626062B7
:10CDD0000BA1A164E062A4F11001E16410212165BE
:10CDE000A0656065E06509A1E01DFFF7FDFB08A1F6
:10CDF0002046FFF7F9FB2020A07110BD3034002041
:10CE00005465726D696E616C0000000052545400EC
:10CE100053454747455200000269C1688A4203D81A
:10CE20008068401A104400E0501A401E704700000D
:10CE30002DE9FC5F0E008146DDE90C47C6F10000DC
:10CE400098469346824600D40846012503E000BF79
:10CE500090FBFBF06D1C5845FADAA84500D9454611
:10CE600024B1002E01DB780700D5641EB80702D577
:10CE7000B8F1000F0FD0F8070DD164B1A5420AD266
:10CE800020214846641E00F0A1F8D9F80C000028C3
:10CE9000F3DABDE8FC9FD9F80C000028F9DB002E7E
:10CEA00002DA56462D2102E0780707D52B214846A5
:10CEB00000F08CF8D9F80C000028EADB07F003003A
:10CEC00002280FD1B8F1000F0CD15CB1A54209D2F4
:10CED00030214846641E00F079F8D9F80C0000288B
:10CEE000F3DAD6E7CDE9004743465A46314648468D
:10CEF00000F002F8CDE700002DE9F84F8246DDE9A9
:10CF00000A4B0126984691460D460846374602E0F0
:10CF1000B0FBF9F07F1C4845FAD2B84500D9474626
:10CF20005FEACB7017D1B4B15FEA8B7002D5B8F16C
:10CF3000000F02D0202000900BE03020FBE750468D
:10CF4000641E009900F042F8DAF80C00002838DB83
:10CF50000CB1A742F3D3DAF80C00002831DB00BF94
:10CF6000B8F1010F02D9A8F1010803E0B5FBF6F012
:10CF7000484502D306FB09F6F2E7DFF84C8000BF14
:10CF8000B5FBF6F000FB165518F80010504600F0FF
:10CF90001DF8DAF80C00002803DBB6FBF9F6002ECA
:10CFA000EED15FEACB700CD0002C0AD0A74208D299
:10CFB00020215046641E00F009F8DAF80C00002821
:10CFC000F2DABDE8F88F0000F027020010B5044641
:10CFD000D4E90130421C934205D323681954A2605E
:10CFE000E068401CE060D4E90102824209D1216876
:10CFF0002069FFF76BFCA168884203D04FF0FF3037
:10D00000E06010BD0020A06010BD2DE9F047C468AD
:10D010001746894606464FF000083069A04201D9FC
:10D02000051B02E0B168201A0D1AB0686D1E001BC6
:10D03000A84200D80546BD4200D33D4670682A4646
:10D0400020444946FFF78AFAB0687F1B2C44A84465
:10D05000A944A04200D10024F460002FDDD1404655
:10D06000BDE8F0872DE9F041C668044617468846BA
:10D070008068851B6068BD4206D93044FFF76EFAB0
:10D08000F019E060BDE8F0812A463044FFF766FA07
:10D090007E1B08EB050132466068FFF75FFAE66029
:10D0A000F0E702E008C8121F08C1002AFAD1704751
:10D0B0007047002001E001C1121F002AFBD1704718
:10D0C0002DE9FC5F0025168807461580406B144645
:10D0D0008946A8464FF00C0A11234FF0020B98B175
:10D0E00001784846032E48D380F800B02288521CAD
:10D0F00092B2228083542288521C92B2228009F874
:10D1000002102088401C20803A6BDAB12088494602
:10D1100000F11205B54230D80B5420881023401C72
:10D1200080B220800B542088401C20800F20238850
:10D13000155C401ECD54238840B25B1C2380002820
:10D14000F5DA454697F82E0030B133462246494677
:10D1500003F0BEFB050011D197F82D0030B1324627
:10D160002146484600F01EFF050007D1B87820B3DD
:10D170002088C846001DB04202D95046BDE8FC9F39
:10D18000684679DF0028F9D12188032008F80100DA
:10D1900020881921401C80B2208008F800102088C7
:10D1A000401C80B2208000EB0801BDF8000005F0B3
:10D1B000D9F90146208808442080F878B8B122883F
:10D1C00097F90310D31C4846B342D6D800F802B0F2
:10D1D00022880123521C92B2228083542288521C3E
:10D1E00092B2228009F802102088401C20807868C2
:10D1F000B8B1218890F90020CB1C4846B342BCD876
:10D2000000F801B021880A23491C89B221804354C7
:10D210002188491C89B2218009F801202088401CFE
:10D220002080388950B1CDE900464B4606220221C4
:10D2300007F1080005F009FA05009FD1388A50B1BE
:10D24000CDE900464B460722032107F1100005F007
:10D25000FCF9050092D1388B50B1CDE900464B4620
:10D260001522142107F1180005F0EFF9050085D10A
:10D27000386A30B133462246494601F0CDFE0500FA
:10D28000DBD1786A30B133462246494603F0F0FCE0
:10D290000500D2D197F82C0038B1334622464946D2
:10D2A000384604F0BFFB0500C7D1387838B13346A3
:10D2B00022464946384603F00DFD0500BDD12846FB
:10D2C0005CE710B501220221002001F0EBFA08B161
:10D2D000072810D107220221012001F0E3FA08B14A
:10D2E000072808D100210A22084601F0DBFA08B11C
:10D2F000072800D1002010BD10B598B0382101A832
:10D30000FFF753F902208DF8040001248DF8064040
:10D3100006208DF807000320ADF814000F48069092
:10D3200024210FA8FFF741F94FF496701390B42011
:10D3300014900020014600908DF84840084B0FAA39
:10D3400001A800F027FB20B1064A40F2733100F03B
:10D35000B3F8042077DF18B010BD0000A82000202B
:10D360002D1002001CD90100064800684FF400216E
:10D37000044A8143121D1160111D00F40020086051
:10D38000704700000405005070B50024064D06E00B
:10D390006868012110F8340003F01AFD641C287835
:10D3A0008442F5D3002070BD98210020F8B51546C1
:10D3B0000C460646052A01D20720F8BD03F0EAFD17
:10D3C00018B903F0BDFD0028F7D1104900204E60C8
:10D3D0000C70C1E902500E4D08610DE006EBC4006F
:10D3E0006968009181788DF801100078094A6946D2
:10D3F00003F040FD0028E0D1641EE4B2EED2BDE8A7
:10D40000F840054A0021024800F0C2B898210020E7
:10D41000E82702005D050200E1F101003EB5044687
:10D42000042001901B4802906946204602F0C0F992
:10D4300048B1A0F50041403904D0174A40F28911A3
:10D4400000F03AF83EBD13480C38017BC90718D0EC
:10D450004FF6FF720C218088A7DF90B1A0F54051F4
:10D4600002390ED008280CD0891E0AD0112808D005
:10D4700043F20141884204D0074A4FF4BE7100F0E4
:10D480001BF8204602F04AF90028DBD0024A40F29D
:10D490008111D5E78C2000201CD9010070B506460B
:10D4A00014460D460C2001F01FFA2246294630464C
:10D4B000BDE8704000F00CB80EB5ADF80010CDE935
:10D4C00001206A46002144F20100FFF7E7FF0EBD8C
:10D4D00008B501238DF800309DF80030144B18601A
:10D4E00059609A606FF48041401807D001280FD12D
:10D4F000DA60D86800889861D86807E01A6118690E
:10D500008068586118690088986118694068D86116
:10D51000186858689868D868186958699869D86907
:10D5200072B600BF9DF800000028FBD162B608BDAE
:10D53000502B0020014B1B681847000020280020BA
:10D5400038B50C46074BA268097802EB420253F843
:10D550002250054A126A0092024604F1080023692B
:10D56000A84738BD182B002074210020074910B5AA
:10D570000A7802EB820201EB8201091DFFF7E0FF4E
:10D58000BDE81040042004F087BB0000BC28002048
:10D59000074B9B6823B12AB120B10068037C1BB103
:10D5A000082070470720704741744261002070478F
:10D5B000AC2100202DE9F0478046994614460F46DD
:10D5C00090074FF0000634D11C4D8CB304F0EAF8FC
:10D5D0000320C5F81490287004F11800002107EB0F
:10D5E0004703AC6004EBC102491C1670567097707B
:10D5F000506000EBC3000329F4DBEE606E70AE7088
:10D600001420FFF7CFF806211420FFF7ECF81420C0
:10D61000FFF7D3F80A49C1F8008006211120FFF76F
:10D62000E2F80748001F006828610020BDE8F08785
:10D6300001E00720FAE7AE60FBE70000AC21002024
:10D64000081501402DE9F843DFF870900D461746A4
:10D65000D9F80810044651B34CB3052D02D2072067
:10D66000BDE8F883606910B3607C012821D00026F2
:10D6700004F0B8FFD9F80810804601EBC8006946ED
:10D6800004F0CFFFB8B1012100F8041B0C4910C011
:10D69000096880E8E200D9F8081001EBC8009DF89D
:10D6A000001041701420FFF793F80020D8E70820FD
:10D6B000D6E72E46DCE70420D2E70000AC210020AC
:10D6C00004150140F8B5124E0446B168E1B1DCB171
:10D6D0006069C8B10027277404F084FF0546B0686C
:10D6E000694600EBC50004F09CFF78B1022101708F
:10D6F0004460B0689DF8001000EBC5004170142034
:10D70000FFF766F83846F8BD0820F8BD0420F8BDDC
:10D71000AC21002010B51A4C00224FF48031206853
:10D72000FFF790FF20B1174A40F22621FFF7C4FE11
:10D7300000224FF400416068FFF784FF20B1114AD6
:10D7400040F22921FFF7B8FE002242F26661A0688C
:10D75000FFF778FF20B10B4A4FF40B71FFF7ACFED7
:10D7600000224FF42031E068FFF76CFF002806D05C
:10D77000BDE81040034A40F22F21FFF79DBE10BDC7
:10D78000282702001CD901002DE9F0430546007D41
:10D7900093B00E460024A0B107949DF81C0020F021
:10D7A0000F00401C20F0F00010308DF81C00707B42
:10D7B0008DF81D009DF81E0020F00600801C8DF8DD
:10D7C0001E001C216846FEF7F0FE9DF8000040F0A8
:10D7D00002008DF80000297D11B140F0100001E039
:10D7E00020F010008DF80000019403940494287D2B
:10D7F00000B107A8CDE9050401278DF8427042F673
:10D800001920ADF840000D94B07B8DF83400F07B0A
:10D810008DF835009DF83600142120F00600801C9C
:10D8200020F019008DF83600307B8DF8440008A8F0
:10D83000FEF7BBFE0DF140080DF13409ADF828707C
:10D8400011A8CDE90889ADF82A40ADF82C700C90EC
:10D85000A888AB1D08AA6946A2DF002838D1B068A5
:10D8600098B38DF8427042F60810ADF840000D9460
:10D87000307C8DF834009DF8350020F0FF008DF8E5
:10D8800035009DF8360020F00600801C20F01900BD
:10D890008DF836000EA8B16800F0E4FD06461421AC
:10D8A00008A8FEF782FEADF828600EA8CDE9088929
:10D8B000ADF82A40ADF82C600C90E88805F10E0216
:10D8C00008A9A3DF002803D101E0FFE7EC810020D5
:10D8D00013B0BDE8F083000010B50E490E4804F007
:10D8E00094F8C1B20B48683800F05CFA00280FD0F9
:10D8F00008280DD0A0F54051043909D043F2014168
:10D90000884205D0BDE8104004A2AB21FFF7D4BD8A
:10D9100010BD0000E8240020902000202E2E5C2E58
:10D920002E5C2E2E5C6D61696E2E6300F0B50C4688
:10D9300093B01F210726ADF80010ADF804100027A2
:10D9400050B1C17849070DD56A4602A9FFF7B8FB67
:10D95000002808D102AD02E00025ADF800706CB1DE
:10D96000E07810B1304613B0F0BD01AA0AA92046F4
:10D97000FFF7A6FB0028F6D10AAA02E00022ADF8C4
:10D980000470BDF80400C3B2BDF80000C1B228465F
:10D9900072DFE8E770B50D4604991646040040D0E2
:10D9A000F6B3414800224271C0E9033124223146D6
:10D9B0003E48FEF7D3FD00F0D5F83C493431A1F1E3
:10D9C000100001602031816038215C38FEF7EDFDE8
:10D9D0003648217838380170A1788170E178C170BB
:10D9E00061784170D4E90412C0E90412D4E902124A
:10D9F000C0E90212D4E90612C0E90612616AD1B187
:10DA000000F1AC0100F1B80241628A60636A1B88D0
:10DA10000B80616A436A898899800021436A07E024
:10DA2000FFE70E2070BD666AB668765C5654491CE6
:10DA30009E888E42F7D8A16AD9B11C4AAC32A2F1B5
:10DA40000C018A608162A36A9B888B80A16A836AC9
:10DA5000098819800021836A04E0A66AB668765CAA
:10DA60005654491C9E888E42F7D894F82C1080F8A2
:10DA70002C10216A49B10C4914310162226A528882
:10DA80004A80216A026A09881180616821B10649C9
:10DA9000891D4160616841602946BDE870400348C6
:10DAA0003838FFF743BF0000D4200020EC250020C9
:10DAB00010B502881D4C102A18D00021112A1BD045
:10DAC0001B2A18D1007A002815D16079012820D0AE
:10DAD000022824D0032824D004280CD12171E26824
:10DAE0000846002A07D0BDE810401047817D012973
:10DAF00001D18088208110BD617080882189884291
:10DB0000F9D1012006E021690029F4D0BDE81040D8
:10DB10000847022000F056F80028F4D110BD032079
:10DB2000F8E7032020710420F4E70000D42000204F
:10DB300010B5022801D0032810D1094C2078002804
:10DB40000CD000202070607900F03CF8002805D04F
:10DB50002169002902D0BDE81040084710BD00002F
:10DB6000D4200020024800218161818381777047A1
:10DB7000D4200020114810B5007801281BD1104C8A
:10DB80006078C0B9607910B174DF002814D10B49F6
:10DB90000120607038390620C870084800213838E4
:10DBA000FFF7C4FE002807D1607900F00BF810B130
:10DBB000216901B18847002010BD0000EC2500203C
:10DBC000D42000202DE9F04F744C87B000266071FE
:10DBD00006A8069603F05EFB0127082801D030B99D
:10DBE00003E006A802F08AFB18B9069808B127706E
:10DBF000C0E0FFF7B7FF6A4DDFF8A0814FF0020ADF
:10DC0000687808F118084FF0030B10B1607901280B
:10DC100006D0A87858B16079012801D002281FD118
:10DC2000E16819B1E7700820884700E0E670607984
:10DC3000012806D1687840B108F1010003F0AAFA82
:10DC400018B16079022802D00AE084F805A0A8780B
:10DC500020B108F1010003F09DFA08B984F805B07D
:10DC6000287B4FF0040920B96079032801D184F89A
:10DC70000590287E20B96079042801D1667126714B
:10DC8000E16841B16079032801D0042803D12878E4
:10DC900008B16078C0B1A67018216846FEF785FC0F
:10DCA0008DF8006001968DF8086003966079012870
:10DCB0000ED0022816D03A4E2436A6F15C0703286F
:10DCC0001DD004284CD13AE0A77007208847E3E72D
:10DCD000ADF81260CDF804808DF80070ADF81060DA
:10DCE00027713FE0CDF804808DF800702889ADF8E9
:10DCF0001200A888ADF8100084F804A032E0A88AC9
:10DD0000ADF81200288AADF810002548243004F040
:10DD100003FD18B1287808B1607810B184F804B018
:10DD20001EE01F488DF808A0039687F80390002195
:10DD30003838FFF7FBFD00281DD105202BE0A88B0C
:10DD4000ADF81000288CADF812001548243004F00E
:10DD5000E3FC18B1287808B1607878B184F80490B1
:10DD6000607918B1684673DF002804D1E16809B111
:10DD700020798847002007B0BDE8F08F08488DF86B
:10DD800008A0039687F8039000213838FFF7CEFDEE
:10DD90000028F0D106202071E2E70000D420002006
:10DDA000EC25002073B586B0040034D0217C9DF8AA
:10DDB0001C20002091422CD0002501260095ADF8B2
:10DDC000006007A8ADF802500190E188608A6A46B9
:10DDD000A4DF00281DD19DF81C002074608AA0F5E6
:10DDE0007F41FF3919D0207DB8B102950395049584
:10DDF0000595E088ADF80800BDF80200ADF80C000C
:10DE000001988DF80A60CDF810D00590608A02A9BB
:10DE1000A6DF08B070BD0E20FBE70820F9E738B593
:10DE20000D4604001BD0D5B1286820604FF6FF7066
:10DE3000608228792075FF20207401208DF802006F
:10DE400041F60F00ADF80000221D69460120A0DF59
:10DE5000002803D129462046FFF796FC38BD0E2046
:10DE600038BD08B5002821D000291FD00A88102A03
:10DE700017D0112A17D0502A18D1027D002A15D0A8
:10DE800031F8062F43899A4210D14A89022A0DD1CE
:10DE90000268002A0AD0097B11F0010F07D0002187
:10DEA00006E0898801E04FF6FF71418208BD01213B
:10DEB0008DF800106946904708BD000070B5054612
:10DEC00001461C220F48FEF749FB0F4C0026267026
:10DED000286830B1016861604068A060201D7ADF69
:10DEE00002E00948001D7BDF00280AD14FF6FF70D1
:10DEF00060806670BDE87040044A00210448FFF766
:10DF000047BB70BDD8260020F420002085250200E4
:10DF10007827020070B51E4C068800251B49E2894F
:10DF2000102E15D01B4B112E1CD0122E29D0502E86
:10DF300017D130F8061F914213D14189022910D11F
:10DF4000007B10F0010F11D0BDE8704001F0B6B8B1
:10DF500083884B808369CB60C06908614D70002A5B
:10DF6000F2D070BD4FF6FF7048804D701868FFF713
:10DF7000A9FB0028F5D0A1690029F2D0BDE87040C6
:10DF800008478268CA60C0680861DDE7F4200020A5
:10DF9000D82600207827020001480068FFF792BBCE
:10DFA000782702007CB5054608880C460930904267
:10DFB00001D90C207CBD684671DF0028FAD1218888
:10DFC0000820685420881B21401C80B220802954DE
:10DFD0002088401C80B220802844DDF801100160B8
:10DFE000BDF8051081802088801D80B220809DF8BA
:10DFF000001001B1012129542088401C20800020FC
:10E000007CBD000030B585B00D46040039D0BDB3ED
:10E010006868A8B31C4B4FF6FF7020800FCB0DF142
:10E02000040C8CE80F0041F23050ADF8000001A85C
:10E03000811E63DF002821D1221D69460120A0DF57
:10E0400000281BD19DF80200A071204601F0C8FAFB
:10E05000002813D1204601F075FA00280ED1294678
:10E06000204601F00BFB002808D16868A062A86870
:10E0700000B1E062054901200870002005B030BD04
:10E08000FFE70E20FAE700007C27020008210020AD
:10E090003EB500283CD000293AD0826A002A37D009
:10E0A0000A88102A23D0112A33D0502A21D0512A8D
:10E0B0002ED104460A4611F8060F022828D14888B6
:10E0C000238A984224D1907B042821D006281FD08F
:10E0D00005281DD02046891C02F0E0FF002817D03B
:10E0E000E16A002914D003B0BDE8304008478988B0
:10E0F00011E0CA8803899A420AD108228DF80020CB
:10E100000A7C12318DF808200191826A6946904795
:10E110003EBD4FF6FF7101803EBD000030B585B0B9
:10E1200028B30388A3F57F44FF3C22D0124B1B7811
:10E13000FBB1114B10255B1C00241D7059709A70A7
:10E1400001250321ADF8101000940194029403946A
:10E15000018AADF8001004A9CDE902138DF8025030
:10E16000ADF8044000886946A6DF05B030BD0E203A
:10E17000FBE70820F9E70000082100207FB50446EE
:10E1800001208DF8060041F60A00ADF80400454A6A
:10E1900001A90120A0DF00287ED1228804F13C05DE
:10E1A00052B140482B46801C009042F629206168FD
:10E1B00000F066FD002873D1228952B139482B4600
:10E1C0000A30009042F62420E16800F059FD002852
:10E1D00066D1228A52B133482B461230009042F663
:10E1E0002520616900F04CFD002859D1228B52B1E5
:10E1F0002C482B461A30009042F62720E16900F0A7
:10E200003FFD00284CD1228C52B126482B462230AB
:10E21000009042F62620616A00F032FD00283FD1CE
:10E22000228D52B11F482B462A30009042F62820FA
:10E23000E16A00F025FD002832D1216B71B102A8FE
:10E2400003F010FF17482B4632300090082202A935
:10E2500042F6232000F014FD002821D1606B58B154
:10E2600010492B463A3100910279016842F62A2082
:10E2700000F006FD002813D1A16B81B102A802F0C5
:10E28000CBFF08482B4642300090072202A942F6F5
:10E29000502000F0F5FC00E002E0002800D1002052
:10E2A00004B070BD1021002070B5044601F056FB8B
:10E2B0002146164800F08AF8144821461838FFF71E
:10E2C000D0FD2046FFF726FE204600F00FFA0F484B
:10E2D00021468030FFF7DCFE20880D4D102802D04B
:10E2E00011280ED10AE0072000F0FEFA20B1094AF9
:10E2F00040F2A221FFF7E0F8A08801E04FF6FF709E
:10E30000A8802046BDE87040FFF7D2BB98240020CB
:10E31000802000201CD9010030B50446008C8BB051
:10E32000A0F57F42FF3A23D005AA204602F013FA57
:10E330000546ADF800000020019002900390049083
:10E340002189ADF804100121ADF808008DF8061000
:10E3500005A8CDF80CD00490208C01A9A6DF0028D8
:10E3600004D1BDF80010A94200D00C200BB030BD84
:10E370000820FBE738B5044608682060087960711A
:10E380004FF6FF702084002084F82200A4F84C008F
:10E3900001208DF8020041F60D000D46ADF8000099
:10E3A000A21D69460120A0DF00280ED12946204683
:10E3B00002F070F9002808D1A86828B12946204643
:10E3C00000F0B8F8002800D1002038BD08B50A8850
:10E3D000102A14D0112A14D0502A15D131F8062F42
:10E3E00083899A4210D14A89022A0DD10268002AF3
:10E3F0000AD0097B11F0010F07D0002106E08988BF
:10E4000001E04FF6FF71018408BD01218DF8001075
:10E410006946904708BD70B50446B0F84C000D46FB
:10E4200014280AD104F126012622881EFEF796F848
:10E43000B4F84C00401EA4F84C00B4F84C0004EBB7
:10E440004001401CA4F84C008D8470BD80F822105F
:10E45000704770B504460D460846FEF7B1F82080B7
:10E46000656070BD0A78027049784170022070477B
:10E4700000B5274887B000230069059000208DF87B
:10E48000140010208DF8150002208DF81600482287
:10E49000204905A803F0BCFC20B11FA240F2E521F1
:10E4A000FFF70AF86A460121002003F09BFC20B127
:10E4B00019A240F2EB21FEF7FFFF01208DF80C00BE
:10E4C000194803F0B5F920B113A240F2F121FEF78B
:10E4D000F3FF684603F008FC20B10FA240F2F521DB
:10E4E000FEF7EAFF114803F0F5FB20B10AA240F263
:10E4F000F921FEF7E1FF0E4803F0B0FC002804D03C
:10E5000005A240F2FD21FEF7D7FF07B000BD0000D5
:10E5100028270200382400202E2E5C2E2E5C2E2E62
:10E520005C6D61696E2E6300E81F0020A9E20100A6
:10E5300051200200F0B58FB00D4606461C216846FA
:10E54000FEF733F800249DF80000039440F0020029
:10E550008DF80000012701948DF8367042F63820BE
:10E56000049405940694ADF834000C94E87B8DF87F
:10E570003000287C8DF831009DF83200142120F005
:10E580000600801C20F019008DF8320007A8FEF765
:10E590000CF80DA807900CA8ADF824700890ADF801
:10E5A0002640ADF82870A8680B90F08806F110039B
:10E5B00007AA6946A2DF0FB0F0BD00001CB50446F3
:10E5C00081786A460C4802F077FE002813D1607803
:10E5D0000A49C0EBC00001EB80001C231A466946C3
:10E5E00002F026FF054806494C30807A51F8202079
:10E5F0002146684690471CBD6C210020D42700208E
:10E60000A0270200F8B505460820ADF80000012358
:10E610006A461F492846AADF1E4800688047B12085
:10E6200044DF18B11C4A8D21FEF746FF11DF18B1F7
:10E63000194A9021FEF740FF4FF01024606913DF64
:10E6400018B1154A9321FEF737FF284600F016FF50
:10E6500001204FF0E0218205C1F88022D1F800317D
:10E660005FF0000100FA01F21A420AD04AB202F049
:10E670001F0600FA06F55209920002F1E022C2F8E4
:10E680008051491C2029EDD3606900F007F8F8BDDE
:10E69000A42B0020CC2100204C280200FDF732BF23
:10E6A0007CB5114E0C004FF00005306015D0694666
:10E6B000002000F0B1F8002815D101A9012000F0D8
:10E6C000ABF800280FD19DF8041009B1022003E037
:10E6D0009DF8001001B10B202070706810B9FEF792
:10E6E000F0FD054628467CBDCC20002010B51A4C14
:10E6F0000188606810290ED011292BD1401E60605E
:10E7000028D1FEF7DEFD002824D02168002921D081
:10E71000BDE810400847D0B900210122084600F0AA
:10E72000C1F808B107280FD107220221012000F00B
:10E73000B9F808B1072807D104220221002000F00F
:10E74000B1F820B1072802D0216801B1884760687C
:10E75000401C606010BD0000CC20002010B50320DC
:10E7600000F032FA08B1062800D1002010BD0000E8
:10E770002DE9F04707460024244802E0641C042CDD
:10E7800041D250F82420BA42F8D1042C3BD21F4881
:10E79000DFF87C901F4E0C38A9F1140841B3012911
:10E7A0000FD002292FD104EB440030444578002DCE
:10E7B00029D0D8F81010002925D02846BDE8F04708
:10E7C000084704EB4401755C0E44717861B1D8F8D8
:10E7D00004100F4A01EB81014900133A8068FEF7EB
:10E7E00031FF08B988F80170B17809F80410DEE744
:10E7F0008068FEF767FF04EB4401314419F8040018
:10E800008D78A842D3D0BDE8F087000048270200E9
:10E81000C82000208825002004280CD2074A12684E
:10E82000074B13F8203001209840904300D001207E
:10E830000870002070470020FAE700001005005023
:10E840004827020010B5042807D0072811D00A284D
:10E850001CD1BDE8104003F0F9B90D4813218088A0
:10E8600076DF082812D0002810D00AA240F2123118
:10E8700008E0FFF77FF9082808D0002806D005A295
:10E8800040F21A31BDE81040FEF716BE10BD000080
:10E89000802000202E2E5C2E2E5C2E2E5C6D616959
:10E8A0006E2E630070B50023042810D20D4D00EBCE
:10E8B0004004012A02D101290CD00022094E00EBAC
:10E8C0004000304461B1012906D0022906D0072357
:10E8D000184670BD0D30C2B22A55F9E74270F7E70D
:10E8E0008270F5E788250020044A01460020127A4C
:10E8F000D20702D0084600F055B87047B420002077
:10E9000070B50E462149054600200A61C1E901653E
:10E91000A9071BD50024012211462046FFF7C2FF9C
:10E92000641C042C02D20028F5D00FE070B97208E4
:10E9300004211748FEF73AFD40B9FEF725FD28B936
:10E940001348144A00211438FEF722FEE9070AD0C2
:10E95000114A4FF4F01111600F4B00221B1D1A6079
:10E960000D4A1032116000280FD109480B4A0021CE
:10E970001C38FEF70DFE002807D1BDE870400448A2
:10E980000121074A1838FEF703BE70BDB4200020ED
:10E990005827020005EC0100080500502509020077
:10E9A00069D301002DE9F84F854EDFF810A24FF42E
:10E9B000E01CF16807462CEA010C00910020716808
:10E9C0000AF10404251D7F4B4FF400324FF4802BD5
:10E9D00001EB810E8146182F16D2DFE807F00C17E5
:10E9E000173A4E607083868F868FEAA0A0A0A0A001
:10E9F000CAD1D8E1EAEA009A4FF4F01191432160BC
:10EA0000C5F8009086F80090BDE8F88FC4F800C003
:10EA10004846C5F80090DAF800C08CF4F01C5FEAB4
:10EA20008C3C09D522602860022F02D14FF4E160AE
:10EA300008E04FF47A6005E02A602060022F3CD0A5
:10EA40004FF4C8706422B0FBF2F0414337700022EB
:10EA50005EE0C4F800C04846C5F80090DAF800C08F
:10EA60008CF4F01C5FEA8C3C04D5226028604FF4E3
:10EA70004870E7E72A6020601FE0C4F800C04846FD
:10EA8000C5F80090DAF800C08CF4F01C5FEA8C3C0A
:10EA900002D522602860CCE72A602060D0E7C4F865
:10EAA00000C04846C5F80090DAF800C08CF4F01CAD
:10EAB0005FEA8C3CDED522602860C820C2E7C4F83B
:10EAC00000C04846C5F80090DAF800C08CF4F01C8D
:10EAD0005FEA8C3C02D52260286001E02A60206059
:10EAE000377014E0C4F800C04DE0DAF800002BEAFB
:10EAF0000002226000F48020286008E0DAF80000BC
:10EB00002BEA0001216000F4802028607146002279
:10EB10001868BDE8F84FFEF795BD21602EE09846D5
:10EB20005868FEF7CFFDD7F1110100D040B1F16870
:10EB300001F4F0112160C5F80090C6F80C9063E76D
:10EB40004FF40022F26001290CD9C82011FB00F11A
:10EB50006420B1FBF0F1706800224143D8F8040052
:10EB6000FEF770FDF16801F4F0112960C4F800901F
:10EB70004AE74FF4F0112160C5F80090377043E781
:10EB80004FF4E01121604946C5F8009006E04FF4CB
:10EB9000D01121604946C5F800905A462A60BCE76A
:10EBA0004FF4C01121604946C5F800904FF4C022CF
:10EBB000F4E74FF4F01129604946AEE70405005030
:10EBC000B42000203C27020070B500210C4D012428
:10EBD00055F82120920002F1A042D2F8006704FA11
:10EBE00001F3034000D0032326F4403646EA0343F2
:10EBF000C2F80037491C0429EAD3002070BD000088
:10EC00004827020000780221FFF7B2BD05494FF006
:10EC1000FF32082841F8202002D3084480F8482019
:10EC20007047000044280020F0B54FF0FF3512B1C6
:10EC30000023082601E008230C260C4C05E000BF49
:10EC400054F823707F1C04D05B1CB342F8D32846D1
:10EC5000F0BD26185DB286F8305044F82310002A23
:10EC6000F5D1E11881F84800F1E7000044280020C0
:10EC70000249084490F93000704700004428002001
:10EC80002DE9F0438FB01E46DDF8589015460F0071
:10EC9000804604D123A26D210020FEF70DFC25B98A
:10ECA00020A26E210020FEF707FC1C216846FDF71C
:10ECB0007CFC00249DF80000039440F002008DF8D5
:10ECC0000000012001948DF8360004940594069408
:10ECD000ADF834800C9430788DF8300070788DF871
:10ECE00031009DF83200142120F00600801C20F035
:10ECF00019008DF8320007A8FDF757FC0DA8079002
:10ED00000CA808901748ADF82450ADF82640ADF88F
:10ED100028500B974B4607AA69460088A2DF0FB020
:10ED2000BDE8F0832E2E5C2E2E5C2E2E5C2E2E5CEB
:10ED30002E2E5C2E2E5C636F6D706F6E656E74731D
:10ED40005C626C655C626C655F7365727669636555
:10ED5000735C626C655F6469735C626C655F646957
:10ED6000732E6300102100202DE9F0413A4801780C
:10ED700001EB810100EB8104D4E9030600EB4001C3
:10ED80003648241D00EB8100B0F8088045894768AB
:10ED900002F019FBB6FBF0F100FB116080B300201C
:10EDA00008FB05776188A288DFF8B48011448D19CB
:10EDB0000022C8F8102040B102F005FB61888842AB
:10EDC00021D0BD4201D1A088E8B1A06803281AD0A3
:10EDD00002F0F9FAA18844463144B1FBF0F200FB9D
:10EDE00012108008C8F80C0002F0EDFAB5FBF0F143
:10EDF00000FB115078B10020BD4228D068B126E058
:10EE0000FFE70120CCE702F0DEFAB6FBF0F10320C9
:10EE1000C8F814101CE00120EEE7ADB2BEB202F05B
:10EE2000D2FAB6FBF0F702F0CEFAB5FBF0F087426B
:10EE300001D1701B09E002F0C6FA064602F0C3FADF
:10EE4000B5FBF0F100FB1150301A80082061022060
:10EE5000BDE8F04102F020BFBC280020182B0020A4
:10EE6000742100200648017801EB810100EB81004C
:10EE70000079042801D000F059B8012002F00CBF3D
:10EE8000BC2800200A480B4A017801EB810100EB05
:10EE90008100C18811620079012805D0032801D0C2
:10EEA000042804D1FFF760BF012002F0F5BE7047CF
:10EEB000BC2800207421002000EB800205480021BE
:10EEC00000EB820002220171C180C0E9032141618F
:10EED00001817047BC2800202DE9F041114D069EAC
:10EEE0006C781E2C1BD02F783C441E2C00D31E3C6B
:10EEF00004EB840405EB840420716261D1E9000114
:10EF0000C4E90301E38026816878401C68700648E4
:10EF1000007808B9FFF7B6FF0020BDE8F0810420B3
:10EF2000FBE70000BC2800207421002010B50E4C27
:10EF3000207800EB800004EB80010020091DFEF723
:10EF4000FFFA2078FFF7B8FF6078401E60702078E5
:10EF5000401CC0B220701E2801D100202070BDE8E6
:10EF60001040002002F098BEBC2800202DE9F05F80
:10EF70002648C168F1B3DFF898B00E688146DBF827
:10EF800000400769C078E11B21F07F45ED1CB0B956
:10EF9000DFF880804FF48030C8F84403C8F80403D9
:10EFA0001120FDF7FFFB1120FDF707FC4FF0010AD0
:10EFB000C8F800A02F20FDF769FA89F803A0B54230
:10EFC00000D23546124BE8193C3320F07F401860E0
:10EFD000DBF800105A46091B21F07F41001B20F08E
:10EFE0007F40C91C81420FD9106818602F20FDF79F
:10EFF0004DFA00E004E0BDE8F05F1120FDF7E8BB4A
:10F00000BDE8F05F02F0CEBBBDE8F09FAC21002070
:10F0100004150140001001402DE9F0411788064613
:10F02000B81D14460D46984202D90C20BDE8F08167
:10F030003188072206290AD34FF4486C4FF6FF7334
:10F04000614501D9994202D17088062801D2104643
:10F05000ECE7604501D99842F9D1994203D0984232
:10F0600001D08142F3D80520E85520881221401CA8
:10F0700080B2208029542088401C80B22080411911
:10F08000308803F06FFA2188084480B2208041194B
:10F09000708803F067FA2188084420800020C5E7C3
:10F0A00002A240F24F21FEF707BA00002E2E5C2E7E
:10F0B0002E5C2E2E5C6D61696E2E6300F8B51348D0
:10F0C00001F0D0FB114D0026114C0C3D30B16169AF
:10F0D000B9B101208DF80000684611E0287820B110
:10F0E000616971B18DF80060F6E7687858B1A16880
:10F0F000084800220068FEF7A5FA10B1A16901B125
:10F1000088472E70F8BD6168F2E7000000210020FA
:10F11000D82600207827020070B5094B0446082045
:10F120009E7A00250E4208D0A4F57F40FF3802D019
:10F130001889A04202D10020156070BD052070BD65
:10F140001428002000EB40020748012100EB820058
:10F1500081724FF6FF710181FF21C17200210160B0
:10F1600081808171704700001428002010B5134C75
:10F17000207900071ED46069401C6061E06808B116
:10F1800004200AE001F07CFB08B1022005E02069C0
:10F1900060B16068C10704D00320BDE8104002F0F0
:10F1A0004DBF40F0010060600020F6E7BDE8104070
:10F1B000FFF758BEBDE8104002F036BF74210020B2
:10F1C00006494868020707D4820702D540F00100CB
:10F1D0004860022002F032BF02F026BF74210020F6
:10F1E0002DE9F04100260125144C22E060682269D7
:10F1F00000EBC607387805FA00F1114217D08A43B0
:10F20000226101F093FE02463878E36805FA00F1C6
:10F21000194002FA00F3994209D17978012901D005
:10F22000012100E0002151407A6802B19047761C2C
:10F23000F6B220788642D9D3BDE8F081982100202B
:10F240002DE9FC410E46044681786A46254802F0C5
:10F2500033F8002828D16078234F00EB400007EBFB
:10F260008000807A400621D4022E1FD0012E1FD0AC
:10F270001E4DA0781E49C0EBC00001EB80010023A9
:10F280001C226846A847A8B1022E0DD02078164946
:10F2900000EB40000C3101EB80001649807A51F8F8
:10F2A0002020214668469047BDE8FC81124DE0E7EA
:10F2B000124DDEE7022EF7D0607800EB400007EB3E
:10F2C0008000817A21F040018172074960784039DD
:10F2D000C0EBC00001EB80011C231A466846A8471A
:10F2E000D4E700006C21002014280020B11F020088
:10F2F00010270020902702005D1602008D150200E5
:10F300002DE9F04705250F4F904689460646002413
:10F31000C4EBC40007EB800036B107223146103041
:10F32000FDF755F918B106E0018B414503D10025E1
:10F33000C9F8004002E0641C072CE9D32846BDE868
:10F34000F0870000102700207CB5054681B26A4690
:10F35000074801F0B1FF040008D17421684601F0AC
:10F36000D5FF040002D1284601F01EFF20467CBDD7
:10F370006C21002070B505460C46100004D006A292
:10F380004FF44B71FEF798F82078152802D12846E3
:10F39000FEF744F8002070BD2E2E5C2E2E5C2E2E23
:10F3A0005C6D61696E2E63001FB58DF80C0002F074
:10F3B0000FF820B11A4A40F24631FEF77DF803A853
:10F3C00000F084FD20B1164A40F24931FEF774F88E
:10F3D0000020CDF805008DF809009DF8050069466C
:10F3E00020F07E0040F00100303020F080008DF8E9
:10F3F000050007208DF8060010208DF80700094849
:10F40000009001208DF80400074800F0C9FE002894
:10F4100004D0034A40F25931FEF74EF81FBD0000F8
:10F420001CD9010075F301008220002001B50549B7
:10F43000684600F079FA002803D0034ABF21FEF79E
:10F440003BF808BDD02100204C28020010B50978F7
:10F4500059B103220121FEF761FE00280AD0BDE860
:10F460001040054AAD21FEF727B80088BDE81040DE
:10F47000FFF7C8B810BD00004C28020030B58BB0B3
:10F4800000242949009400F0F5FC002816D101A9B8
:10F49000254800F093FC98B12449234800F07AFDF8
:10F4A00018B1234A6C21FEF707F8204800DF002836
:10F4B00004D01F4A5FF06F01FDF7FEFF0BB030BDB7
:10F4C00005981A4D102201692960818AA980807DE2
:10F4D000A871E81D0599FDF741F8112205F1180002
:10F4E0000199FDF73BF8019850F8121F45F82A1FC3
:10F4F00041686960008928810C4800DF18B10C4A16
:10F500005E21FDF7D9FF0120009004200890CDF87E
:10F5100024D007A90448079400F09EF90028CDD014
:10F52000034A6621C8E70000D0210020702B00208C
:10F530004C28020070470000014908607047000035
:10F54000CC21002030B58FB005461C216846FDF760
:10F550002CF800249DF80000019440F018008DF86C
:10F5600000000394049405940694A8798DF836005D
:10F5700041F23150ADF834000C949DF83000142164
:10F5800020F0FF008DF830009DF8310020F00F00D2
:10F59000401C20F0F00010308DF831009DF8320052
:10F5A00020F00600801C20F0080040F011008DF8CB
:10F5B000320007A8FCF7F9FF0DA807900CA80890E7
:10F5C000ADF824401720ADF82640ADF828000B9484
:10F5D000A88805F1100307AA6946A2DF0FB030BD65
:10F5E00030B58FB005461C216846FCF7DEFF0024CD
:10F5F0009DF80000019440F004008DF80000039491
:10F60000049405940694A8798DF8360041F232509E
:10F61000ADF834000C949DF83000142120F0FF0068
:10F620008DF830009DF8310020F00F00401C20F0D4
:10F63000F00010308DF831009DF8320020F0060007
:10F64000801C20F0180040F001008DF8320007A85F
:10F65000FCF7ABFF0DA807900CA80890ADF824406C
:10F660001420ADF82640ADF828000B94A88805F1C9
:10F67000080307AA6946A2DF0FB030BD70B58EB08F
:10F680000E4605461C216846FCF78FFF00249DF8B6
:10F690000000019440F002008DF8000003940494EF
:10F6A00005940694A8798DF8360041F23450ADF8EF
:10F6B00034000C949DF83000142120F00F00401C01
:10F6C00020F0F00010308DF830009DF8310020F06F
:10F6D000FF008DF831009DF8320020F00600801CFC
:10F6E00020F0180040F001008DF8320007A8FCF768
:10F6F0005CFF0DA807900CA808900220ADF824002C
:10F70000ADF82640ADF828000B96A88805F1200337
:10F7100007AA6946A2DF0EB070BD00003EB50446E0
:10F720001F48017848F20800002930D084B32178BE
:10F7300000292CD11B4900250968002927D0A17870
:10F74000072929D2184AC1EBC10002EB8000807E54
:10F75000FF2821D012486A46103001F0ADFD002884
:10F7600015D160230422694602A801F061FE0299C6
:10F77000491C0CD0602304220C49684601F06EFF3E
:10F78000002804D1084AA1781C3A42F821503EBD15
:10F79000FFE748F20E00FAE748F21000F7E7000032
:10F7A0005C21002020280020102700208C27020048
:10F7B0003EB50C4625490A7848F208015AB38A1D1D
:10F7C00018B114B1027832BB01E010463EBD204AA8
:10F7D000126802B3817807291FD21E4BC1EBC10208
:10F7E00003EB8202927EFF2A17D01A4AA3681C3AC2
:10F7F000B3B142F82130817814486A46103001F0E4
:10F800005BFD0028E2D160230422694602A801F0D2
:10F810000FFE48B116E008463EBD48F210003EBD5E
:10F8200052F82110A160E6E70298401C0AD0642338
:10F8300010226946A06801F0FBFD0028EFD1029973
:10F8400061603EBD48F240003EBD00005C210020EA
:10F850002028002010270020FEB505462D480C4624
:10F86000017848F20800002924D0811D1DB314B38B
:10F87000A26802B3297800291CD127490968002908
:10F8800018D0A978072918D2244BC1EBC10203EB89
:10F890008202927EFF2A10D06A7803F5827302EB0F
:10F8A000420203EB8202927A120703D560680428B1
:10F8B00006D20720FEBD0846FEBD48F21000FEBD80
:10F8C0001448174E6A46103001F0F6FC0028F6D1B5
:10F8D00060230422694602A801F0AAFD18B9029823
:10F8E000401C00D00F4E60230422211D6846B04703
:10F8F0000028E4D1642310226846A16801F0AEFE1E
:10F900000028DCD1054BAA781C3BA16843F82210E3
:10F91000FEBD00005C2100202028002010270020D0
:10F920008D1502005D1602000A4A137848F208029B
:10F930006BB1931D19B110B1007840B901E01846C0
:10F940007047054B1B6813B10870002070471046C4
:10F95000704700005C210020202800202DE9F04F96
:10F96000054693B0FB48FF24079400784FF0000A47
:10F97000002856D0F84E3068002852D001A800F078
:10F9800099FA20B1F54A40F6F211FDF795FD281DD0
:10F9900005902C20ADF818000027FF208DF80600F8
:10F9A0008DF804700097EC4C28880C3CBB4610285E
:10F9B0000FD0A8886A460221FFF7AEFB48B900982D
:10F9C00000EB400104EB8101C97A8DF806108DF837
:10F9D0000500DFF884932888A9F14C091321A9F1C7
:10F9E000C408192874D010DC10281DD011285DD04F
:10F9F00013286ED0142814D1009800EB400004EBBB
:10FA00008000C07AFF287CD099E0D54A1A2876D0A9
:10FA10001E2875D0522804D1B07A52F8201001A8BF
:10FA2000884713B0BDE8F08F4FF6FF766A46012194
:10FA30003046FFF771FB0028F3D10099022201EB59
:10FA4000410004EB8000827211228DF810208DF8A5
:10FA50000510A9880181A9680160A9898180A97B15
:10FA60008171E87DC10708D0BA49083101EB500027
:10FA70000078FF2809D0079007E0324607A905F172
:10FA80000800FFF73DFC00280FD10099079801EB13
:10FA9000410104EB8101C8728A7A42F008028A723D
:10FAA0008DF8060001A8FEF789FD70E1009800EBD3
:10FAB000400004EB8001887A20F002008872010780
:10FAC00008D500060FD5002101A8FFF7B9FB0AE011
:10FAD000BCE043E09DF80600FF2804D001F064FB81
:10FAE000FF208DF806000099102001EB410104EB86
:10FAF0008101887212208DF8100048E101E0FCE0DD
:10FB000043E12A8A07A90020FFF7FAFB78B9009899
:10FB1000079900EB400004EB8000C172827A42F04A
:10FB2000080282728DF8061001A8FEF747FD0098C2
:10FB300000EB400004EB8000C07AFF2804D000985E
:10FB4000C0EBC00109EB810A00980023C0EBC001A3
:10FB500008EB8102A888514686DF62E700988DF89D
:10FB6000101000EB400004EB8001887A40F00400A4
:10FB70008872CA7AFF2A0BD040F0400088721620A3
:10FB800000238DF81000A8881A4685217FDF32E017
:10FB90000DF11C0C48F2430300204246C0EBC008A4
:10FBA00002EB880898F81A80B8F1FF0F26D0401CA5
:10FBB0000728F3D34FEA03070099CDF830B001EBE3
:10FBC000410304EB8303DB7AC3EBC30302EB830241
:10FBD000CDE90D2BC1EBC10209EB8201CDE9081B78
:10FBE000CDF83CB0CDF828B0CDF82CB0321DA888A7
:10FBF00008AB00217FDF0028AFD1C8E00B78022BD3
:10FC000012D0C0EBC00302EB83034FF0FD0883F872
:10FC10001A80D1F80080C3F81080B1F80480A3F8EE
:10FC200014808979997505E0C0EBC00102EB810170
:10FC3000FE238B768CF800000099079801EB4101B8
:10FC400004EB81018DF80600C872B5E7707A20F0E8
:10FC500001007072009E06EB460304EB8300817A7C
:10FC600021F00402827214218DF81010297A31B12A
:10FC7000510603D4C07AFFF767FB2F7A87E0697AD1
:10FC8000490739D59DF80610FF2935D042F0080202
:10FC900082726A7B920707D5C1EBC10508EB85022A
:10FCA000957E25F001059576C27AFF2A6FD014F86B
:10FCB0002320022A0ED0C1EBC10208EB82010268A8
:10FCC0000A6182888A8280798875887E20F00200A5
:10FCD00088760DE0C6EBC60209EB8200C1EBC101DC
:10FCE000428A08EB81000283817E21F00101817646
:10FCF000012101A8FFF7A4FA49E0287A0121B1EB1C
:10FD0000101F2FD100F00F0001282BD1009800EB1D
:10FD1000400104EB8101897A090723D50E4900EBE4
:10FD2000C000303901EB80001A210830FCF73DFC9F
:10FD300016208DF81000009800EB400004EB8000C6
:10FD4000817A41F060018172707A40F00200707235
:10FD500019E000005C21002020280020002802007B
:10FD6000B0270200009800EB400004EB8000817A8D
:10FD700041F08001817215208DF81000B07A52F8A0
:10FD8000201001A88847002701E08DF810103A469E
:10FD900004A901A8FDF7CEFB9DF8100012287FF4FE
:10FDA000DCAE009800EB400104EB8101897A012967
:10FDB0003FF4D3AEFFF7C6F933E600002DE9F04378
:10FDC000064629480C4689B0017848F20800002907
:10FDD0003FD0811DF6B3ECB33178002939D12349E6
:10FDE00000250968002934D0B078072838D2204F80
:10FDF000C0EBC00007EB8000807EFF2830D0E560BC
:10FE0000B07807F58E79C0EBC00007EB8000C4E93D
:10FE10000405E846A5601448C4E90089B17807AA3A
:10FE2000103001F049FA002813D11C231A4607A903
:10FE3000684601F0FDFA00280BD1E560B178C1EB0E
:10FE4000C10107EB8101C4E90415C4F80080C4E9CD
:10FE5000019500E002E009B0BDE8F0830846F8E74C
:10FE600048F21000F5E700005C2100202028002067
:10FE70001027002030B5044611B10878A0B902E07F
:10FE800048F20E0030BD0A480023006860B1084AFD
:10FE9000FF200C3A887015890520A542F2D14B70DD
:10FEA000D07A8870002030BD48F2080030BD0000D4
:10FEB0002028002030B1FF21017041708170C17095
:10FEC0000020704748F20E00704700002DE9FF4106
:10FED00005003AD02B480024046044728472204606
:10FEE000FFF730F9274824213038FCF75EFB002665
:10FEF000DFF89480FF27304601F056F908F80670C5
:10FF0000761C072EF7D37420ADF804000720ADF857
:10FF100006001E481C4900900831684601F0DCFAD2
:10FF200000280FD1184E0120083E3070287878B193
:10FF3000BDF80400BDF80610484381B206F1100078
:10FF400001F0E4F904B0BDE8F08148F20E00F9E7F1
:10FF50000F4F00250C48A9B202AA083001F0ACF9F5
:10FF600048B9C5EBC50007EB800000231C2202A99D
:10FF700001F05EFA08B13470E4E76D1C072DE9D397
:10FF8000E0E700002028002064210020110002008A
:10FF9000102700201B4A137848F20802F3B1931D82
:10FFA00018B111B10378CBB901E018467047164B70
:10FFB0001B689BB1837848F20502FF2B10D01348D1
:10FFC000C3EBC30300EB8300837E9B0706D4026967
:10FFD0000A60828A8A80807D88710022104670477C
:10FFE0004078FF28FAD000EB400307480C3800EBBC
:10FFF0008300837A9B07F1D502680A6082888A8031
:020000040002F8
:100000008079E9E75C2100202028002010270020CB
:100010002DE9F04F80465D4891B01E4600681A9F5A
:1000200093468A46002872D0742F70D86846FFF72E
:1000300041FF20B1564A40F2A251FDF73DFA00249B
:100040008DF800408DF80440CDE905762546A9B22B
:100050000FAA504801F030F928B908220FA94046EC
:10006000FCF7B5FAD8B16D1C072DF0D39DF802004E
:10007000FF287FD04FF020094FF0400C04ADBAF1BB
:10008000030F0FD0444A1C27B11AB1FBF7F101232B
:1000900007291AD20295BBF1000F0BD010E08DF8A2
:1000A0000250E3E7742F02D08DF804C065E08DF8AC
:1000B000049062E037498340103949680B4259D0B7
:1000C00002F056FA8DF8049045E030494C39A6EB21
:1000D0000108B8FBF7F7DFB101F11C02B11A2427C0
:1000E000B1FBF7F702F124013FB32C4A8DF804C0AD
:1000F000964242D0A1F5907252F82020B24239D1F6
:100100000295C97A884226D18DF8014023E031E07A
:100110001E4B02958DF804908DF801400C33079129
:10012000CDE90B439DF80210C1EBC10102EB810147
:10013000089107A9CDE905910DE030208DF8014027
:100140008DF804008DF80330887A800703D42421C9
:100150001046FCF72AFA9DF80400BAF1020F11D0FC
:1001600040F002008DF804005A4601A96846029545
:10017000FDF7E0F911B0BDE8F08F9DF8040040F004
:100180000300EFE740F00100ECE70000202800202A
:10019000002802006C210020102700208C2702007C
:1001A000174A10B512785AB148F20E0258B151B13F
:1001B0000B6843B1134A14683CB148F2040010BD07
:1001C00048F2080010BD104610BD0E4C13602C3CC8
:1001D000D1F8053023634B7A84F834300979917271
:1001E00023F0050141F002011172D17921F00401DF
:1001F00041F00301D17100210170084610BD0000DB
:100200005C210020202800200E4910B54A788C7807
:100210000023A24212D0521CD2B24A70022A00D14C
:100220004B70084A4B78183252F823200260086954
:10023000104420F07F400861012010BD03600020C1
:1002400010BD0000AC210020002808D0112801D0EA
:10025000FDF78CB90248416841F0080141607047E0
:100260007421002010B51F4C2046217840680129D8
:1002700010D002292DD0032932D1000725D460697E
:10028000401C606100F0FCFAD8B12078BDE8104055
:1002900001F002BD000718D41348A28B017801EBCE
:1002A000810100EB8100C188891A0904090CC18011
:1002B00003D0BDE8104001F07DBEBDE81040FEF760
:1002C00035BEBDE81040FEF7CDBDBDE8104000F0E2
:1002D000C5BC0648617850F82100BDE810400047D1
:1002E00010BD000074210020BC280020D42702008B
:1002F00028DFFFF7A9BF29DFFFF7A6BF20B1034919
:10030000496D01600020704703207047AC2B00202E
:100310000EB51CA19DF8080020F00F00401C20F035
:10032000F00010308DF808000A2202A87CDF20B10E
:10033000174A4FF49E71FDF7BFF840F2413078DF65
:1003400020B1134A40F23F11FDF7B6F800200090AB
:1003500001904FF4A071ADF80400ADF800104FF417
:10036000C8704FF40271ADF80600ADF8021068468F
:100370007ADF002804D0064A40F24911FDF79CF8C4
:100380000EBD00004E6F726469635F48524D0000FD
:100390001CD90100002070470020704700207047E2
:1003A0002DE9F0474178DFF8A490054601EBC10242
:1003B00009EB8200002401EB410109F1240A4368A2
:1003C000274626460AEB810163B191F80AC05FEA2D
:1003D0000C6807D55FEA4C6C04D459F8226000F130
:1003E00008049FB20889D04633463A462146A9DF21
:1003F00048F241090B281CD000B14846012E16D105
:1004000068784FF6FF7200EB400008EB80000C218B
:100410000089A7DF00280AD0A0F54051023913D087
:10042000082811D0891E0FD011280DD00020BDE85A
:10043000F0876878012300EB400008EB80003A4623
:1004400000892146A9DFDBE74846F0E7F0270020D6
:1004500070B50C46014660780A4D00EBC00005EB14
:1004600080003823242200F0E3FF002808D16178BF
:1004700001EBC10105EB81014A68521C00D14A60C1
:1004800070BD0000F02700202DE9F04188B08046C3
:1004900003271A20ADF81C0048782A4E00EB4000D4
:1004A00006EB80000D4600893B4607AA6946AADF95
:1004B00028BB6878A6F1240400EBC00004EB8000A0
:1004C000BDF81C2069460830FCF781F800286878E0
:1004D00007D000EBC00004EB8001496881B11A4EDF
:1004E0000FE000EB400106EB8101897A890724D4F3
:1004F00000EBC00004EB80002421FCF756F81CE060
:10050000124E44F820706878BDF81C2000EBC00043
:1005100004EB800069464260687800EBC00004EBA1
:1005200080000830FCF71AF86878382300EBC00028
:1005300004EB800124224046B04708B00020BDE80B
:10054000F0810000142800205D1602008D150200C5
:10055000FFF726BFFFF77CBFFFF796BF2DE9F041FD
:10056000124E07460125BD403068FDF7ABF8002864
:100570000DD10F4C2069284207D1384600F0D6FC37
:100580000028E06805D0284304E0A8432061BDE8C6
:10059000F081A843E060206928432061A1683068A9
:1005A000BDE8F0410022FDF74DB80000E827020049
:1005B0009821002070B51B4C207900072DD41A48D3
:1005C000017801EB810100EB81052E6900F0FBFE53
:1005D000E9882A89761E11443144B1FBF0F0216983
:1005E000002549B16169814206D1E560606840F04B
:1005F00001006060002008E000F042F910B1022024
:10060000E56002E0206920B10320BDE8704001F000
:1006100015BDBDE87040FEF725BCBDE8704001F097
:1006200003BD000074210020BC28002010B5134930
:10063000134801F0EAF9124C81B2183CA068401C42
:10064000A0600E486038FDF767FE68B108280BD03F
:10065000A0F54051043907D043F20141884203D04C
:1006600008A2D821FCF728FFA0680321B0FBF1F213
:1006700001FB120000B10120207010BDF824002001
:10068000982000202E2E5C2E2E5C2E2E5C6D616933
:100690006E2E630070B594B00024054607949DF853
:1006A0001C000E4620F00F00401C20F0F00010301F
:1006B0008DF81C00087B8DF81D009DF81E001C2184
:1006C00020F00600801C8DF81E006846FBF76DFFC9
:1006D0009DF80000019440F010008DF8000007A87C
:1006E000CDE9044001208DF84E00039442F63720F6
:1006F0000694ADF84C000D94707B8DF83400B07BFF
:100700008DF835009DF83600142120F00600801C7D
:1007100020F0180040F001008DF8360008A8FBF723
:1007200044FF13A808900DA809900EAA002128469E
:1007300000F011F8ADF828001420ADF82C000EA838
:10074000ADF82A400C90E88805F1080308AA69462C
:10075000A2DF14B070BD2DE9F04104464079904607
:10076000002500B1042594F8220008B145F00205E7
:10077000CAB2FF2908D9090A88F8012045F0010505
:1007800088F80210032602E088F801200226B4F857
:100790004C0008B145F01005002718E0B01C1428E3
:1007A0000BD9B4F84C0004EB4701C01B420004F124
:1007B00024002431FBF7D2FE0DE004EB470108EBE7
:1007C0000602898C1170090A5170C6B27F1CB4F8F8
:1007D0004C00B842E2DC34F84C0FC01B208088F893
:1007E00000503046BDE8F081F8B51C4C2078002858
:1007F00032D0206928B10026E06820B1002526B15A
:1008000012E00126F8E70125F9E7684652DF0528DE
:1008100005D030B1124A9321FCF74EFE04E00126C8
:1008200002E021690098884795B96088ADF800001A
:100830006946A06861DF052805D030B1084AB221B9
:10084000FCF73AFE04E0012502E0D4E90201884702
:10085000002EDAD0002DD2D0F8BD0000D821002023
:1008600094280200054940880A88904204D34988A8
:10087000884201D80120704700207047F8200020EE
:1008800070B50E48017801EB810100EB8104256908
:1008900000F099FDE18822896D1E11442944B1FBC5
:1008A000F0F1074842698A4205D301D1006910B1CD
:1008B0004FF0000070BD4FF0010070BDBC2800205B
:1008C00074210020800701D000207047012070476C
:1008D00030B51488E51C9D4201D90C2030BD02259D
:1008E0000D5513881C245B1C9BB21380CC541388B9
:1008F0005B1C9BB21380012807D0022807D0032875
:1009000007D0042807D0072030BD002004E00120D4
:1009100002E0CD5401E00320C8541088401C108030
:10092000002030BD0348017AC90702D00078FEF7E5
:1009300039B87047B42000202DE9F047DFF8ACA0AB
:10094000DAF80C009AF8004080469AF80460DAF869
:100950000890DAF810703AE009EBC4052A7833E021
:1009600002EB42016B68521C03EBC101AB78D2B2BF
:10097000934200D100220B78022B02D0032B23D10B
:100980001FE0D1F804C00346014603E0614503D0EF
:100990000B46C969C1B1F9E7B1B18B4205D1C06954
:1009A00018B9134F0126BE600027D1F800C0C969ED
:1009B000D96149B10B6863440B6005E00174C069FB
:1009C00000E000210028F9D169789142C8D1641E65
:1009D000E4B2C1D2CAE903078AF80460404502D0F4
:1009E0000120BDE8F0870020FBE70000AC210020DB
:1009F000001001402DE9F04705462F4800268046AB
:100A00000778D0F80C904BE0D8F8080000EBC7044A
:100A100040E002D02846ED691EE02078616800EBD6
:100A20004002401CC0B201EBC2012070A27890428B
:100A300000D126700A784868012A2DD1027C5ABB61
:100A40008A684260CA6882600A69C26049698161D5
:100A500098F8041001B146604268D8F81030DFF809
:100A60005CC0D11A21F07F41614502D282681144F5
:100A700006E0991A826821F07F418A4202D9511A10
:100A8000016000E006604660012186600174C66175
:100A900001F07EFB002DBCD1207861788842BCD16A
:100AA0007F1EFFB2B0D2D8F80C10494502D0012009
:100AB000BDE8F0870020FBE7AC210020FFFF7F00AE
:100AC00038B50D4C207808B1002038BD0125AB02A7
:100AD0000A4A0BA100200095FBF7D0FE38B9002090
:100AE0001023094A09A10090FBF7A0FE08B10820D5
:100AF00038BD2570E8E70000D42100200F2C00202D
:100B00004E6F726D616C00000F300020496E707581
:100B1000740000000FB408B504A900916A46039957
:100B2000FBF721FF01B05DF814FB0FB470B506466A
:100B300006AC002504E002CC3046FBF707FF6D1C35
:100B400005988542F7DB70BC5DF814FB88B001F0B6
:100B5000A1FB334A40F6CD410320FDF7D1FE20B181
:100B6000304A4FF46171FCF7A7FC69460020FDF79D
:100B700097FD20B12B4A40F28731FCF79DFC9DF890
:100B80000000022849D00024FDF772FC2046FEF741
:100B90000BFCFFF7BDFBFCF7AFFB00F087FF00F09D
:100BA000DDFE1C216846FBF700FD00204FF42031DC
:100BB000CDE900014FF47021029103218DF80C1052
:100BC000194989898DF81000184805901848069031
:100BD000ADF80E106846FDF771F920B1114A40F2E8
:100BE0006621FCF769FCFCF795FD0320FCF7EAFFA2
:100BF00020B110A24FF46B71FCF75EFC11A2012131
:100C00000020FFF792FF40F2923448DF0028FCD02A
:100C1000044A2146FCF750FCF7E70124B4E7000042
:100C200045E801001CD90100982400206910020049
:100C3000A1F001002E2E5C2E2E5C2E2E5C6D6169C3
:100C40006E2E63000A0D203D3D696E6974203939AE
:100C500039204F6B213D3D3D200A0D00034841687E
:100C600021F008014160007801F016B874210020DD
:100C700070B5144682880E4605462088111D014431
:100C8000921C994201D8FE2A01D90C2070BD521C39
:100C900032542088FF21401C80B2208031542088AB
:100CA000401C80B220808119288801F05BFC2188DB
:100CB000084480B22080AA8842B1A96841B130447A
:100CC000FBF74CFC2088A98808442080002070BDD8
:100CD000072070BDF8B50E46017814460546012977
:100CE00001D1687830B12088821C9A422DD8012920
:100CF00002D006E00720F8BD69780144891C9942BA
:100D000023D8181A801E87B2ADF800702188B01C55
:100D1000084469467DDF0028EDD12878022805D1F6
:100D2000BDF80010B94201D809210AE008210128C4
:100D300005D16878B84202D8ADF8000001E0ADF8FE
:100D40000070BDF80000FE2801D90C20F8BD2288F3
:100D5000401CB0542088401C80B220803154208830
:100D6000401C2080BDF80010084420800020F8BD01
:100D700000207047002070470020704731B540F2D6
:100D8000E73404E0401E00902046FBF743FB009848
:100D90000028F7D138BD4907090E002806DA00F00F
:100DA0000F0202F1E02282F8141D03E000F1E022BC
:100DB00082F8001400F01F020121914040098000D8
:100DC00000F1E020C0F88012C0F800117047000068
:100DD0002DE9F0478846814600F006FA0124224EAC
:100DE0000028484618D0FDF743FF304490F84800EB
:100DF0008009032802D0012806D007E01B480068BC
:100E000004FA09F4204201D1022100E003214846FE
:100E1000BDE8F04700F0D9B800F0F2F9002820D082
:100E20004846FDF725FF0546114F4FF4807007EB4C
:100E3000850100EB8500D1F8102580B242F0010257
:100E4000C1F8102500F0D0F8B8F1000F09D04846DD
:100E5000FDF70EFF56F82000002802D0AC40C7F87E
:100E60000443BDE8F087000044280020100500502E
:100E7000006000402DE9FC41DFF8A480044608EB47
:100E80000400002790F930001346C0170E46401C9E
:100E900001D0082740E0F27819462046FDF7C4FE4D
:100EA0000546401C37D0B07848B1A00000F1A04002
:100EB000D0F8001721F00201C0F8001707E0002168
:100EC0007378204600910A46019100F06DF8F078A1
:100ED000C0B11448317800EB8500D0F81025124BD2
:100EE0001A40C0F810254FF4F8524FF4403302EA8C
:100EF000042203EA01410A43D0F810150A43C0F85E
:100F0000102509E008EB0500327810F8481F41EA87
:100F10008211017000E004273846BDE8FC81000022
:100F20004428002000600040FFE0FCFF03490968FE
:100F3000C14011F0010000D00120704710050050A1
:100F400070B5124D95F8540008B1082070BD00200E
:100F5000411E2A18401CC0B282F830102028F8D355
:100F600000242046FDF752FE641CE4B20C2CF8D39A
:100F700006210846FFF70FFF05494FF00040C1F872
:100F80000403012085F85400002070BD442800208F
:100F900000600040034890F85400002800D0012071
:100FA000704700004428002030B541EA4201DDE9E5
:100FB000034541EA8301800041EA042100F1A04099
:100FC00041EA0541C0F8001730BD800000F5E0603F
:100FD00000F1A040026822F440320260026842EA56
:100FE0000141016070470000034908B50844002131
:100FF00001600068009008BD006000400249405850
:10100000012800D0002070470060004040580028B0
:1010100000D001207047D0F80403084000D0012020
:1010200070474058002800D00120704710B568B1C3
:1010300003280FD10220FDF757FC00280AD0BDE895
:10104000104005A240F28B21FCF736BABDE81040F3
:1010500000F0FCBD10BD00002E2E5C2E2E5C2E2E4E
:101060005C6D61696E2E6300007800280AD1064825
:101070003B21808876DF002804D004A24FF4117150
:10108000FCF71ABA70470000802000202E2E5C2E3C
:101090002E5C2E2E5C6D61696E2E6300F0B58BB0F8
:1010A00001274FF0020E05468DF80CE08DF8127006
:1010B0000889ADF814004889ADF8160001F10C005C
:1010C000002608960690ADF820E007A8ADF822604B
:1010D00009900C46A98A288808AAA5DF18B1E96AF0
:1010E000C9B1884717E09DF81C0010F0010F12D01D
:1010F000ADF81060288803A9A8DF002812D1217B51
:1011000004F10D00092943D2DFE801F0420E1D234E
:1011100026282A402C0040F2FD10ADF81000288847
:1011200003A9A8DF0BB0F0BD8DF800600DE006222A
:101130001DE000BF8DF808700190AA6A6946284634
:1011400090470020EEE78DF800706289022AF1D204
:10115000EDE78DF800E0F0E7032012E0042010E056
:1011600005200EE06089032805D2032208212846C5
:10117000FCF7D4FFD6E7B4F80D00ADF8040018B1C1
:1011800006208DF80000D8E70720FAE70920F8E7E5
:101190000322ECE70021425C0AB101207047491CA0
:1011A0000629F8D30020704770B50546C0EBC5018D
:1011B0000C48002600EB81042046C4F81160A4F816
:1011C00015601021FBF7F1F9FF202074A0764FF68F
:1011D000FF702083284601F0CBF902481C3840F804
:1011E000256070BD102700200449084490F93000A4
:1011F000082801DB012070470020704744280020A8
:101200000449084490F93000082801D201207047B1
:10121000002070474428002070B50D00044604D11A
:101220000CA24B210020FCF747F924B909A24C215C
:101230000020FCF741F92878207069886170090A5C
:10124000A170A988E170090A2171E8886071000A1B
:10125000A07170BD2E2E5C2E2E5C2E2E5C2E2E5C70
:101260002E2E5C2E2E5C636F6D706F6E656E7473C8
:101270005C626C655C626C655F7365727669636500
:10128000735C626C655F6469735C626C655F646902
:10129000732E630006490979490701D40820704775
:1012A00020B1044949780160002070470E20704742
:1012B00074210020BC28002070B5124B1B795B07FD
:1012C00001D4082070BDB8B1B2B10368022B11D2AD
:1012D0000D4C03EB430554F825605EB1466804EB02
:1012E000850004894568408901FB046100FB0450C6
:1012F000884203D8072070BD0E2070BDC2E90031BE
:10130000002070BD74210020182B0020F8B5044681
:1013100023480E460079400701D40820F8BD24B3C5
:101320002068022831D21F4D00EB400055F82010F4
:1013300059B305EB800042894168008902FB001126
:101340006068814221D9FFF7BDFA80B1D4E900027B
:1013500000EB400005EB800043680189D51AB5FB1E
:10136000F1F701FB175585B903E00E20F8BD1020F9
:10137000F8BDB6FBF1F501FB156535B92EB1408915
:10138000414390191944884201D90720F8BD002033
:1013900002460090334621460320FDF79DFDF8BD2F
:1013A00074210020182B002010B54FF01020446944
:1013B000601C04D000F007F8B4FBF0F010BD4FF053
:1013C0008050406910BD4FF08050006980B2704776
:1013D00070B5144800242546047044702846FDF773
:1013E0006BFD6D1C1E2DF9D30F4D6C80FFF7DCFFDC
:1013F000C61EFFF7E8FF46430C49AE6000206C6153
:1014000000EB4002401C41F8224001EB820202281E
:1014100014815481F4D32C70AC610420EC616860B9
:10142000002070BDBC28002074210020182B002053
:101430002DE9F843804626481F46164600790C469B
:10144000400702D40820BDE8F883ECB1B8F1000FE2
:101450001AD02068022815D21E4D00EB400055F826
:10146000201079B105EB800042894168008902FBB8
:1014700000116268914205D926B1B04202D3F11938
:10148000814203D90720DEE70E20DCE74046FFF764
:1014900019FAD0B13846FFF715FAB0B16068FFF716
:1014A00011FA90B160683246C1194046FBF756F810
:1014B00000962068002200EB4000434655F820507B
:1014C00002212046A8470020BDE71020BBE700000E
:1014D00074210020182B00202DE9F041294D0446ED
:1014E0000E462879400702D40820BDE8F081ECB10F
:1014F000E6B12068D0B1FFF766FF0146A0888142BF
:1015000012D3102810D3E08870B1FFF74DFF471EAB
:10151000FFF759FF4743E288A188A86802FB010250
:10152000974201D3890703D00720DEE70E20DCE7CE
:101530006988022924D0C6E90010134A01EB41034F
:1015400002EB83014860206842F82300A0880881EC
:10155000E0884881FFF737FFA188E288401E01FB41
:101560000204FFF730FF94FBF0F4FFF72CFFA968AB
:1015700004FB0010A8606888401C68800020B4E765
:101580000420B2E774210020182B0020F8B504468F
:101590001E481E46154600790F46400701D4082014
:1015A000F8BDDFB1D4B12068022815D2184900EB8C
:1015B000400051F820207AB101EB80004289416857
:1015C000008902FB00116268914205D925B1A84249
:1015D00002D3A919814203D90720F8BD0E20F8BD16
:1015E0003846FFF76FF978B13046FFF76BF958B11D
:1015F0006068FFF767F938B12B463A46214601206B
:101600000096FDF769FCF8BD1020F8BD742100209C
:10161000182B002010490246087800281AD0042808
:1016200018D0022A14D0032A14D10A7912070FD431
:101630008A69521C8A61B2F57A7F06D0022801D0ED
:1016400000F02ABB487800F0F9BC0D20FBF78EBFF4
:10165000FEF708BE7047000074210020F8B504466C
:101660001E481E46154600790F46400701D4082043
:10167000F8BDDFB1D4B12068022815D2184900EBBB
:10168000400051F820207AB101EB80004289416886
:10169000008902FB00116268914205D925B1A84278
:1016A00002D3A919814203D90720F8BD0E20F8BD45
:1016B0003846FFF707F978B13046FFF703F958B11C
:1016C0006068FFF7FFF838B12B463A462146042000
:1016D0000096FDF701FCF8BD1020F8BD7421002034
:1016E000182B00204FF08050D0F80C01800200F140
:1016F000005070471A4810B58088A0F57F41FF3927
:101700000FD0132176DF20B116A240F29D11FBF716
:10171000D3FE0020FDF7E8F898B112A240F29F1125
:101720000DE074DF20B1134A40F25511FBF7C4FEFF
:101730000020FDF7D9F820B10E4A4FF4AC71FBF749
:10174000BBFEFCF729FC20B106A24FF4D471FBF7D5
:10175000B3FEBDE810404FF4FA70FFF70FBB000076
:10176000802000202E2E5C2E2E5C2E2E5C6D61695A
:101770006E2E63001CD90100084810B500780028BF
:101780000BD006480649203000F03FF981B20448EA
:10179000BDE810407038FCF73EBE10BD8020002030
:1017A0000825002070B5012670044FF0E0210025C7
:1017B000C1F88001084C4010C4F84803C4F808037D
:1017C00066602F20FAF762FEA660044C2F20256188
:1017D000FAF75CFEE57070BD00100140AC210020FE
:1017E00009480A490022C37DC1F8082143B1D1F854
:1017F0001815437EC268D154417E491C417670471A
:10180000D1F81805704700009C28002000200040F7
:101810001FB501228DF8080004488DF800200191C1
:10182000D0E90012684690471FBD00009C280020A8
:1018300038B5044609480090A0420DD0FFF752FF8A
:101840000546234606A10020009AFFF763F92A1BEC
:1018500010A10020FFF75EF9002038BD8020002095
:1018600052414D205354415254204144445220305F
:101870007825782073686F756C64206265206164D8
:101880006A757374656420746F20307825780D0A4A
:101890000000000052414D2053495A452073686FA3
:1018A000756C642062652061646A75737465642078
:1018B000746F2030782578200D0A000010B50121C2
:1018C000202803DA1D4A8140114004E0402803DA51
:1018D000A0F12002914041B1002809DA00F00F0187
:1018E00001F1E02191F8141D06E042F2010010BD63
:1018F00000F1E02191F800144909082914D299B1A6
:10190000012911D004290FD005290DD00C4A946863
:1019100000F01F0301219940400944B152F82030E2
:101920000B4342F8203007E042F2020010BD800075
:1019300000F1E020C0F80011002010BDFC06FFBC43
:10194000A83400200348417881F001014170024829
:10195000FCF77CBD802000209824002070B515483D
:101960000124512164258460C0E9001504730146F7
:10197000114800F03FF80F488C211030002601601C
:101980004FF4967141600A218160067301460A484E
:10199000083000F02FF807484FF4FA712030056046
:1019A000C0E9011406730146BDE8704002481030DA
:1019B00000F020B8E82400209020002010B5036833
:1019C0000A6889689C1A8C4202D9591A016010BDB4
:1019D00001210260017110BD10B54B680268896871
:1019E0009C1A8C4202D91144016010BD0021036091
:1019F000017110BD0A7B1AB149680160002102E043
:101A00000968016001210171704710B50446007931
:101A10000028204602D0FFF7DFFF01E0FFF7CEFFEE
:101A2000206810BD2DE9F0410746806A14468846BB
:101A3000C8B3002531E000BFB96A05EB450001EBF2
:101A40008006B088801CFE2802D90C20BDE8F081F9
:101A50002288401C08F8020020881622401C80B210
:101A6000208008F800202088401C80B2208000EBF5
:101A70000801308800F076FD2188084480B220807B
:101A8000B28842B1B16871B14044FAF767FD20886D
:101A9000B188084420806D1CEDB297F82C00A84254
:101AA000CAD80020D2E7FFE70720CFE730B59FB0C4
:101AB00003208DF8680014216846FAF776FD1AA80D
:101AC00002909DF80C00002420F00F00401C20F034
:101AD000F00010308DF80C009DF80D00012520F06D
:101AE000FF008DF80D009DF80E00009420F0FF001F
:101AF0008DF80E009DF80F008DF8045020F00F00B7
:101B0000401C20F0F00010308DF80F009DF8100000
:101B1000694620F0FF008DF810003F48FCF72AFCD2
:101B200020B13EA24FF4E771FBF7C6FC142105A8D3
:101B3000FAF73BFD9DF82100059420F00F00401CB2
:101B400020F0F00010308DF821009DF822008DF873
:101B5000185020F00F00401C20F0F00010308DF8DD
:101B600022009DF82300079420F0FF008DF8230049
:101B70009DF8240005A920F00F00401C20F0F00083
:101B800010308DF8240064208DF820002248183889
:101B9000FCF745F920B121A24FF4F071FBF78CFC62
:101BA00040210AA8FAF701FD20A10AA8FCF751FC80
:101BB0009DF8640020F00F00401C20F0F000103071
:101BC0008DF864009DF8650020F0FF008DF8650039
:101BD0000AA8FCF7D3FA20B110A240F2EB11FBF7F0
:101BE0006BFC1748CDE91C040B481B94ADF86C50F6
:101BF0001BA98030FCF706FA20B108A24FF4FD7152
:101C0000FBF75AFC0F48FDF797FC0F488078FDF76B
:101C10000DFC1FB030BD0000982400202E2E5C2E3D
:101C20002E5C2E2E5C6D61696E2E63004E6F7264A9
:101C3000696353656D69636F6E647563746F720079
:101C40004DF40100F51602008020002010B50020A0
:101C5000FCF74AFE20B10CA240F27121FBF72CFCEC
:101C6000FCF77CFD20B108A240F27521FBF724FCB3
:101C70003CDF002806D0BDE8104003A240F27921E5
:101C8000FBF71ABC10BD00002E2E5C2E2E5C2E2EF3
:101C90005C6D61696E2E63000C49087040B10128CB
:101CA0000FD002280FD003280FD14869FEF720BBC0
:101CB00000208861C86106484078002805D0FDF7FB
:101CC000E1B800F077B900F0D3B870477421002074
:101CD000BC28002018B10349C860002070470E20BE
:101CE00070470000D82100207CB5044613480190BD
:101CF0000246009012A10020FEF70CFF6946204624
:101D000060DF0446DDE9000188420ED0FFF7EAFCFF
:101D1000054614A10020009AFEF7FCFE009820A1C1
:101D20002A1A0020FEF7F6FE06E02CB1224626A174
:101D30000020FEF7EFFEFEE720467CBD802000205D
:101D400073645F626C655F656E61626C653A2052B8
:101D5000414D2053544152542061742030782578ED
:101D60000D0A000073645F626C655F656E61626C92
:101D7000653A206170705F72616D5F6261736520AA
:101D800073686F756C642062652061646A75737432
:101D9000656420746F20307825780D0A00000000FB
:101DA00072616D2073697A652073686F756C642049
